:020000040001F9
:1000000038A0FF1F95020100C5020100ED020100AA
:10001000C9020100CB020100CD0201000000000076
:10002000000000000000000000000000CF020100FE
:10003000D102010000000000D3020100D50201003E
:10004000B93A0100C53A0100D13A0100DD3A010098
:10005000E93A0100F53A0100013B01000D3B0100C6
:10006000193B0100253B0100313B01003D3B0100F4
:10007000493B0100553B0100613B01006D3B010024
:10008000793B0100853B0100913B01009D3B010054
:10009000A93B0100B53B0100C13B0100CD3B010084
:1000A000D93B0100E53B0100F13B0100FD3B0100B4
:1000B000093C0100153C0100213C01002D3C0100E0
:1000C000393C0100453C0100513C01005D3C010010
:1000D000693C0100753C0100813C01008D3C010040
:1000E000993C0100A53C0100B13C0100BD3C010070
:1000F000C93C0100D53C0100E13C0100ED3C0100A0
:10010000F93C0100053D0100113D01001D3D0100CC
:10011000293D0100353D0100413D01004D3D0100FB
:10012000593D0100653D0100713D01007D3D01002B
:10013000893D0100953D0100A13D0100AD3D01005B
:10014000B93D0100C53D0100D13D0100DD3D01008B
:10015000E93D0100F53D0100013E01000D3E0100B9
:10016000193E0100253E0100313E01003D3E0100E7
:10017000493E0100553E0100613E01006D3E010017
:10018000793E0100853E0100913E01009D3E010047
:10019000A93E0100B53E0100C13E0100CD3E010077
:1001A000D93E0100E53E0100F13E0100FD3E0100A7
:1001B000093F0100153F0100213F01002D3F0100D3
:1001C000393F0100453F0100513F01005D3F010003
:1001D000693F0100753F0100813F01008D3F010033
:1001E000993F0100A53F0100B13F0100BD3F010063
:1001F000C93F0100D53F0100E13F0100ED3F010093
:10020000F93F010005400100114001001D400100BF
:100210002940010035400100414001004D400100EE
:100220005940010065400100714001007D4001001E
:100230008940010095400100A1400100AD4001004E
:10024000D7020100D7020100D7020100D702010046
:10025000D7020100D7020100D7020100D702010036
:10026000D7020100D7020100D7020100D702010026
:10027000D7020100D7020100D7020100D702010016
:10028000DFF80CD000F070FB00480047B109010016
:1002900038A0FF1F10484FF0770101600F484FF062
:1002A000770101600E484FF4885101600A484FF011
:1002B0007601016009484FF07601016009488047E6
:1002C00009480047FEE7FEE7FEE7FEE7FEE7FEE738
:1002D000FEE7FEE7FEE7FEE7040805400C080540E0
:1002E00000080540E950010081020100704669469E
:1002F00006F00EFFFFF7FEFF2DE9F05F0546002038
:1003000092469B4688460646814640241BE0284686
:1003100041464746224600F02FF853465A46C01A37
:10032000914110D311461846224600F016F82D1AB6
:1003300067EB01084F4622460120002100F00DF82E
:1003400017EB00094E41201EA4F10104DFDC4846F2
:1003500031462A464346BDE8F09F202A04DB203A76
:1003600000FA02F1002070479140C2F1200320FA08
:1003700003F3194390407047202A04DB203A21FA06
:1003800002F00021704721FA02F3D040C2F12002AE
:1003900091400843194670470649074A0868504388
:1003A00043F2390210440860400870470149086070
:1003B00070470000C880FF1F6D4EC64140EA010330
:1003C0009B0703D009E008C9121F08C0042AFAD20B
:1003D00003E011F8013B00F8013B521EF9D27047CF
:1003E000D2B201E000F8012B491EFBD27047002277
:1003F000F6E710B513460A4604461946FFF7F0FF24
:10040000204610BD421C10F8011B0029FBD1801AA8
:1004100070472DE9F04D81EA030404F0004B21F010
:10042000004514464FF0000A23F0004150EA05024F
:1004300020D054EA01021DD0C5F30A570246C5F385
:100440001303C1F31300C1F30A5640F4801543F4BB
:100450008013A7EB0608101BD64608F2FD3873EB95
:10046000050002D308F1010801E092185B41B8F1E0
:10047000000F03DA00200146BDE8F08D00204FF4A4
:100480008011064684460EE0171B73EB050705D363
:10049000121B63EB050306434CEA010C49084FEAC3
:1004A000300092185B4150EA0107EDD152EA030097
:1004B00012D082EA040083EA0501084305D0101B2C
:1004C000AB4106D20122002306E000224FF0004398
:1004D00002E06FF0010253101AEB06004CEB0851DA
:1004E00010EB0A0041EB0B01BDE8F04D00F095B8B0
:1004F0000EB540F2334102910021CDE900110A46C8
:100500000B4600F099F803B000BD0EB540F233423F
:1005100002920022CDE90022134600F08DF803B0CC
:1005200000BD00F0004230F000400AD0C10D01F5DE
:100530006071C0F3160042EA0151C208400711433E
:10054000704700200146704701F0004330B421F0AD
:10055000004150EA010206D00A0DA2F56072C1F313
:100560001301002A02DC30BC00207047440F44EA2B
:10057000C104C100E01830BC00EBC25000F016B856
:1005800030B50B46014600202022012409E021FA63
:1005900002F59D4205D303FA02F5491B04FA02F560
:1005A0002844151EA2F10102F1DC30BD0029A8BFCC
:1005B0007047401C490008BF20F00100704710B48C
:1005C000B0FA80FC00FA0CF050EA010404BF10BC41
:1005D000704749B1CCF1200421FA04F411FA0CF16E
:1005E00018BF012121430843A3EB0C01CB1D4FEAA7
:1005F00000614FEA102042BF002010BC704700EBA2
:10060000C35010440029A4BF10BC7047401C4900CF
:1006100008BF20F0010010BC704710B5141E73F124
:10062000000408DA401C41F1000192185B411A43B2
:1006300001D120F0010010BD2DE9F04D92469B46FE
:1006400011B1B1FA81F202E0B0FA80F220329046A4
:10065000FFF783FE04460F4640EA0A0041EA0B0119
:1006600053465A46084313D0114653EA010019D0A5
:10067000C8F140025046FFF77FFE05460E46504641
:1006800059464246FFF769FE084305D0012004E0C1
:1006900020463946BDE8F08D0020054346EAE07665
:1006A0002C4337430A986305E40AA0EB08000022B4
:1006B000FD0A44EA47540A3002D500200146E9E722
:1006C000010510196941DDE9084500196941BDE8D6
:1006D000F04DA2E72DE9FE4F804681EA0300C00FEE
:1006E0000C46009021F0004123F00045B8EB0200D9
:1006F000A94105D24046214690461C460B4602467B
:1007000023F00040104347D0270DC7F30A00C3F37E
:100710000A510290401A019040286BDAC3F313008B
:1007200040F4801B0098924620B10023D2EB030ACC
:1007300063EB0B0B01985946C0F140025046FFF79E
:100740000CFE06460D4650465946019A00F01EF929
:1007500010EB08006141002487EA115284EAE77334
:100760001A4340D0009A62B3019A012A4FEA075215
:1007700015DC001B61EB02014FF0004202EA075258
:10078000CDE90042001C41F5801132462B46FFF7AF
:1007900053FF03B0BDE8F08F40462146F9E7001B48
:1007A00061EB0201001C41F5801300185B41201829
:1007B000A2F5001747EB030140EAD570B6196D4169
:1007C00011E06D084FEA360645EAC0754FEA075258
:1007D000001B61EB0201001C41F5801149084FEA42
:1007E00030000019514132462B4603B0BDE8F04FAE
:1007F000FFF713BF0098012240000023D0EB020254
:1008000063EBE073009821464FEAE074B8EB000018
:1008100061EB0401E9E783F000435BE781F000410D
:1008200058E72DE9FE4F81EA030404F0004421F06B
:10083000004100944FF0000B23F0004350EA010404
:100840005ED052EA03045BD0C3F30A54C1F30A55E5
:100850002C44A4F2F3340194A0FB0254C1F313011D
:1008600041F48011C3F3130343F4801301FB0244EA
:1008700000FB034E840A970A44EA815447EA8357EF
:10088000A4FB076802958D0A05FB07854FEA932CA8
:1008900004FB0C542705029D4FEA065847EA163719
:1008A000B5EB08056EEB070C870E920E47EA811731
:1008B00042EA8312A7FB0201B6EB0B0164EB0004D2
:1008C0002B0D43EA0C335E1844EB1C50DA465146BC
:1008D000E7FB0201C5F313044FEA0B3343EA145359
:1008E0004FEA0432019C43EA0603A4F10C0402948B
:1008F000009CCDE900B4FFF79FFE03B0BDE8F08F88
:1009000000200146F9E7C1F30A52C1F3130140F296
:10091000FF3341F480119A4202DA00200146704709
:1009200040F233439A42A2F2334202DC5242FFF7D2
:1009300023BDFFF712BD000030B5041E71F10004A5
:1009400004DB4FF00044404264EB0101141E73F1DC
:10095000000405DB1C464FF00043524263EB0403E6
:10096000994208BF904230BD064C074D06E0E06852
:1009700040F0010394E8070098471034AC42F6D3E6
:10098000FFF782FCF4C1010014C20100202A06DB3B
:10099000CB17203A41FA02F043EAE07306E041FA4D
:1009A00002F3D040C2F1200291400843194670473B
:1009B00010B504F055FB06F0E5FE002010BD000068
:1009C0002DE9F0411C4606AB93E8600160B15CB1D3
:1009D00055B10027A7840C23E38420602171226392
:1009E0002979012905D00BE0BDE8F04115A005F0FB
:1009F000A7BD2AB919492163014619A005F0A0FD38
:100A00002561C4E907780EB1B46000E02E46666146
:100A1000E86880B12869A0612869C4612C61A8696F
:100A2000401CA861E060D5E90301C861D5E9030174
:100A30008161BDE8F081A461EC60AF6138462C6152
:100A4000F0E70000496E76616C6964207061726144
:100A50006D657465722873290A0000005CAB0100A3
:100A60002573203A20496D616765206973206E7592
:100A70006C6C210A0000000008600020C86008615A
:100A80000A710120487170471FB50122032105201A
:100A900001F08EFE684600F0BBFB02A800F0AAFA47
:100AA0002149224800F0BEFA00248DF8024030208F
:100AB0008DF8010005208DF804008DF8004068468F
:100AC00000F026FB3121204661F3102000F1805018
:100AD00020F0706000F1807020F4700000F580104C
:100AE00020F0800003908DF8084002A800F09EF9E5
:100AF000202000F019F90128FAD100221146042023
:100B000003F00EFF012211460B2003F009FF5020D5
:100B100001F04EFD4FF4404002F06CF803F00AFD86
:100B2000052000F086FA1FBD1022110077777707A5
:100B300000B585B0684602F09BF80220ADF80200CF
:100B40006A460121002001F07FFE6A460221002052
:100B500001F07AFE6A460821012001F075FE05B019
:100B600000BD10B50446C00703D00121002002F0EB
:100B700007F8A00703D50221002002F001F8600762
:100B800005D50821BDE81040012001F0F9BF10BDD6
:100B900010B50446C0074FF001014FF0000002D02D
:100BA00001F058FF01E001F0EBFFA0074FF0020158
:100BB0004FF0000002D501F04DFF01E001F0E0FF31
:100BC00060074FF008014FF0010003D5BDE8104069
:100BD00001F040BFBDE8104001F0D2BF10B504469F
:100BE000C00703D00121002002F054F8A00703D56C
:100BF0000221002002F04EF8600705D50821BDE86B
:100C00001040012002F046B810BD00002DE9F04769
:100C10008CB05FEA010A6FF0020434D02422042170
:100C2000052001F051FF0121C80601F055FD68467D
:100C300005F0B4FB4FF40040154E079000226946C2
:100C4000304605F0DDFADFF84C90134F00254FF0E9
:100C5000FF382946304605F08BFA0BAA514630463C
:100C600005F090F904000AD10B98484507D8B8421E
:100C700005DC01220821304605F030F903E06D1C47
:100C80004446032DE5D90CB02046BDE8F0870000AE
:100C900000140240CDCCCCBCCDCCCC3C2DE9F041F5
:100CA0001B4F384604F030FD0446002003F004FAE0
:100CB000184D002628B16C602E706E700320BDE8C0
:100CC000F0816868844206D0384604F0DBFCC1B28B
:100CD000022904D019B12E706E700020EFE76878F9
:100CE00081420ED12878401CC0B228700228F4D36B
:100CF000A9702E706C60022907D00029EDD1012067
:100D0000DDE7012028706970E7E70220D7E70000DF
:100D1000006001406080FF1F08B500210091814202
:100D200001D2491CFAE708BD10B5040002D034F026
:100D3000690004D040F2BB5104A001F019F80F483B
:100D400090F83C00204000D0012010BD2E2E2F2E08
:100D50002E2F647269766572732F686333325F6C0D
:100D60006C5F6472697665722F7372632F68633388
:100D7000325F6C6C5F636C6B2E630000004005405B
:100D800070B505004FF0000406D0012D04D040F2EC
:100D90000E5119A000F0ECFF234EB6F8FE03C00779
:100DA00004D140F20F5114A000F0E2FF45B1D6F893
:100DB00000014FF48055000629460ED408200DE0AE
:100DC00096F8260000F00700052803D0012086F8D9
:100DD0002A000EE06FF005040BE0012000F030F96E
:100DE000040006D186F82A002946202000F028F9C0
:100DF0000446204670BD00002E2E2F2E2E2F64722A
:100E000069766572732F686333325F6C6C5F6472EE
:100E1000697665722F7372632F686333325F6C6C0F
:100E20005F636C6B2E630000004005402DE9F041CC
:100E3000040026D0207900F01F00172804D94FF4B1
:100E40009C6158A000F094FF6068C0F3082013383C
:100E5000B0F5E67F04D940F2E14152A000F088FFEE
:100E600060684FF0FF3101EB10700E2804D940F29A
:100E7000E2414CA000F07CFF6168080605D45548AB
:100E800005E06FF00200BDE8F0815348006801F012
:100E90001F02521CB0FBF2F0C1F308256D1C4F4934
:100EA000454308444E49884204D94FF49D613DA012
:100EB00000F05EFF4B484B4928444942884204D920
:100EC00040F2E94137A000F053FF6068012101EBD7
:100ED0001070B5FBF0F0444E444F3044B84204D992
:100EE00040F2EA412FA000F043FF6068C0F30360C6
:100EF000401E0E2804D940F2EB412AA000F038FF32
:100F00006068C0F30350401E0E2804D940F2EC4143
:100F100024A000F02DFF6068C0F30350401CB5FB17
:100F2000F0F03044B84204D940F2ED411DA000F089
:100F30001FFF6068C0F30360401CB5FBF0F0304455
:100F4000B84204D940F2EE4116A000F011FF20781B
:100F5000012805D020B140F2EF4112A000F008FFB7
:100F6000234DB5F8FE03C00704D14FF49E610DA0D8
:100F700000F0FEFED5F80001217920F08000C1F3D9
:100F8000C01140EAC110C5F800016068C5F8000151
:100F9000207820B10020BDE8F041FFF7F1BE01202C
:100FA000F9E700002E2E2F2E2E2F647269766572BF
:100FB000732F686333325F6C6C5F6472697665723D
:100FC0002F7372632F686333325F6C6C5F636C6B7B
:100FD0002E63000000127A001480FF1FC0BDF0FFD6
:100FE00000366E0100E4B1F1401E1BFF403A690D6E
:100FF00000400540002190B10022132363F310222A
:1010000002F1805222F0706202F1807222F47002CA
:1010100002F58012426001220270084670476FF0AC
:101020000201FAE710B503F0DBFCBDE8104004F064
:1010300017B810B503F002FEBDE8104004F010B878
:10104000F8B5064600200D466FF00704009007E053
:101050003046FFF769FE012806D00098401C00903A
:10106000A842F5D92046F8BD0024FBE770B505007D
:101070004FF0000406D0012D04D040F2CB3117A070
:1010800000F076FE214EB6F8FE03C00704D14FF4FF
:10109000737112A000F06CFE55B1002086F832008A
:1010A0004FF480510820FFF7CBFF0446204670BD67
:1010B00096F826006FF0050100F0070003280BD01A
:1010C000D6F8000102064FF0010002D496F82A205B
:1010D00012B186F83200E9E70C46E7E72E2E2F2EF4
:1010E0002E2F647269766572732F686333325F6C7A
:1010F0006C5F6472697665722F7372632F686333F5
:10110000325F6C6C5F636C6B2E63000000400540C7
:1011100070B5040045D02078012805D020B140F2F8
:10112000A9312DA000F024FE607850B1102808D01D
:10113000202806D0302804D040F2AA3126A000F0A2
:1011400017FEA07830B1402804D040F2AB3122A085
:1011500000F00EFEE078802805D020B14FF46B71CE
:101160001DA000F005FE2079012814D0022812D01D
:10117000032810D004280ED005280CD006280AD049
:10118000072808D0082806D0092804D040F2AD313D
:1011900011A000F0EDFD1C4DB5F8FE03C00708D10D
:1011A00002E06FF0020070BD40F2AE310AA000F024
:1011B000DFFD207985F8A200E07861780843A17806
:1011C000084312490870207820B10020BDE8704023
:1011D000FFF74CBF0120F9E72E2E2F2E2E2F647221
:1011E00069766572732F686333325F6C6C5F64720B
:1011F000697665722F7372632F686333325F6C6C2C
:101200005F636C6B2E630000004005401044054096
:10121000002150B1012202700022827042708022AF
:10122000C27005220271084670476FF00201FAE7AA
:1012300070B516460446186912691D46904227D0BB
:10124000307968B106280AD154F84C0B4169496AD3
:10125000A1674169896A61674069C06AE06770BDDA
:10126000D4F8C40054F84C1B0969486254F84C1C6B
:10127000606F0969886254F84C1CE06F0969C862A4
:10128000B5F92400A067B3F926000C38606770BD7B
:101290000879D8B10128FAD1B5F92400C4F8C400FE
:1012A0006169802292FBF1F24A43511A814201DBCB
:1012B0000028ECDAF068D968401A012801D0401CF7
:1012C000E5D1B6F92400C4F8C40070BD3068FFF75A
:1012D00099F800EB4000042101EB4000C4F8B40091
:1012E000B5F9260040220C38C4F8C000216992FBF1
:1012F000F1F24A43511A814201DB0028E5DAF06835
:10130000E968401A012801D0401CDED1B6F9260058
:101310000C38C4F8C00070BD2DE9F04F0C794FF0C7
:1013200000094FF0010A4FF00C0B24B1012C3CD105
:101330004C79E4B36FE04C7954BBD3F80C80D2F80D
:101340000CC04027A8EB0C060469002E0EDD97FBAD
:10135000F4FC8D69A5EB0C0CB44504DA97FBF4F6AC
:10136000AD1B6D1C6C43C5692C1B0EE097FBF4F69E
:101370008D69ACEB080CAE1B664504DA97FBF4F6FE
:10138000AD1B6D1C6C43C5692C44C46181F805A07C
:1013900019691469A14208D015794DB1062D04D1FF
:1013A000096AC1611969C9698161BDE8F08F07E007
:1013B0008169E1611269C1691162C0E9069BF4E7C4
:1013C000D3F80C80D2F80CC08027A8EB0C06446937
:1013D000002E0EDD97FBF4FC8D69A5EB0C0CB445DB
:1013E00004DA97FBF4F6AD1B6D1C6C4385692C1B6E
:1013F0000EE097FBF4F68D69ACEB080CAE1B66456E
:1014000004DA97FBF4F6AD1B6D1C6C4385692C4424
:10141000846181F805A019691469A142C5D01579C4
:10142000002DC5D0062DC0D1C96981611969096A2D
:10143000C161BAE72DE9F05F0C462DED028B9946AC
:10144000DDE90CBA384915466FF0020888420DD024
:10145000364988420AD03649884207D03549884201
:1014600004D04FF4167134A000F082FCB9F1000FE3
:1014700055D0BBF1000F52D0F4B3EDB3A800B4FBCC
:10148000F0F0461E801EFE2849D80022701C42F152
:1014900000018B0043EA90738100A1FB050703FB69
:1014A000057301FB02310D0245EA10650702224671
:1014B000002338462946FEF71FFF80387F282ED8A4
:1014C000C9F80060CBF80000BAF1000F25D08021E8
:1014D0004118A1FB0406002242F1000303FB046350
:1014E00001FB0234064638462946FFF70EF841EC68
:1014F000180B3046214600E011E0FFF706F853ECE8
:10150000182BFEF786FFFFF71FF800EE100AF7EE24
:10151000000A30EE600A8AED000A4FF00008BDECC8
:10152000028B4046BDE8F09F00D0014000D401404E
:1015300000100240001402402E2E2F2E2E2F647217
:1015400069766572732F686333325F6C6C5F6472A7
:10155000697665722F7372632F686333325F6C6CC8
:101560005F75736172742E63000000002DE9F04115
:101570000C462DED028B1E462949089F90466FF0C0
:10158000020588420DD0274988420AD02649884260
:1015900007D02649884204D040F29511244800F033
:1015A000E7FB4046B6B3ACB3A0B304EB84014900FB
:1015B0008200B1FBF2F10A22491DB1FBF2F2511E89
:1015C000921EFE2A26D831601FB30023491C43F126
:1015D0000002950045EA91758900A1FB002605FBF4
:1015E000086001FB03011046FEF78FFF41EC180B6A
:1015F0002046FEF77DFF53EC182BFEF70AFFFEF79F
:10160000A3FF00EE100AF7EE000A30EE600A87ED45
:10161000000A0025BDEC028B2846BDE8F0810000E1
:1016200000D0014000D401400010024000140240EC
:101630003461010070B50D46044600F059F800F021
:10164000DFFA00F08DFB1020206127206061002070
:1016500025600C216560C4E9060184F8200084F847
:1016600021009FED1C1A20739FED1B0A84ED091ABF
:10167000DFED1A0A84ED0A0AC4ED0B0AF6EE001A31
:10168000C4ED0F1A84ED100A84ED110AC4ED151A89
:10169000DFED131AC4ED161ADFED121AC4ED171A96
:1016A000F5EE001AC4ED211A84ED220AC4ED230AD6
:1016B000DFED0D0AC4ED270ADFED0C0A84ED280AE0
:1016C000C4ED290A84ED1B1A84ED1C0AC4ED1D0A21
:1016D00070BD00003333B33E000000008FC2F53C04
:1016E000CDCC4C3E7B142E3E6666E63ECDCCCC3D4A
:1016F0002DE9FE430122DD49DDA0FFF7BDF9DB4DF9
:10170000DE4800240095CDE9014005F5A873224686
:101710000121D7A0FFF754F905F130060095D84F05
:10172000CDE9016405F522730021D6A07A68FFF7A0
:1017300047F900223146D5A0FFF79EF90096CDE982
:10174000015405F5C27300220621D0A0FFF738F935
:10175000D0480096CDE9014005F57D7300220221B5
:10176000CDA0FFF72DF9CE480096CDE9014005F553
:10177000637300220221CBA0FFF722F9CB48009629
:10178000CDE9014005F5707300220221C8A0FFF7E2
:1017900017F9C9480096CDE9014005F58563002297
:1017A0000221C6A0FFF70CF905F590780096CDE967
:1017B0000184002205F25C431146C3A0FFF700F943
:1017C00000224146B1A0FFF757F9CDF80080CDE9DE
:1017D000016405F5926300220621ACA0FFF7F0F842
:1017E000BC49CDF80080CDE9014105F2C443002297
:1017F0000221B9A0FFF7E4F8BA49CDF80080CDE99D
:10180000014105F59F6300220221B7A0FFF7D8F838
:10181000B749CDF80080CDE9014105F22C530022F3
:101820000221B4A0FFF7CCF830360095CDE9016471
:1018300005F53C730021B1A0BA68FFF7C1F800229A
:10184000314692A0FFF718F90096CDE9015405F54D
:10185000F673002206218DA0FFF7B2F8CDE90064EF
:1018600005F5AC6300220221A8A00294FFF7A8F8B6
:10187000CDE9006405F2945300220221A5A0029450
:10188000FFF79EF8CDE9006405F5B9630022022157
:10189000A2A00294FFF794F8CDE9006405F2FC538E
:1018A00000220221A0A00294FFF78AF8CDE900648B
:1018B00005F5C663002202219DA00294FFF780F87F
:1018C000CDE9006405F26463002202219AA002942B
:1018D000FFF776F830360095CDE9016405F52F73F2
:1018E000002197A0FA68FFF76BF80022314667A045
:1018F000FFF7C2F80096CDE9015405F5DC7300222C
:10190000062162A0FFF75CF8CDE9006405F5D3631A
:10191000002203218CA00294FFF752F8CDE9006465
:1019200005F2CC63002203218BA00294FFF748F854
:10193000CDE9006405F5E0630022032189A002944B
:10194000FFF73EF8CDE9006405F23473002203216D
:1019500088A00294FFF734F830360095CDE9016491
:1019600005F54973002185A0FA69FFF729F80022DF
:10197000314646A0FFF780F80096CDE9015405F501
:1019800008730022062141A0FFF71AF8CDE9006490
:1019900005F5ED63002203217DA00294FFF710F806
:1019A000CDE9006405F29C73002203217CA002941F
:1019B000FFF706F830360095CDE9016405F556735A
:1019C00000217AA03A69FEF7FBFF002231462FA0E2
:1019D000FFF752F80096CDE9015405F51573002282
:1019E00006212AA0FEF7ECFF73480096CDE90140DE
:1019F00005F5FA630022022170A0FEF7E1FF7148AD
:101A00000096CDE9014005F60403002202216EA0F4
:101A1000FEF7D6FF6E480096CDE9014005F6380383
:101A2000002202216BA0FEF7CBFF6C480096CDE9A7
:101A3000014005F66C030022022169A0FEF7C0FFF9
:101A4000CDE90054029405F50A63022166A07A6983
:101A5000FEF7B6FFCDE90054029405F6D403022147
:101A600063A0BA69FEF7ACFFBDE8FE835084FF1F98
:101A70005B486F6D65506167655D0000654D0100F5
:101A80003880FF1F202B496E707574005B426163C4
:101A90006B5D0000CD6E0100202D56474100000017
:101AA000956E0100202D524742530000B16E010097
:101AB000202D524753420000656E0100202D4368DF
:101AC0006970494400000000202B534F47204D6FA0
:101AD00064650000F16F0100202D4E6F726D616C26
:101AE00000000000A96F0100202D466F72636500A1
:101AF00031700100202D526561640000202B566971
:101B000064656F466F726D6174000000202D417531
:101B1000746F0000202D4E5453430000202D4E546E
:101B20005343343433000000202D50414C0000005A
:101B3000202D50414C5F4D00202D534543414D0019
:101B4000202B436F6C6F7200202D4272696768749E
:101B50006E65737300000000202D436F6E74726118
:101B600073740000202D53617475726174696F6E17
:101B700000000000202D487565730000202B536382
:101B80007265656E506F736974696F6E0000000056
:101B9000202D4C6566742652696768740000000049
:101BA000202D557026446F776E000000202B4F7556
:101BB0007450757400000000196F0100202D343836
:101BC00030500000496F0100202D373230500000A6
:101BD000796F0100202D393630500000E96E010088
:101BE000202D313038305000202D536176650000B3
:101BF000202D4C6F616444656661756C7400000053
:101C00002DE9F0414548464E00242DED028B40A1C0
:101C10008460C0E900160125057344738573642749
:101C2000C0E90474B7EE008A311D80ED068A0860B1
:101C300000F5E86000F095F838483AA11C3084605F
:101C4000C0E90016057344738573C0E9047406F196
:101C50000C0180ED068A086000F5EB6000F081F869
:101C60002E4833A138308460C0E9001605734473F0
:101C70008573C0E9047406F1140180ED068A0860DA
:101C800000F5EE6000F06DF824482CA1543084601B
:101C9000C0E90016057344738573C0E9047406F146
:101CA0001C0180ED068A086000F5F16000F059F82B
:101CB0001A4824A1703014278460C0E90016057307
:101CC000447385736FF01308C0E9047806F12401AA
:101CD00080ED068A086000F5F46000F042F80F48D5
:101CE0001CA18C308460C0E90016057344738573B1
:101CF000C0E9047806F12C0180ED068A086000F541
:101D0000F760BDEC028BBDE8F04100F02AB800009E
:101D10004272696768746E6573730000A883FF1F61
:101D20006880FF1F436F6E7472617374000000005F
:101D300053617475726174696F6E000048756573E4
:101D4000000000004C656674416E645269676874F7
:101D5000000000005570416E64446F776E00000013
:101D60007047002802D0002900D081607047000031
:101D70000A46014601A004F0E3FBFEE757726F6ECE
:101D80006720706172616D65746572732076616C35
:101D900075653A2066696C65202573206F6E206C2E
:101DA000696E652025640D0A0000000018B50E4A12
:101DB00000210091D36804469268C81E002A0FD003
:101DC000009805E0106800F080010098401C009029
:101DD000984202D80029F5D000E011B154600020EB
:101DE00018BD6FF0070018BD0080FF1F0B4908B534
:101DF000096AC1F302620A490968D14042F20F72CE
:101E00001144521CB1FBF2F304E0009300994A1E06
:101E10000092FBD2401EF8D208BD000000400540F1
:101E20001080FF1F0A4908B5096AC1F30262094917
:101E30000968D140084A1144521CB1FBF2F304E096
:101E4000009300994A1E0092FBD2401EF8D208BDB2
:101E5000004005401080FF1F7F9698002DE9F84351
:101E6000044690F82000089E1D4617468846042820
:101E700019D104F13C02B4F8CC109146184602F096
:101E80002FFB24F8CC0F4A466188304602F028FB2D
:101E900080B26080009034F8CC39BAB21FFA88F171
:101EA000204600F021F8B4F8CC00A91E884210DBCF
:101EB000AD1CA8420DDCB4F8CE00B11E884208DB90
:101EC000B61CB04205DC032084F820000120BDE8E8
:101ED000F88302F0F3FA0020F9E70000014806F069
:101EE000A1BD0000D88DFF1F2DE9F8430446007BFB
:101EF000984680F001008DF8000015460E46089FB8
:101F0000684602F0E1FA3B4642462946304602F076
:101F10007BFA9DF8000080F001008DF80000684613
:101F200002F0D2FAB4F8CE006D1C801E83B2B4F871
:101F3000CC00761C801E82B2A9B2B0B202F064FA64
:101F40009DF8000080F001008DF80000684602F066
:101F5000BBFABDE8F883000010B502F04FFA0D4857
:101F600002F0B8FA0CA20C21002002F07FFA0DA2B8
:101F70001821002002F07AFA10A22421002002F099
:101F800075FA12A23C21322002F070FABDE810402E
:101F900002F094BAE8AD01004D756C744D656E7534
:101FA00000000000417574686F723A5A68616E678C
:101FB0004A69616E46656E6700000000576169748A
:101FC00020627574746F6E2E2E2E0000566572732B
:101FD000696F6E3A322E312E370000002DE9FC4138
:101FE000984613460F46CC6805464246194600F00F
:101FF0004BF828680169D8F81000814209D0002008
:10200000014603E02185E469401C80B2BA6982423E
:10201000F8DA002617E0B4F92810B4F9240005F125
:10202000840202F05DFA00B220851E30BC2807D879
:10203000206B00901E23208D1A460C2102F01EFA00
:10204000E469761CB6B2B869B042E4DA3E210020F9
:10205000D8F8002002F00AFA02208DF8040001A846
:1020600002F032FA05F19C02D5F8BC10D5F8C40094
:1020700002F036FAC5F8BC0080B202231E222F21DE
:1020800002F0CEF9BDE8FC8110B5044610699FED61
:10209000181A90ED060AB8EEC00AC1EE000A92EDD9
:1020A000030A04F12402B8EEC00A20EE800ABCEE56
:1020B000C00A10EE100A80B2A4F8D600B4F8D4100A
:1020C00002F00EFA24F8D40F0223802219460020D1
:1020D00002F0B2F9002122880623084602F094F9A2
:1020E00020886188884201D1012010BD002010BDE8
:1020F00000000043F8B504461D4617460E466248E8
:1021000002F0E8F902F07AF994F82000022828D1C8
:1021100028693969884202D00120707121E0307944
:10212000002110B101281CD10FE02069402292FB50
:10213000F0F24243131AB5F92600A0F10C029342C3
:1021400001DB0C380BE071710BE06069802292FBBF
:10215000F0F24243121AB5F924008242F3DB002860
:10216000F1DB2868FEF74EF900EB40004000C4F8B0
:10217000C800207B8DF80000684602F0A5F9002118
:1021800040238022084602F03FF99DF8000080F0CD
:1021900001008DF80000684602F096F994F82000DE
:1021A0003A462B46022826D131462046FFF7B4F89E
:1021B0000020F16812E0327912B1012A0BD105E05A
:1021C0002369E26900FB0322CA8404E0D4E90532F2
:1021D00000FB03228A84C969401C80B2B269824232
:1021E000E9DA94F82000022805D12B463A46314618
:1021F0002046FFF71DF8307910B1012832D03CE0BD
:1022000028699FED221A04F1240290ED060AB8EE27
:10221000C00AC1EE000A95ED030AB8EEC00A20EE2E
:10222000800ABCEEC00A10EE100A80B2A4F8D200F8
:10223000B4F8D01002F054F9A4F8D0007922402369
:102240000021104602F0F8F8B4F8D0300622002140
:10225000762002F0D9F82B463A463146204600F067
:10226000DDF80AE02A4639462046FFF70DFF2B46E7
:102270003A4631462046FFF7B1FE02F01FF9012031
:1022800084F82000F8BD0000E8AD010000008042A5
:102290002DE9F04305462DED028B81B01F460B98CA
:1022A000002389468DF800301446417B0126921F99
:1022B000F1EE081A00297CD0012978D190ED041A9A
:1022C0004168B8EEC11AD1ED000AF4EEC10AF1EE90
:1022D00010FA6CD890ED051AB8EEC11AF4EEC10AE6
:1022E000F1EE10FA63DB30EE800A81ED000AD0EDEA
:1022F000040A4168B8EEE01AB4EEC10AF1EE10FA31
:1023000003DDB8EEE00A81ED000A90ED050A4168B0
:10231000B8EEC01AD1ED000AF4EEC10AF1EE10FADF
:1023200003D2B8EEC00A81ED000AD0F814C04168AB
:1023300000EE10CAD1ED000AB8EEC00A30EEC00AB5
:10234000BDEEC00A10EE101A002900DA49425143CE
:1023500000EE101A00698DF80030F8EEC00AA0EB0C
:102360000C0000EE100A6846B8EEC01A80EE810A32
:1023700030EE218A02F0A8F8BCEEC88A3B464946F6
:1023800018EE100A201A82B218EE100A284480B201
:1023900002F03AF88DF80060684602F095F818EE01
:1023A000100A3B46494682B2284602F02DF801B099
:1023B00000E003E0BDEC028BBDE8F083D0F804C080
:1023C000D0F81080DCF800104145F0DCD0F8148023
:1023D0004145ECDB00EE901AF8EEE00A30EE800AA0
:1023E000BDEEC00A10EE101ACCF80010D0F810C0E4
:1023F000D0F80480614501DDC8F800C0D0F804C001
:102400004169DCF80080884501DACCF800104168A9
:10241000D0F814C00968A1EB0C0195E7F0B50546AA
:1024200000680F46CC680069196987B0884209D0F6
:102430000020014603E06185E469401C80B2BA696E
:102440008242F8DA002659E0B4F92A10B4F92600DD
:1024500005F16C0202F044F800B260850C30582897
:1024600049D8618DA08C226802F000F820790328F9
:1024700041D114216846FDF7BAFFA0680168487B86
:1024800020B1012809D002282ED113E0486831A1DB
:102490000268684604F064F826E048680068FEF7C1
:1024A00040F841EC100B2CA153EC102B684604F0C3
:1024B00057F819E0608D0C230C3881B2A08C1A46B5
:1024C0005F3080B201F0ACFFA0680068406800781F
:1024D000012809D1608D08230A3881B2A08C1A46E0
:1024E000613080B201F090FFA08C618D5C3080B2D1
:1024F0006A4601F0BBFFE469761CB6B2B869B04227
:10250000A2DA02208DF8140005A801F0DDFF05F124
:1025100054021446D5F8B810D5F8C00001F0E0FF19
:10252000C5F8B800D5F8B410D5F8C80022467C35F7
:1025300001F0D6FF0421A86382B20091A88F0C237A
:10254000401C81B235F8640C401C80B201F080FF61
:1025500007B0F0BD25640000252E326600000000A3
:1025600010B5040006D0012C04D040F2BB3103A00A
:10257000FFF7FEFB0D48C0F8804110BD2E2E2F2E18
:102580002E2F647269766572732F686333325F6CC5
:102590006C5F6472697665722F7372632F68633340
:1025A000325F6C6C5F65666D2E63000000802042B8
:1025B0002DE9F04105461A4800240068012804D09E
:1025C0004FF4897117A0FFF7D3FBF02D04D940F227
:1025D000131114A0FFF7CCFB114B0833186805F05A
:1025E000F00120F0F000084318601B48194E44F633
:1025F000206102680DE0306AC0F3026722FA07F03A
:10260000B0FBF1F0641CA04203D26FF00700BDE8FC
:10261000F081186800F0F000A842ECD10020F6E745
:10262000000401402E2E2F2E2E2F647269766572C3
:10263000732F686333325F6C6C5F647269766572A6
:102640002F7372632F686333325F6C6C5F65666DE6
:102650002E630000004005401080FF1F70B50D463E
:10266000040002D00E48044203D071210DA0FFF7F0
:102670007FFB2DB1012D03D072210AA0FFF778FB5B
:10268000144E3069C00703D1732106A0FFF770FB19
:102690003068012D02D02043306070BDA043FBE7BD
:1026A000EE3A0C702E2E5C2E2E5C6472697665728A
:1026B000735C686333325F6C6C5F647269766572F9
:1026C0005C7372635C686333325F6C6C5F66636714
:1026D0002E6300000080044070B50D46040002D057
:1026E0000A48044203D0842109A0FFF741FB144E9D
:1026F0002DB1012D07D0852105A0FFF739FB7068AA
:102700002043706070BD7068A043FAE78602F0F065
:102710002E2E5C2E2E5C647269766572735C686323
:1027200033325F6C6C5F6472697665725C7372637E
:102730005C686333325F6C6C5F6663672E630000B6
:102740000080044070B50D46040002D00A480442DF
:1027500003D0962109A0FFF70BFB144E2DB1012DDC
:1027600007D0972105A0FFF703FBB0682043B060B6
:1027700070BDB068A043FAE70078F8FF2E2E5C2EFB
:102780002E5C647269766572735C686333325F6C69
:102790006C5F6472697665725C7372635C686333E4
:1027A000325F6C6C5F6663672E63000000800440DC
:1027B00070B515460C4606000ED0012E0CD0022E28
:1027C0000AD0032E08D0042E06D0052E04D04FF4D4
:1027D0001E7110A0FFF7CCFA24B940F279210DA0A8
:1027E000FFF7C6FA0021174BB201E00708D002EB51
:1027F00081001844012D068809D0C6F30E06068014
:10280000640803D0491CC9B21029EED370BD46F448
:102810000046F4E72E2E2F2E2E2F647269766572F5
:10282000732F686333325F6C6C5F647269766572B4
:102830002F7372632F686333325F6C6C5F677069EC
:102840006F2E6300003C05402DE9F04114000E4658
:1028500005464FF0000704D053480088C00707D151
:1028600002E06FF002079BE0FF2150A0FFF780FA23
:1028700075B1012D0CD0022D0AD0032D08D0042DE6
:1028800006D0052D04D04FF4807148A0FFF770FAF0
:1028900026B940F2011145A0FFF76AFA208830B14D
:1028A000012804D04FF4817140A0FFF761FA6088DD
:1028B00030B1022804D040F203113CA0FFF758FACF
:1028C000A08830B1042804D04FF4827137A0FFF7FC
:1028D0004FFAE08840B1102806D0202804D040F2FA
:1028E000051132A0FFF744FA208938B1B0F5804FC6
:1028F00004D04FF483712DA0FFF73AFA608930B10C
:10290000402804D040F2071128A0FFF731FAA0892F
:1029100038B1B0F5007F04D04FF4847123A0FFF7E5
:1029200027FAE08938B1B0F5805F04D040F2091190
:102930001EA0FFF71DFA208A38B1B0F5004F04D071
:102940004FF4857119A0FFF713FA00204FF0010E24
:102950000EFA00F131421FD021886288E3881143CA
:10296000A2884DF2772C1A43114362890E4B114312
:10297000A2891143E289114322891143228A0A4321
:10298000A90101EB80011B1D19440B8802EA0C020E
:1029900023EA0C0313430B80401CC0B21028D7D38A
:1029A0003846BDE8F0810000FC3B05402E2E2F2E5E
:1029B0002E2F647269766572732F686333325F6C91
:1029C0006C5F6472697665722F7372632F6863330C
:1029D000325F6C6C5F6770696F2E630070B50D4677
:1029E00004000ED0012C0CD0022C0AD0032C08D0ED
:1029F000042C06D0052C04D040F2F11108A0FFF7FA
:102A0000B7F925B94FF4F97105A0FFF7B1F91049ED
:102A100001EB0410B0F80008284000D0012070BD80
:102A20002E2E2F2E2E2F647269766572732F686397
:102A300033325F6C6C5F6472697665722F73726398
:102A40002F686333325F6C6C5F6770696F2E630051
:102A50000030054070B50D4604000ED0012C0CD09E
:102A6000022C0AD0032C08D0042C06D0052C04D04C
:102A700040F23D2107A0FFF77BF925B940F23E2146
:102A800004A0FFF775F90F4800EB041001882943F3
:102A9000018070BD2E2E2F2E2E2F647269766572E6
:102AA000732F686333325F6C6C5F64726976657232
:102AB0002F7372632F686333325F6C6C5F6770696A
:102AC0006F2E63000A3805402DE9F04115460E4689
:102AD00004000ED0012C0CD0022C0AD0032C08D0FC
:102AE000042C06D0052C04D040F2771117A0FFF774
:102AF0003FF926B94FF4BC7114A0FFF739F90F2D37
:102B000008D9A5F120001B2804D940F279110FA0A3
:102B1000FFF72EF919480088C00704D14FF4BD71A2
:102B20000AA0FFF725F9A201144C00230127A41DD8
:102B300007FA03F1314202D002EB830005535B1C1C
:102B4000DBB2102BF4D3BDE8F08100002E2E2F2E27
:102B50002E2F647269766572732F686333325F6CEF
:102B60006C5F6472697665722F7372632F6863336A
:102B7000325F6C6C5F6770696F2E6300FC3B0540D1
:102B800070B50D4604000ED0012C0CD0022C0AD0DA
:102B9000032C08D0042C06D0052C04D040F22B21A5
:102BA00007A0FFF7E5F825B94FF40B7104A0FFF774
:102BB000DFF80F4800EB041001882943018070BD45
:102BC0002E2E2F2E2E2F647269766572732F6863F6
:102BD00033325F6C6C5F6472697665722F737263F7
:102BE0002F686333325F6C6C5F6770696F2E6300B0
:102BF0000838054010B504000DD0B4F5804F0AD058
:102C0000B4F5004F07D0B4F5404F04D040F2CD11D9
:102C10000AA0FFF7ADF815480088C00704D14FF4AB
:102C2000E77106A0FFF7A4F81048001F018804F41C
:102C30004042C1F30D011143018010BD2E2E2F2EF5
:102C40002E2F647269766572732F686333325F6CFE
:102C50006C5F6472697665722F7372632F68633379
:102C6000325F6C6C5F6770696F2E6300FC3B0540E0
:102C7000002258B1002101804180C1800182018180
:102C800041818181C1818180104670476FF00202CD
:102C9000FAE7000070B50D4604000ED0012C0CD0F0
:102CA000022C0AD0032C08D0042C06D0052C04D00A
:102CB0004FF4187107A0FFF75BF825B940F26121C6
:102CC00004A0FFF755F80F4800EB041001882943D2
:102CD000018070BD2E2E2F2E2E2F647269766572A4
:102CE000732F686333325F6C6C5F647269766572F0
:102CF0002F7372632F686333325F6C6C5F67706928
:102D00006F2E63000C38054070B504460F480D4621
:102D100084420AD00E48844207D00E48844204D030
:102D20004FF43C710CA0FFF723F83DB1B5F5806F6F
:102D300004D040F2F12108A0FFF71AF8206805F44A
:102D4000806120F480600843206070BD00E0044092
:102D500000E4044000E804402E2E5C2E2E5C6472D9
:102D600069766572735C686333325F6C6C5F647242
:102D7000697665725C7372635C686333325F6C6C36
:102D80005F6932632E6300002DE9F0474FF00004C5
:102D900091460D00064627464FF002089FED590A5E
:102DA0006FF0020A39D0B9F1000F36D0564886428A
:102DB0000AD05648864207D05548864204D04FF480
:102DC000887154A0FEF7D4FF686810B15D4988424D
:102DD00004D940F211114FA0FEF7CAFF2868072856
:102DE00004D94FF489714BA0FEF7C2FF5648006A20
:102DF0005649C0F302302A680968D5ED020AC1407D
:102E0000012095ED011A336B9040DB0603D5336B3F
:102E100003F003077F1C32B107E05446B9F1000FFD
:102E20006AD0E4B368E04FF00308C8B300EE101AAC
:102E3000B8EE412AF8EE600AB8EE400AC0EE021A77
:102E400000EE100AB8EE402A81EE820A01EE908A66
:102E5000B0EE002AF8EE611A61EE822A01EE907A55
:102E6000F8EE611A41EE822A32EEA02AFCEEC00A88
:102E700070EE421AF8EE602A30EE620A10EE103A56
:102E8000B8EE600AB3F17C5F03DBF7EE000A30EEC8
:102E9000200AB4EEC20AF1EE10FA30D901E029E0BE
:102EA0002DE011EE903A2A4DAB4228DCBCEEC00A70
:102EB000F8EE410A10EE103AB1FBF3F1B1FBF0F07D
:102EC00000EE100A1104B8EE400A70EEC00A00EEDF
:102ED000100AB8EE401A80EE810AFCEEE10A10EE0C
:102EE000900A41EA500110EE900AA0EB500041EA2E
:102EF0000020F06289ED000A2046BDE8F0875446C4
:102F0000FAE700000000000000E0044000E4044094
:102F100000E804402E2E5C2E2E5C64726976657289
:102F2000735C686333325F6C6C5F64726976657280
:102F30005C7372635C686333325F6C6C5F693263CD
:102F40002E630000801A0600004005401080FF1F1D
:102F50000000784270B504460F480D4684420AD0FE
:102F60000E48844207D00E48844204D040F2FB1140
:102F70000CA0FEF7FDFE35B1012D09D04FF4FE7116
:102F800008A0FEF7F5FEE06820F48060E06070BD08
:102F9000E06840F48060F9E700E0044000E40440A9
:102FA00000E804402E2E5C2E2E5C647269766572F9
:102FB000735C686333325F6C6C5F647269766572F0
:102FC0005C7372635C686333325F6C6C5F6932633D
:102FD0002E63000070B504460C480D4684420AD0AA
:102FE0000B48844207D00B48844204D040F29A2117
:102FF00009A0FEF7BDFE15B11348054204D040F20A
:103000009B2105A0FEF7B4FE256270BD00E00440E0
:1030100000E4044000E804402E2E5C2E2E5C647216
:1030200069766572735C686333325F6C6C5F64727F
:10303000697665725C7372635C686333325F6C6C73
:103040005F6932632E63000020AD0FFF70B5044648
:103050000D480D4684420AD00C48844207D00C48E3
:10306000844204D040F2D5110AA0FEF781FE35B1AA
:10307000012D04D04FF4EB7106A0FEF779FE206815
:1030800065F30000206070BD00E0044000E40440EF
:1030900000E804402E2E5C2E2E5C64726976657208
:1030A000735C686333325F6C6C5F647269766572FF
:1030B0005C7372635C686333325F6C6C5F6932634C
:1030C0002E63000010B504460B4884420AD00B481A
:1030D000844207D00A48844204D040F2651109A016
:1030E000FEF746FE206820F001002060206840F4D2
:1030F0000040206010BD000000E0044000E40440F7
:1031000000E804402E2E5C2E2E5C64726976657297
:10311000735C686333325F6C6C5F6472697665728E
:103120005C7372635C686333325F6C6C5F693263DB
:103130002E63000010B504460848844209D00848B0
:10314000844206D00748844203D0C42106A0FEF77B
:103150000FFE206840F48070206010BD00E0044045
:1031600000E4044000E804402E2E5C2E2E5C6472C5
:1031700069766572735C686333325F6C6C5F64722E
:10318000697665725C7372635C686333325F6C6C22
:103190005F6932632E63000010B50446084884421C
:1031A00009D00848844206D00748844203D0DE2173
:1031B00006A0FEF7DDFD206840F40070206010BD21
:1031C00000E0044000E4044000E804402E2E5C2EA1
:1031D0002E5C647269766572735C686333325F6C0F
:1031E0006C5F6472697665725C7372635C6863338A
:1031F000325F6C6C5F6932632E63000070B5044609
:103200000E480D4684420AD00D48844207D00D482E
:10321000844204D04FF41F710BA0FEF7A9FD15B135
:103220001548054204D040F27D2107A0FEF7A0FD1D
:10323000E069284000D0012070BD000000E004409B
:1032400000E4044000E804402E2E5C2E2E5C6472E4
:1032500069766572735C686333325F6C6C5F64724D
:10326000697665725C7372635C686333325F6C6C41
:103270005F6932632E63000020A908FF70B516460F
:103280000D0004463DD0204884420AD01F488442A5
:1032900007D01F48844204D04FF4C8711DA0FEF728
:1032A00067FD686810B12749884204D940F291113E
:1032B00018A0FEF75DFD2868072804D94FF4C971EE
:1032C00014A0FEF755FD206820F001002060206862
:1032D00040F400402060206840F001002060324649
:1032E00029462046FFF750FD216821F0400121606A
:1032F000216821F400412160216821F00101216051
:1033000070BD6FF0020070BD00E0044000E40440B6
:1033100000E804402E2E5C2E2E5C64726976657285
:10332000735C686333325F6C6C5F6472697665727C
:103330005C7372635C686333325F6C6C5F693263C9
:103340002E630000801A06002DE9FF5F89462D4993
:1033500000271546804688420AD02B49884507D069
:103360002A49884504D040F29B4129A0FEF700FD80
:10337000B9F1000F40D0D8F80800002400F0800A0E
:103380004FF4806B6E1E30E0012240214046039BCB
:1033900000F0A6FA0746BAF1000F02D0B44207D1F6
:1033A00004E0022D08D3A81E844205D1594600E04E
:1033B00000214046FFF7A8FCCFB9B44206D1102146
:1033C0004046FFF707FE4046FFF7E6FE404600F0A6
:1033D000B7F809F80400B44206D101221021404692
:1033E000039B00F07DFA0746641CAC42CCD300215D
:1033F0004046FFF789FC01E06FF0020704B0384651
:10340000BDE8F09F00E0044000E4044000E8044010
:103410002E2E5C2E2E5C647269766572735C686316
:1034200033325F6C6C5F6472697665725C73726371
:103430005C686333325F6C6C5F6932632E630000DB
:103440002DE9F0471F4D894607469846164601214B
:103450002846FFF7FBFD0121284600F0A3F80021D4
:10346000284600F09FF84146284600F0D7F80400AF
:103470001CD1012E03D129152846FFF745FC7908F8
:1034800043460122284600F065F904460A20FEF76B
:10349000C9FC34B94346324649462846FFF754FF33
:1034A000044600212846FFF72FFC1CB14146284660
:1034B00000F0FAF800212846FFF7C8FD2046BDE8D5
:1034C000F087000000E004402DE9F0471B4D8946DD
:1034D00007461E46904601212846FFF7B7FD012109
:1034E000284600F05FF80021284600F05BF83146DE
:1034F000284600F093F8040011D1790833460022E1
:10350000284600F027F904460A20FEF78BFC34B960
:10351000334642464946284600F084F9044631467F
:10352000284600F0C1F800212846FFF78FFD0A2049
:10353000FEF778FC2046BDE8F087000000E004407C
:1035400010B50446084884420AD00848844207D08F
:103550000748844204D040F2E12106A0FEF708FCAF
:1035600094F8280010BD000000E0044000E404408E
:1035700000E804402E2E5C2E2E5C64726976657223
:10358000735C686333325F6C6C5F6472697665721A
:103590005C7372635C686333325F6C6C5F69326367
:1035A0002E63000070B504460D480D4684420AD0D3
:1035B0000C48844207D00C48844204D040F2AA212F
:1035C0000AA0FEF7D5FB35B1012D04D040F2AB21A6
:1035D00006A0FEF7CDFB206865F3CF30206070BDFC
:1035E00000E0044000E4044000E804402E2E5C2E7D
:1035F0002E5C647269766572735C686333325F6CEB
:103600006C5F6472697665725C7372635C68633365
:10361000325F6C6C5F6932632E63000070B50446E4
:1036200011480D4684420AD01048844207D0104801
:10363000844204D040F266310EA0FEF799FB2B467F
:1036400000224FF40031204600F04AF900280AD148
:103650002046FFF76FFD2B462046BDE87040012253
:10366000104900F03DB970BD00E0044000E40440A2
:1036700000E804402E2E5C2E2E5C64726976657222
:10368000735C686333325F6C6C5F64726976657219
:103690005C7372635C686333325F6C6C5F69326366
:1036A0002E6300000100020070B5054613480C4669
:1036B000854210D0124885420DD0124885420AD06A
:1036C00040F2E64110A0FEF753FB04E0102128462B
:1036D000FFF780FC641E10212846FFF78FFD0128AC
:1036E00001D1002CF2D12846FFF756FD234628468B
:1036F000BDE870400122102100F0F2B800E0044063
:1037000000E4044000E804402E2E5C2E2E5C64721F
:1037100069766572735C686333325F6C6C5F647288
:10372000697665725C7372635C686333325F6C6C7C
:103730005F6932632E630000002138B14CF25032D1
:103740004260002282600260084670476FF002010A
:10375000FAE700002DE9F041064623489846154651
:103760000F4686420AD02148864207D0204886422A
:1037700004D04FF468711FA0FEF7FAFA35B1012D9D
:1037800004D040F2A1311BA0FEF7F2FA7F2F04D93A
:1037900040F2A23117A0FEF7EBFA43460122802146
:1037A000304600F09DF804001BD1780645EA106110
:1037B000304600F0EBF8434645B100224FF480213B
:1037C000304600F08DF8040003D00AE00122082101
:1037D000F6E74FF480513046FFF710FD012800D185
:1037E000841E2046BDE8F08100E0044000E404406F
:1037F00000E804402E2E5C2E2E5C647269766572A1
:10380000735C686333325F6C6C5F64726976657297
:103810005C7372635C686333325F6C6C5F693263E4
:103820002E6300002DE9F843054600241D48994603
:1038300017460E46009485420AD01B48854207D0A1
:103840001A48854204D040F2254119A0FEF790FAAB
:103850001EB34FF480580098B84220D0FCB94B46B4
:1038600001228021284600F03BF80400F3D10098A3
:10387000315C284600F08AF84B4601220821284690
:1038800000F02EF8044641462846FFF7B7FC012811
:1038900005D00098401C0090DDE76FF00204204640
:1038A000BDE8F88300E0044000E4044000E8044080
:1038B0002E2E5C2E2E5C647269766572735C686372
:1038C00033325F6C6C5F6472697665725C737263CD
:1038D0005C686333325F6C6C5F6932632E63000037
:1038E0002DE9F041074619481E4614460D466FF073
:1038F0000708874209D01648874206D015488742F4
:1039000003D0A32114A0FEF733FA15B11E480542D7
:1039100003D0A42110A0FEF72BFA2CB1012C03D068
:10392000A5210DA0FEF724FAF8692840012C01D149
:10393000854208D0204306D0B8F1000004D0002E04
:1039400002D0761EF0E70020BDE8F08100E00440E0
:1039500000E4044000E804402E2E5C2E2E5C6472CD
:1039600069766572735C686333325F6C6C5F647236
:10397000697665725C7372635C686333325F6C6C2A
:103980005F6932632E63000020A908FF70B504460A
:1039900008480D4684420AD00748844207D00748A9
:1039A000844204D040F2D32105A0FEF7E1F984F867
:1039B000245070BD00E0044000E4044000E80440EE
:1039C0002E2E5C2E2E5C647269766572735C686361
:1039D00033325F6C6C5F6472697665725C737263BC
:1039E0005C686333325F6C6C5F6932632E63000026
:1039F0002DE9F04104004FF000056FF0020619D0E8
:103A00002088B0F5007F03D3C3211AA0FEF7B0F9D8
:103A10002288500900EB4001202000EB4103B4F95B
:103A20000200834204D8252303EB4101814203D2E3
:103A3000202801D335461AE01C4901EB80010E68AD
:103A40001B4F1C4BB7EBC65F06D10A60B4F90210DE
:103A5000606843F821000AE00968C1F308018A425E
:103A600003D1616843F8201001E06FF0010528469A
:103A7000BDE8F0812E2E2F2E2E2F6472697665728E
:103A8000732F686333325F6C6C5F64726976657242
:103A90002F7372632F686333325F6C6C5F696E746F
:103AA000657272757074732E630000005C100540BF
:103AB000000080FFD080FF1F014800680047000021
:103AC000D080FF1F0148406800470000D080FF1FE2
:103AD0000148806800470000D080FF1F0148C0688F
:103AE00000470000D080FF1F014800690047000028
:103AF000D080FF1F0148406900470000D080FF1FB1
:103B00000148806900470000D080FF1F0148C0695C
:103B100000470000D080FF1F0148006A00470000F6
:103B2000D080FF1F0148406A00470000D080FF1F7F
:103B30000148806A00470000D080FF1F0148C06A2A
:103B400000470000D080FF1F0148006B00470000C5
:103B5000D080FF1F0148406B00470000D080FF1F4E
:103B60000148806B00470000D080FF1F0148C06BF8
:103B700000470000D080FF1F0148006C0047000094
:103B8000D080FF1F0148406C00470000D080FF1F1D
:103B90000148806C00470000D080FF1F0148C06CC6
:103BA00000470000D080FF1F0148006D0047000063
:103BB000D080FF1F0148406D00470000D080FF1FEC
:103BC0000148806D00470000D080FF1F0148C06D94
:103BD00000470000D080FF1F0148006E0047000032
:103BE000D080FF1F0148406E00470000D080FF1FBB
:103BF0000148806E00470000D080FF1F0148C06E62
:103C000000470000D080FF1F0148006F0047000000
:103C1000D080FF1F0148406F00470000D080FF1F89
:103C20000148806F00470000D080FF1F0148C06F2F
:103C300000470000D080FF1F0148D0F880000047F7
:103C4000D080FF1F0148D0F884000047D080FF1FBC
:103C50000148D0F888000047D080FF1F0148D0F805
:103C60008C000047D080FF1F0148D0F8900000472B
:103C7000D080FF1F0148D0F894000047D080FF1F7C
:103C80000148D0F898000047D080FF1F0148D0F8C5
:103C90009C000047D080FF1F0148D0F8A0000047DB
:103CA000D080FF1F0148D0F8A4000047D080FF1F3C
:103CB0000148D0F8A8000047D080FF1F0148D0F885
:103CC000AC000047D080FF1F0148D0F8B00000478B
:103CD000D080FF1F0148D0F8B4000047D080FF1FFC
:103CE0000148D0F8B8000047D080FF1F0148D0F845
:103CF000BC000047D080FF1F0148D0F8C00000473B
:103D0000D080FF1F0148D0F8C4000047D080FF1FBB
:103D10000148D0F8C8000047D080FF1F0148D0F804
:103D2000CC000047D080FF1F0148D0F8D0000047EA
:103D3000D080FF1F0148D0F8D4000047D080FF1F7B
:103D40000148D0F8D8000047D080FF1F0148D0F8C4
:103D5000DC000047D080FF1F0148D0F8E00000479A
:103D6000D080FF1F0148D0F8E4000047D080FF1F3B
:103D70000148D0F8E8000047D080FF1F0148D0F884
:103D8000EC000047D080FF1F0148D0F8F00000474A
:103D9000D080FF1F0148D0F8F4000047D080FF1FFB
:103DA0000148D0F8F8000047D080FF1F0148D0F844
:103DB000FC000047D080FF1F0148D0F800010047F9
:103DC000D080FF1F0148D0F804010047D080FF1FBA
:103DD0000148D0F808010047D080FF1F0148D0F803
:103DE0000C010047D080FF1F0148D0F810010047A8
:103DF000D080FF1F0148D0F814010047D080FF1F7A
:103E00000148D0F818010047D080FF1F0148D0F8C2
:103E10001C010047D080FF1F0148D0F82001004757
:103E2000D080FF1F0148D0F824010047D080FF1F39
:103E30000148D0F828010047D080FF1F0148D0F882
:103E40002C010047D080FF1F0148D0F83001004707
:103E5000D080FF1F0148D0F834010047D080FF1FF9
:103E60000148D0F838010047D080FF1F0148D0F842
:103E70003C010047D080FF1F0148D0F840010047B7
:103E8000D080FF1F0148D0F844010047D080FF1FB9
:103E90000148D0F848010047D080FF1F0148D0F802
:103EA0004C010047D080FF1F0148D0F85001004767
:103EB000D080FF1F0148D0F854010047D080FF1F79
:103EC0000148D0F858010047D080FF1F0148D0F8C2
:103ED0005C010047D080FF1F0148D0F86001004717
:103EE000D080FF1F0148D0F864010047D080FF1F39
:103EF0000148D0F868010047D080FF1F0148D0F882
:103F00006C010047D080FF1F0148D0F870010047C6
:103F1000D080FF1F0148D0F874010047D080FF1FF8
:103F20000148D0F878010047D080FF1F0148D0F841
:103F30007C010047D080FF1F0148D0F88001004776
:103F4000D080FF1F0148D0F884010047D080FF1FB8
:103F50000148D0F888010047D080FF1F0148D0F801
:103F60008C010047D080FF1F0148D0F89001004726
:103F7000D080FF1F0148D0F894010047D080FF1F78
:103F80000148D0F898010047D080FF1F0148D0F8C1
:103F90009C010047D080FF1F0148D0F8A0010047D6
:103FA000D080FF1F0148D0F8A4010047D080FF1F38
:103FB0000148D0F8A8010047D080FF1F0148D0F881
:103FC000AC010047D080FF1F0148D0F8B001004786
:103FD000D080FF1F0148D0F8B4010047D080FF1FF8
:103FE0000148D0F8B8010047D080FF1F0148D0F841
:103FF000BC010047D080FF1F0148D0F8C001004736
:10400000D080FF1F0148D0F8C4010047D080FF1FB7
:104010000148D0F8C8010047D080FF1F0148D0F800
:10402000CC010047D080FF1F0148D0F8D0010047E5
:10403000D080FF1F0148D0F8D4010047D080FF1F77
:104040000148D0F8D8010047D080FF1F0148D0F8C0
:10405000DC010047D080FF1F0148D0F8E001004795
:10406000D080FF1F0148D0F8E4010047D080FF1F37
:104070000148D0F8E8010047D080FF1F0148D0F880
:10408000EC010047D080FF1F0148D0F8F001004745
:10409000D080FF1F0148D0F8F4010047D080FF1FF7
:1040A0000148D0F8F8010047D080FF1F0148D0F840
:1040B000FC010047D080FF1F70B50125104C01287E
:1040C0000DD0A07820B120210120FEF787FC40B15F
:1040D00020210120FEF782FC01280ED00EE0A57001
:1040E000F1E70A20FDF782FE0020A07020210120C8
:1040F000FEF774FC10B9012070BDA570002070BDE2
:104100001880FF1FC10706D0164940F223120A602B
:1041100043F210220A60810702D51449124A0A614B
:10412000410703D5124A4AF2015111801149C206D2
:1041300006D5B1F8FE234AF208531A43A1F8FE232C
:10414000420606D5B1F8FE234AF203531A43A1F8FA
:10415000FE23000605D50849772008600649083186
:1041600008607047000401400100A5A500800440DC
:10417000FC3B0540004005400408054010B50446DE
:10418000C00702D0114900200860A00702D51149DC
:104190000F480861600703D50F494FF42540088098
:1041A000E00603D54AF2085000F0FCF9600603D59A
:1041B0004AF2035000F0F6F9200605D507497620AB
:1041C000086006490831086010BD00000004014085
:1041D0000000A5A500800440FC3B05400408054004
:1041E00070B504460D466FF00200002A14D0204638
:1041F000904720B14FF4B57109A0FDF7B9FD154AFC
:10420000946055B11449096AC1F3026313490968FE
:10421000D940B1FBF5F1D16070BD0021FBE7000092
:104220002E2E2F2E2E2F647269766572732F68637F
:1042300033325F6C6C5F6472697665722F73726380
:104240002F686333325F6C6C5F7574696C69747965
:104250002E6300000080FF1F004005401080FF1FFC
:104260007FB50F4C2046FEF72DFF6846FFF764FA36
:10427000012000900B4801900320029003AA694698
:104280002046FEF7FBFF054601212046FEF762FEB1
:10429000294605A002F054F904B0284670BD00007C
:1042A00000E00440801A0600565F496E69745F435F
:1042B0006F64653A25640A0010B50446FDF70EFEEA
:1042C00004492046FDF7B6F9BDE810400020FDF78F
:1042D00043BE0000A085FF1F70B50446FCF7DEFC5E
:1042E000054694F8200088B985B1022084F82000A2
:1042F000226832B120461169BDE870401346FDF7CF
:10430000F9BEBDE870400DA002F01AB9062813D21C
:10431000DFE800F0120C0C03030C2A46204621684B
:1043200000F0EAF994F82000042805D02946204638
:10433000BDE8704000F04BBA70BD00004D656E7571
:104340002D3E6E6F775F6974656D206973204E55E1
:104350004C4C0A002DE9F04385B0044690F820004B
:104360000C9D984617460E46042818D104F13C02CD
:10437000B4F8CC109146184600F0B2F824F8CC0FEF
:104380004A466188284600F0ABF880B26080009011
:1043900034F8CC39BAB2B1B22046FDF7A5FDB4F875
:1043A000CC10A8F1020081421FDBB4F8CE10A81E89
:1043B00081421ADB14216846FCF719F820680DA128
:1043C0000268684602F0CCF805EBD57007EB600098
:1043D00081B2761DB0B26A4600F048F8032084F836
:1043E0002000012005B0BDE8F08300F067F8002050
:1043F000F8E700002573204F4B210000014804F02E
:104400003FBB0000D88DFF1F08B5009313460A4636
:104410000146024804F03EFB08BD0000D88DFF1F96
:1044200008B5009313460A460146024804F074FB9F
:1044300008BD0000D88DFF1F08B5009313460A463B
:104440000146024804F081FC08BD0000D88DFF1F22
:104450001CB50C460499CDE90031134601462246AD
:10446000014804F0DEFC1CBDD88DFF1F13460A4630
:104470000146014804F048BDD88DFF1F1CB50C460D
:104480000499CDE90031134601462246014804F063
:1044900049FD1CBDD88DFF1F0148406B70470000CF
:1044A000D88DFF1F014890F838007047D88DFF1F46
:1044B00001480068007C7047D88DFF1F014804F058
:1044C00070BD0000D88DFF1F0178014804F072BD57
:1044D000D88DFF1F0146014804F074BDD88DFF1F21
:1044E000401A00EE100AB8EEC00A82ED030AD2EDBF
:1044F000040A70EE800AC2ED040A92ED051A92EDEC
:10450000012A70EE411A92ED001A21EE001A02EE15
:10451000201AD2ED020A82ED050A00EEA11A00EE81
:10452000901AF8EEE00A70EE810AFDEEE00A10EE55
:10453000900A70470D4810B5B0F8FE03800704D408
:1045400040F23F410AA0FDF713FC1548017801F045
:10455000C00141F00F010170114910200D310870A8
:104560001E20FDF75FFC002010BD0000004005404C
:104570002E2E2F2E2E2F647269766572732F68632C
:1045800033325F6C6C5F6472697665722F7372632D
:104590002F686333325F6C6C5F7077632E6300004B
:1045A000024405400449B1F8FE23824342F4254009
:1045B000A1F8FE03704700000040054030B52DED26
:1045C000028B0446006887B080680068417B02293E
:1045D0002DD0142102A8FBF70AFF206878230C22B3
:1045E00080680421006890ED068A20200090204613
:1045F000FDF734FC002868D094F8210003235A22E8
:104600001E21082501281CD0022823D020689FEDF8
:10461000310A80680068CDE9003028460623FDF79E
:1046200037FE206880680068016851B32BE081681C
:1046300000294AD0406807B0BDEC028BBDE830408D
:1046400008472068B0EE480A80680068CDE900306D
:10465000284607E02068B1EE480A80680068CDE986
:10466000003028460623FDF713FE206880680068A6
:1046700081680029D5D0027B012AD2D140688847C1
:10468000CFE715A10160206880680468607B10B1E5
:10469000012813D107E0606812A12268036802A80C
:1046A00001F05EFF0AE060680068FBF73AFFCDE9C1
:1046B00000010EA102A8226801F052FF192128462C
:1046C00002AAFFF7D3FEFFF7F9FE07B0BDEC028B9D
:1046D00030BD0000000000004E756C6C206E616DF6
:1046E0006500000025733A256420000025733A25F3
:1046F0002E3266200000000038B50D00044624D09C
:1047000084F82120287906281FD2DFE800F01E2D2A
:1047100043033A34A8680068807B98B1296A204630
:10472000A1B18847A8680068417B022911D094F89C
:104730002100032809D1206880680068816809B1D8
:10474000027B72B1052084F8200038BDFFF736FFE8
:10475000E8E74068017811B100210170F2E701211A
:10476000FBE740688847EDE7296A61B994F82100C2
:104770000328E7D038BD296A29B9204601F058FE40
:10478000F4E7296A11B120468847EFE7204601F097
:10479000F6F9EBE7296A39B195F82C0020B92046E3
:1047A0008847012085F82C002020009078230C22D7
:1047B00004212046FFF7CEFD08B1FFF77FFE94F8F5
:1047C00021000028D6D0002085F82C00BAE770B56B
:1047D0000D460446002194F82000012870D00228DC
:1047E0001BD005284AD10020A4F8CE00A4F8CC00A4
:1047F000022084F820000025204605F0B7FA6D1C41
:104800000146082DF8D32268002A37D020461169C6
:10481000BDE870401346FDF76DBC012D05D0022D9B
:1048200011D0032D1DD02268F0E72268002A25D080
:104830009369002B22D020461169FDF75BFC2068AC
:104840006060806959E02268002A17D0D369002B84
:1048500014D020461169FDF74DFC20686060C069E6
:104860004BE0206818B1007948B1062829D0012111
:10487000204605F07BFA042084F8200070BD94F8EF
:104880002100032802D0022084F8200000252046C1
:1048900005F06CFA6D1C0146082DF8D322685169A9
:1048A0000029EBD0CB68002BE8D02046FDF722FC96
:1048B000206801694861206860604069C0681CE048
:1048C0001DE094F82100032802D0022084F8200083
:1048D0000025204605F04AFA6D1C0146082DF8D344
:1048E000226850690028C9D0436920461969FDF73C
:1048F00001FC2068606040694069206070BD2368E9
:10490000002BFBD06268002AF8D020461969FDF719
:10491000F1FB002DF2D0022084F820005AE70000BD
:104920002DE9F04117460E4604004FF0000501D076
:10493000200903D0AA211DA0FDF71AFA072E03D9DA
:10494000AB211AA0FDF714FA072F03D9AC2117A049
:10495000FDF70EFA21480068772803D0AD2113A097
:10496000FDF706FADFF874E04FF0070CAEF1040E25
:10497000002C18D0E00712D0E800011D06FA00F361
:1049800007FA01F213430CFA00F20CFA01F00243A9
:10499000DEF80000134090430343CEF80030640873
:1049A0006D1CEDB2E4E7BDE8F08100002E2E2F2E45
:1049B0002E2F647269766572732F686333325F6C71
:1049C0006C5F6472697665722F7372632F686333EC
:1049D000325F6C6C5F7372616D2E6300040805407A
:1049E0002DE9FF47844F05460C46386800260090A5
:1049F00078680190B8680290F86811F0E06F039051
:104A000012D0C4F3026001280ED002280CD0032873
:104A10000AD0042808D0052806D0062804D040F281
:104A2000C62176A0FDF7A4F914F0700F12D0C4F3DC
:104A3000021001280ED002280CD003280AD0042826
:104A400008D0052806D0062804D040F2C7216BA064
:104A5000FDF78EF914F4E02F12D0C4F302400128C0
:104A60000ED002280CD003280AD0042808D005282C
:104A700006D0062804D04FF4327160A0FDF778F913
:104A800014F4E00F12D0C4F3025001280ED0022813
:104A90000CD003280AD0042808D0052806D0062800
:104AA00004D040F2CA2155A0FDF762F9600712D088
:104AB00004F0070001280ED002280CD003280AD0E9
:104AC000042808D0052806D0062804D040F2CB21BF
:104AD0004AA0FDF74DF914F4E06F12D0C4F30220A0
:104AE00001280ED002280CD003280AD0042808D0B0
:104AF000052806D0062804D04FF433713FA0FDF7F7
:104B000037F914F4E04F12D0C4F3023001280ED06C
:104B100002280CD003280AD0042808D0052806D083
:104B2000062804D040F2CD2134A0FDF721F93F48FA
:104B3000054204D140F2CF2130A0FDF719F9DFF88A
:104B4000F080B8F8FE03C00704D14FF434712BA0F5
:104B5000FDF70EF998F82600DFF8D89000F007006E
:104B60004CF2503A052819D138690126C00704D102
:104B700040F2D72121A0FDF7FBF82F483860C01282
:104B80007860B860F860D8F82000C0F30261D9F806
:104B90000000C840B0FBFAF0FCF7BEF8D8F82010CF
:104BA0002C40A9432143C8F82010D8F820005546CE
:104BB000C0F30261D9F800004C46C840B0FBF5F0E4
:104BC000FCF7AAF8002E14D000983860019878609D
:104BD0000298B8600398F860D8F82000C0F302612A
:104BE000206804B0C840B0FBF5F0BDE8F047FCF722
:104BF00093B8BDE8FF870000008004402E2E2F2EC2
:104C00002E2F647269766572732F686333325F6C1E
:104C10006C5F6472697665722F7372632F68633399
:104C2000325F6C6C5F636C6B2E6300007777770785
:104C3000004005401080FF1F0EFAFFFF2DE9FF47DF
:104C4000384E04004FF00005306800907068019005
:104C5000B0680290F06803900ED0012C0CD0022CAA
:104C60000AD0032C08D0042C06D0052C04D040F226
:104C700057212DA0FDF77CF8374FB7F8FE03C0078A
:104C800004D14FF4167128A0FDF772F897F82600AA
:104C9000DFF8C88000F007004CF25039052801D039
:104CA000052C18D130690125C00704D14FF41871C3
:104CB0001DA0FDF75DF82A483060C0127060B0603A
:104CC000F060386AC0F30261D8F80000C840B0FB59
:104CD000F9F0FCF721F887F82640386A4C46C0F313
:104CE0000261D8F80000C840B0FBF4F0FCF714F8FB
:104CF000002D14D000983060019870600298B06068
:104D00000398F060386AC0F30261D8F8000004B07C
:104D1000C840B0FBF4F0BDE8F047FBF7FDBFBDE8CD
:104D2000FF870000008004402E2E2F2E2E2F64724D
:104D300069766572732F686333325F6C6C5F64727F
:104D4000697665722F7372632F686333325F6C6CA0
:104D50005F636C6B2E630000004005401080FF1FF6
:104D60000EFAFFFF08B5FFF749FB06484023009005
:104D70001A4600212020FFF781FBBDE80840FFF71D
:104D80009DBB0000D4AB01002DE9F04F04462DED92
:104D9000028B9A464C4816460D460FC885B06FF0F8
:104DA0000209DDF844B08DE80F00484884420DD078
:104DB000474884420AD04748844207D04648844244
:104DC00004D040F29F2145A0FCF7D2FFBAF1000FBA
:104DD00073D01098002870D0002D6ED0002E6CD0AB
:104DE000606910F4600410D0B4F5001F0DD0B4F564
:104DF000800F0AD0B4F5C00F07D0B4F5400F04D02F
:104E000040F2A62135A0FCF7B3FF600D3DF810007D
:104E100006FB00F14900B5FBF1F4641EFF2C4CD8F1
:104E20000021031841EB0107601CA3FB002807FBCE
:104E3000008041F1000C03FB0C03A2FB060703FBFF
:104E4000067302FB01310E0246EA106607022A468B
:104E5000002338463146FBF74FFA80387F282CD89C
:104E6000CAF800401099BBF1000F086023D08021E0
:104E70004118A1FB0504002242F1000303FB054396
:104E800001FB0235044638463146FBF73EFB41EC58
:104E9000180B20462946FBF738FB53EC182BFBF781
:104EA000B8FAFBF751FB00EE100AF7EE000A30EEFD
:104EB000600A8BED000A4FF0000905B04846BDECD2
:104EC000028BBDE8F08F0000F09D010000D0014092
:104ED00000D4014000100240001402402E2E2F2E5C
:104EE0002E2F647269766572732F686333325F6C3C
:104EF0006C5F6472697665722F7372632F686333B7
:104F0000325F6C6C5F75736172742E630000000019
:104F10002DE9F04304462DED028B98463E48154698
:104F20000E460FC885B06FF00207DDF838908DE8A7
:104F30000F003A4884420DD0394884420AD039489B
:104F4000844207D03848844204D04FF4E77137A038
:104F5000FCF70EFFB8F1000F58D0002E56D0002DF0
:104F600054D0606910F4600410D0B4F5001F0DD067
:104F7000B4F5800F0AD0B4F5C00F07D0B4F5400FD8
:104F800004D040F2D91129A0FCF7F2FE600D3DF8E3
:104F9000101006EB8600420005FB01F04000B2FB5A
:104FA000F0F00A22401DB0FBF2F0401EFF282DD881
:104FB000C8F80000B9F1000F27D00022491842EBD1
:104FC0000204401CA1FB003C04FB00C042F10007AE
:104FD00001FB0701A3FB050401FB054103FB0211D3
:104FE000FBF793FA41EC180B3046FBF781FA53ECD0
:104FF000182BFBF70EFAFBF7A7FA00EE100AF7EEF4
:10500000000A30EE600A89ED000A002705B0384634
:10501000BDEC028BBDE8F083E09D010000D00140B3
:1050200000D4014000100240001402402E2E2F2E0A
:105030002E2F647269766572732F686333325F6CEA
:105040006C5F6472697665722F7372632F68633365
:10505000325F6C6C5F75736172742E6300000000C8
:1050600030B51B480068C1071A4801D01A4900E052
:105070001A491B4A416092F826104FF4004401F08F
:1050800007031849062B06D2DFE803F003040604E1
:1050900006084168016030BD046030BDD2F80031BF
:1050A000C3F30825D2F800311C0FD2F80031D2F832
:1050B000002103F01F03120600D541685B1CB1FB01
:1050C000F3F16D1C6943641CB1FBF4F1E2E70000ED
:1050D000840601401080FF1F0024F400002D3101E0
:1050E0000040054000127A00064800B5016841F40E
:1050F00070010160FFF7B4FF02494FF4803080393E
:10510000086000BD88ED00E010B586B001210220E6
:10511000FDF718FB01214804FDF7A0FA684600F0EE
:1051200041FA002000900190029040F2E7302A4CB2
:10513000ADF80C006A460121204600F033F9012049
:10514000FCF754FE01221146204600F0E5F801204C
:10515000FCF74CFE01229104204600F0A7F9012043
:10516000FCF744FE4320ADF810000720ADF8120014
:105170001A48059004A8FEF73BFCBDF91200012176
:10518000002809DB00F01F0201FA02F2400980004A
:1051900000F1E020C0F88022BDF91200F0220028C2
:1051A00004DB00F1E02080F8002405E000F00F00AF
:1051B00000F1E02080F8142DBDF91200002808DB72
:1051C00000F01F0291404009800000F1E020C0F88B
:1051D000001106B010BD000000440240E151010082
:1051E00070B52E4D642100242869B0FBF1F201FB5B
:1051F000120141B96969491C69610A2903D3284A26
:10520000012111706C614FF47A71B0FBF1F201FB76
:10521000120058BBA888401CA880E888401CE88081
:105220002889401C28816889401C68816978C807E2
:1052300026D01A480A06808900F1010080B202D502
:10524000A88101200DE04A0602D5A881022008E0CD
:105250008A0602D5A881042003E0C906A88106D5E4
:105260000720FBF795FCA889232806D20BE0002035
:10527000FBF78EFCA889322805D3AC816C7002E064
:105280002878FBF785FC28694FF48031401C2861A1
:10529000BDE87040034800F007B800001880FF1F09
:1052A0003080FF1F0044024070B504460C480D4694
:1052B000844207D00B48844204D04FF417710AA0EF
:1052C000FCF756FD15B135F0011004D040F25D2118
:1052D00005A0FCF74DFD6069A843606170BD00004A
:1052E00000400240004402402E2E5C2E2E5C647270
:1052F00069766572735C686333325F6C6C5F64728D
:10530000697665725C7372635C686333325F6C6C80
:105310005F746D72302E630070B5044613481646F4
:105320000D46844207D01248844204D040F2F7115F
:1053300010A0FCF71DFD35B1012D04D04FF4FC7118
:105340000CA0FCF715FD28014FF40055854036B13F
:10535000012E08D040F2F91106A0FCF709FD2069E2
:10536000A843206170BD20692843FAE7004002404D
:10537000004402402E2E5C2E2E5C647269766572AB
:10538000735C686333325F6C6C5F647269766572FC
:105390005C7372635C686333325F6C6C5F746D72F4
:1053A000302E63002DE9F04114000E4605464FF003
:1053B00000075CD02F48854206D02F48854203D095
:1053C000BD212EA0FCF7D4FC2EB1012E03D0BE21AE
:1053D0002AA0FCF7CDFC206860B1B0F5007F09D0B1
:1053E000B0F5807F06D0B0F5A06F03D0BF2123A019
:1053F000FCF7BEFC6068B8B1102815D0202813D087
:10540000302811D040280FD050280DD060280BD064
:10541000702809D0802807D0902805D0A02803D074
:10542000C02116A0FCF7A4FCA06838B1A0F500418B
:10543000023903D0C12111A0FCF79AFC05EB8600CC
:1054400000210160A18981602B69300148F2F2716D
:1054500001FA00F29343D4E90026A46832432243C0
:105460000A40824013432B613846BDE8F0816FF05B
:105470000207F9E700400240004402402E2E5C2E55
:105480002E5C647269766572735C686333325F6C3C
:105490006C5F6472697665725C7372635C686333B7
:1054A000325F6C6C5F746D72302E630070B50446B1
:1054B000124816460D46844207D01148844204D053
:1054C00040F22B210FA0FCF753FC15B135F004106E
:1054D00004D04FF40B710BA0FCF74AFC4EB1012E27
:1054E00004D040F22D2107A0FCF742FC206928439C
:1054F00001E02069A843206170BD00000040024027
:10550000004402402E2E5C2E2E5C64726976657219
:10551000735C686333325F6C6C5F6472697665726A
:105520005C7372635C686333325F6C6C5F746D7262
:10553000302E630070B504460C480D46844206D0F8
:105540000B48844203D0F2210AA0FCF711FC2DB1D4
:10555000012D03D0F32107A0FCF70AFC20692A01E2
:10556000012191400843206170BD000000400240CD
:10557000004402402E2E5C2E2E5C647269766572A9
:10558000735C686333325F6C6C5F647269766572FA
:105590005C7372635C686333325F6C6C5F746D72F2
:1055A000302E6300002140B1002202604260826020
:1055B0004FF6FF728281084670476FF00201FAE7EA
:1055C000F8B504461CA01646006800901B480D461E
:1055D00084420ED01A4884420BD01A48844208D024
:1055E0001948844205D01948844202D018488442A0
:1055F00001D10A2D04D940F2E92116A0FCF7B8FB2D
:1056000036B1012E04D040F2EA2112A0FCF7B0FB23
:10561000032D03D21DF80500983405E0ED1E04EBC0
:1056200085040C2004F58074610101EB800000F119
:1056300084400660F8BD000000080C0000500140E6
:105640000054014000580140005C014000600140EE
:10565000006401402E2E5C2E2E5C647269766572A9
:10566000735C686333325F6C6C5F64726976657219
:105670005C7372635C686333325F6C6C5F746D7211
:10568000612E630010B504460D48844213D00D48C6
:10569000844210D00C4884420DD00C4884420AD079
:1056A0000B48844207D00B48844204D04FF44D711C
:1056B00009A0FCF75DFBB4F8800000F0020010BD0B
:1056C000005001400054014000580140005C01407E
:1056D00000600140006401402E2E5C2E2E5C64723E
:1056E00069766572735C686333325F6C6C5F647299
:1056F000697665725C7372635C686333325F6C6C8D
:105700005F746D72612E630010B504460C488442CC
:1057100013D00C48844210D00B4884420DD00B4863
:1057200084420AD00A48844207D00A48844204D0FE
:1057300040F27A3108A0FCF71BFB208810BD000066
:10574000005001400054014000580140005C0140FD
:1057500000600140006401402E2E5C2E2E5C6472BD
:1057600069766572735C686333325F6C6C5F647218
:10577000697665725C7372635C686333325F6C6C0C
:105780005F746D72612E630070B504461948164649
:105790000D46844213D01848844210D017488442E2
:1057A0000DD0174884420AD01648844207D01648C4
:1057B000844204D04FF4297114A0FCF7D9FA15B132
:1057C00035F4774004D040F2A52110A0FCF7D0FAC0
:1057D00036B1012E09D040F2A6210CA0FCF7C8FA80
:1057E00034F8840FA843208070BD34F8840F284318
:1057F000F9E700000050014000540140005801400A
:10580000005C014000600140006401402E2E5C2ECF
:105810002E5C647269766572735C686333325F6CA8
:105820006C5F6472697665725C7372635C68633323
:10583000325F6C6C5F746D72612E630070B50546EB
:105840003E480C466FF00206854213D03C48854224
:1058500010D03C4885420DD03B4885420AD03B4899
:10586000854207D03A48854204D04FF4877139A069
:10587000FCF77EFA002C29D02078002828D00128B7
:1058800007D04FF4887133A0FCF772FA2078002813
:105890001ED0608830B1400B04D040F21B112DA007
:1058A000FCF766FAA08830B1400B04D040F21D111D
:1058B00028A0FCF75DFA6088A5F88800A088A5F804
:1058C0008C002846A16800F0C7F80026304670BD5D
:1058D000A08830B1042804D040F213111DA0FCF7B9
:1058E00047FAE08830B1022804D04FF48A7119A039
:1058F000FCF73EFA6188C1B1102916D0202914D0D6
:10590000302912D0402910D050290ED060290CD057
:1059100070290AD0802908D0902906D0A02904D067
:1059200040F215110BA0FCF723FAA088E188084388
:1059300061880843A5F88000C3E7000000500140DB
:105940000054014000580140005C014000600140EB
:10595000006401402E2E5C2E2E5C647269766572A6
:10596000735C686333325F6C6C5F64726976657216
:105970005C7372635C686333325F6C6C5F746D720E
:10598000612E6300F8B5044620A01646006800901A
:105990001F480D4684420ED01E4884420BD01E483C
:1059A000844208D01D48844205D01D48844202D05C
:1059B0001C48844201D10A2D04D940F2C6211AA004
:1059C000FCF7D6F9032E04D940F2C72116A0FCF744
:1059D000CFF9032D0BD234F8982F1DF805100320B2
:1059E00088408E408243064032432280F8BDED1E3F
:1059F00004EB8500B0F80011720321F4C041C2F33A
:105A0000413241EA4231A0F80011F8BD01090D0010
:105A1000005001400054014000580140005C01402A
:105A200000600140006401402E2E5C2E2E5C6472EA
:105A300069766572735C686333325F6C6C5F647245
:105A4000697665725C7372635C686333325F6C6C39
:105A50005F746D72612E630070B504460C480D468C
:105A6000844213D00B48844210D00B4884420DD09E
:105A70000A4884420AD00A48844207D0094884422E
:105A800004D040F2473108A0FCF772F9A58070BD40
:105A9000005001400054014000580140005C0140AA
:105AA00000600140006401402E2E5C2E2E5C64726A
:105AB00069766572735C686333325F6C6C5F6472C5
:105AC000697665725C7372635C686333325F6C6CB9
:105AD0005F746D72612E630010B504460E488442F7
