:020000040001F9
:10000000609FFF1F95020100C5020100ED02010083
:10001000C9020100CB020100CD0201000000000076
:10002000000000000000000000000000CF020100FE
:10003000D102010000000000D3020100D50201003E
:1000400085380100913801009D380100A938010070
:10005000B5380100C1380100CD380100D9380100A0
:10006000E5380100F1380100FD38010009390100CF
:1000700015390100213901002D39010039390100FC
:1000800045390100513901005D390100693901002C
:1000900075390100813901008D390100993901005C
:1000A000A5390100B1390100BD390100C93901008C
:1000B000D5390100E1390100ED390100F9390100BC
:1000C000053A0100113A01001D3A0100293A0100E8
:1000D000353A0100413A01004D3A0100593A010018
:1000E000653A0100713A01007D3A0100893A010048
:1000F000953A0100A13A0100AD3A0100B93A010078
:10010000C53A0100D13A0100DD3A0100E93A0100A7
:10011000F53A0100013B01000D3B0100193B0100D4
:10012000253B0100313B01003D3B0100493B010003
:10013000553B0100613B01006D3B0100793B010033
:10014000853B0100913B01009D3B0100A93B010063
:10015000B53B0100C13B0100CD3B0100D93B010093
:10016000E53B0100F13B0100FD3B0100093C0100C2
:10017000153C0100213C01002D3C0100393C0100EF
:10018000453C0100513C01005D3C0100693C01001F
:10019000753C0100813C01008D3C0100993C01004F
:1001A000A53C0100B13C0100BD3C0100C93C01007F
:1001B000D53C0100E13C0100ED3C0100F93C0100AF
:1001C000053D0100113D01001D3D0100293D0100DB
:1001D000353D0100413D01004D3D0100593D01000B
:1001E000653D0100713D01007D3D0100893D01003B
:1001F000953D0100A13D0100AD3D0100B93D01006B
:10020000C53D0100D13D0100DD3D0100E93D01009A
:10021000F53D0100013E01000D3E0100193E0100C7
:10022000253E0100313E01003D3E0100493E0100F6
:10023000553E0100613E01006D3E0100793E010026
:10024000D7020100D7020100D7020100D702010046
:10025000D7020100D7020100D7020100D702010036
:10026000D7020100D7020100D7020100D702010026
:10027000D7020100D7020100D7020100D702010016
:10028000DFF80CD000F070FB00480047B109010016
:10029000609FFF1F10484FF0770101600F484FF03B
:1002A000770101600E484FF4885101600A484FF011
:1002B0007601016009484FF07601016009488047E6
:1002C00009480047FEE7FEE7FEE7FEE7FEE7FEE738
:1002D000FEE7FEE7FEE7FEE7040805400C080540E0
:1002E000000805406D4E010081020100704669461C
:1002F00006F0EEFDFFF7FEFF2DE9F05F054600205A
:1003000092469B4688460646814640241BE0284686
:1003100041464746224600F03AF953465A46C01A2B
:10032000914110D311461846224600F021F92D1AAA
:1003300067EB01084F4622460120002100F018F922
:1003400017EB00094E41201EA4F10104DFDC4846F2
:1003500031462A464346BDE8F09F00000649074A59
:100360000868504343F2390210440860400870475F
:100370000149086070470000C080FF1F6D4EC641F4
:1003800040EA01039B0703D009E008C9121F08C017
:10039000042AFAD203E011F8013B00F8013B521E97
:1003A000F9D27047D2B201E000F8012B491EFBD20E
:1003B00070470022F6E710B513460A460446194670
:1003C000FFF7F0FF204610BD421C10F8011B00296A
:1003D000FBD1801A70472DE9F04D81EA030404F047
:1003E000004B21F0004514464FF0000A23F0004175
:1003F00050EA050220D054EA01021DD0C5F30A5785
:100400000246C5F31303C1F31300C1F30A5640F4C7
:10041000801543F48013A7EB0608101BD64608F29C
:10042000FD3873EB050002D308F1010801E09218D2
:100430005B41B8F1000F03DA00200146BDE8F08D02
:1004400000204FF48011064684460EE0171B73EB24
:10045000050705D3121B63EB050306434CEA010CA9
:1004600049084FEA300092185B4150EA0107EDD18C
:1004700052EA030012D082EA040083EA050108432D
:1004800005D0101BAB4106D20122002306E000225A
:100490004FF0004302E06FF0010253101AEB060028
:1004A0004CEB085110EB0A0041EB0B01BDE8F04D9D
:1004B00000F0B4B80EB540F2334102910021CDE90D
:1004C00000110A460B4600F0B8F803B000BD0EB5A7
:1004D00040F2334202920022CDE90022134600F09E
:1004E000ACF803B000BD00F0004230F000400AD08C
:1004F000C10D01F56071C0F3160042EA0151C20856
:1005000040071143704700200146704701F0004347
:1005100030B421F0004150EA010206D00A0DA2F5E4
:100520006072C1F31301002A02DC30BC0020704766
:10053000440F44EAC104C100E01830BC00EBC250D3
:1005400000F035B830B50B460146002020220124CA
:1005500009E021FA02F59D4205D303FA02F5491B91
:1005600004FA02F52844151EA2F10102F1DC30BDA7
:10057000202A04DB203A00FA02F100207047914063
:10058000C2F1200320FA03F3194390407047202A58
:1005900004DB203A21FA02F00021704721FA02F32D
:1005A000D040C2F12002914008431946704700290B
:1005B000A8BF7047401C490008BF20F001007047E9
:1005C00010B4B0FA80FC00FA0CF050EA010404BF49
:1005D00010BC704749B1CCF1200421FA04F411FA9F
:1005E0000CF118BF012121430843A3EB0C01CB1DE3
:1005F0004FEA00614FEA102042BF002010BC704754
:1006000000EBC35010440029A4BF10BC7047401C2D
:10061000490008BF20F0010010BC704710B5141E3F
:1006200073F1000408DA401C41F1000192185B41AB
:100630001A4301D120F0010010BD2DE9F04D924682
:100640009B4611B1B1FA81F202E0B0FA80F2203299
:100650009046FFF78DFF04460F4640EA0A0041EA44
:100660000B0153465A46084313D0114653EA010082
:1006700019D0C8F140025046FFF789FF05460E46E3
:10068000504659464246FFF773FF084305D0012004
:1006900004E020463946BDE8F08D0020054346EAD7
:1006A000E0762C4337430A986305E40AA0EB080080
:1006B0000022FD0A44EA47540A3002D500200146D0
:1006C000E9E7010510196941DDE9084500196941AB
:1006D000BDE8F04DA2E72DE9FE4F804681EA030018
:1006E000C00F0C46009021F0004123F00045B8EB0C
:1006F0000200A94105D24046214690461C460B46C1
:10070000024623F00040104347D0270DC7F30A00EC
:10071000C3F30A510290401A019040286BDAC3F3E8
:10072000130040F4801B0098924620B10023D2EBC6
:10073000030A63EB0B0B01985946C0F14002504687
:10074000FFF716FF06460D4650465946019A00F03F
:100750001DF910EB08006141002487EA115284EA78
:10076000E7731A4340D0009A62B3019A012A4FEA14
:10077000075215DC001B61EB02014FF0004202EA58
:100780000752CDE90042001C41F5801132462B464C
:10079000FFF753FF03B0BDE8F08F40462146F9E76D
:1007A000001B61EB0201001C41F5801300185B4146
:1007B0002018A2F5001747EB030140EAD570B619DF
:1007C0006D4111E06D084FEA360645EAC0754FEA03
:1007D0000752001B61EB0201001C41F58011490822
:1007E0004FEA30000019514132462B4603B0BDE8B4
:1007F000F04FFFF713BF0098012240000023D0EB19
:10080000020263EBE073009821464FEAE074B8EB14
:10081000000061EB0401E9E783F000435BE781F04E
:10082000004158E72DE9FE4F81EA030404F000443B
:1008300021F0004100944FF0000B23F0004350EAF8
:1008400001045ED052EA03045BD0C3F30A54C1F33F
:100850000A552C44A4F2F3340194A0FB0254C1F3D2
:10086000130141F48011C3F3130343F4801301FB1C
:10087000024400FB034E840A970A44EA815447EA83
:100880008357A4FB076802958D0A05FB07854FEA8D
:10089000932C04FB0C542705029D4FEA065847EAA7
:1008A0001637B5EB08056EEB070C870E920E47EA7C
:1008B000811742EA8312A7FB0201B6EB0B0164EB3E
:1008C00000042B0D43EA0C335E1844EB1C50DA464F
:1008D0005146E7FB0201C5F313044FEA0B3343EA29
:1008E00014534FEA0432019C43EA0603A4F10C04BA
:1008F0000294009CCDE900B4FFF79FFE03B0BDE871
:10090000F08F00200146F9E7C1F30A52C1F3130149
:1009100040F2FF3341F480119A4202DA002001468E
:10092000704740F233439A42A2F2334202DC524211
:10093000FFF72DBEFFF71CBE30B5041E71F1000499
:1009400004DB4FF00044404264EB0101141E73F1DC
:10095000000405DB1C464FF00043524263EB0403E6
:10096000994208BF904230BD064C074D06E0E06852
:1009700040F0010394E8070098471034AC42F6D3E6
:10098000FFF782FCCCA50100ECA50100202A06DBC4
:10099000CB17203A41FA02F043EAE07306E041FA4D
:1009A00002F3D040C2F1200291400843194670473B
:1009B00010B504F017FA06F0DDFD002010BD0000B0
:1009C0002DE9F0411C4606AB93E8600160B15CB1D3
:1009D00055B10027A7840C23E38420602171226392
:1009E0002979012905D00BE0BDE8F04115A005F0FB
:1009F0005BBD2AB919492163014619A005F054FDD0
:100A00002561C4E907780EB1B46000E02E46666146
:100A1000E86880B12869A0612869C4612C61A8696F
:100A2000401CA861E060D5E90301C861D5E9030174
:100A30008161BDE8F081A461EC60AF6138462C6152
:100A4000F0E70000496E76616C6964207061726144
:100A50006D657465722873290A000000048F010017
:100A60002573203A20496D616765206973206E7592
:100A70006C6C210A0000000008600020C86008615A
:100A80000A710120487170471FB52849284800F0B5
:100A90009DFA01220321052001F0F8FE684600F0CE
:100AA0008BFB00248DF8024020208DF801000520EA
:100AB0008DF804008DF80040684600F0FDFA02A8A9
:100AC00000F06CFA3121204661F3102000F18050D3
:100AD00020F0706000F1807020F4700000F580104C
:100AE00020F0800003908DF8084002A800F072F911
:100AF000202000F0EDF80128FAD103F0CBFD01220F
:100B000011460F2003F0CEFD00221146042003F011
:100B1000C9FD4FF4404002F0DBF8502001F0D0FC5A
:100B200003F0C2FB052000F058FA1FBD102211008F
:100B30007777770700B585B0684602F007F902209D
:100B4000ADF802006A460121002001F0EBFE6A4682
:100B50000221002001F0E6FE6A460821012001F092
:100B6000E1FE05B000BD10B50446C0074FF001011D
:100B70004FF0000002D001F0DBFF01E002F06EF860
:100B8000A0074FF002014FF0000002D501F0D0FFA6
:100B900001E002F063F860074FF008014FF0010038
:100BA00003D5BDE8104001F0C3BFBDE8104002F01E
:100BB00055B800002DE9F0478CB05FEA010A6FF0EC
:100BC000020434D024220421052001F0EBFF01218E
:100BD000C80601F0EFFD684605F0C8FB4FF4004081
:100BE000154E079000226946304605F0F1FADFF80D
:100BF0004C90134F00254FF0FF382946304605F042
:100C00009FFA0BAA5146304605F0A4F904000AD118
:100C10000B98484507D8B84205DC01220821304628
:100C200005F044F903E06D1C4446032DE5D90CB0F2
:100C30002046BDE8F087000000140240CDCCCCBCBB
:100C4000CDCCCC3C2DE9F0411B4F384604F044FD9F
:100C50000446002003F016F9184D002628B16C60F8
:100C60002E706E700320BDE8F0816868844206D063
:100C7000384604F0EFFCC1B2022904D019B12E703D
:100C80006E700020EFE7687881420ED12878401C12
:100C9000C0B228700228F4D3A9702E706C600229AB
:100CA00007D00029EDD10120DDE70120287069700F
:100CB000E7E70220D7E70000006001406080FF1FE7
:100CC00008B500210091814201D2491CFAE708BD14
:100CD00010B5040002D034F0690004D040F2BB51DA
:100CE00004A000F0CDFF0F4890F83C00204000D059
:100CF000012010BD2E2E2F2E2E2F64726976657264
:100D0000732F686333325F6C6C5F647269766572EF
:100D10002F7372632F686333325F6C6C5F636C6B2D
:100D20002E6300000040054070B505004FF0000440
:100D300006D0012D04D040F20E5119A000F0A0FF02
:100D4000234EB6F8FE03C00704D140F20F5114A0A1
:100D500000F096FF45B1D6F800014FF4805500062B
:100D600029460ED408200DE096F8260000F0070072
:100D7000052803D0012086F82A000EE06FF0050454
:100D80000BE0012000F030F9040006D186F82A00BB
:100D90002946202000F028F90446204670BD0000B6
:100DA0002E2E2F2E2E2F647269766572732F686334
:100DB00033325F6C6C5F6472697665722F73726335
:100DC0002F686333325F6C6C5F636C6B2E63000063
:100DD000004005402DE9F041040026D0207900F0C4
:100DE0001F00172804D94FF49C6158A000F048FF59
:100DF0006068C0F308201338B0F5E67F04D940F2EC
:100E0000E14152A000F03CFF60684FF0FF3101EB80
:100E100010700E2804D940F2E2414CA000F030FFDF
:100E20006168080605D4554805E06FF00200BDE88A
:100E3000F0815348006801F01F02521CB0FBF2F031
:100E4000C1F308256D1C4F49454308444E4988426B
:100E500004D94FF49D613DA000F012FF4B484B496F
:100E600028444942884204D940F2E94137A000F0C1
:100E700007FF6068012101EB1070B5FBF0F0444EF4
:100E8000444F3044B84204D940F2EA412FA000F068
:100E9000F7FE6068C0F30360401E0E2804D940F2DC
:100EA000EB412AA000F0ECFE6068C0F30350401E46
:100EB0000E2804D940F2EC4124A000F0E1FE606865
:100EC000C0F30350401CB5FBF0F03044B84204D9E5
:100ED00040F2ED411DA000F0D3FE6068C0F3036056
:100EE000401CB5FBF0F03044B84204D940F2EE416A
:100EF00016A000F0C5FE2078012805D020B140F2F0
:100F0000EF4112A000F0BCFE234DB5F8FE03C00770
:100F100004D14FF49E610DA000F0B2FED5F800019F
:100F2000217920F08000C1F3C01140EAC110C5F85A
:100F300000016068C5F80001207820B10020BDE8FC
:100F4000F041FFF7F1BE0120F9E700002E2E2F2E11
:100F50002E2F647269766572732F686333325F6C0B
:100F60006C5F6472697665722F7372632F68633386
:100F7000325F6C6C5F636C6B2E63000000127A0052
:100F80001480FF1FC0BDF0FF00366E0100E4B1F118
:100F9000401E1BFF403A690D00400540002190B102
:100FA0000022132363F3102202F1805222F07062B8
:100FB00002F1807222F4700202F580124260012276
:100FC0000270084670476FF00201FAE710B503F0AF
:100FD000C9FBBDE8104003F005BF10B503F0F0FCFD
:100FE000BDE8104003F0FEBEF8B5064600200D46F1
:100FF0006FF00704009007E03046FFF769FE012814
:1010000006D00098401C0090A842F5D92046F8BDB3
:101010000024FBE770B505004FF0000406D0012D59
:1010200004D040F2CB3117A000F02AFE214EB6F8D2
:10103000FE03C00704D14FF4737112A000F020FE2C
:1010400055B1002086F832004FF480510820FFF798
:10105000CBFF0446204670BD96F826006FF00501D0
:1010600000F0070003280BD0D6F8000102064FF06D
:10107000010002D496F82A2012B186F83200E9E77E
:101080000C46E7E72E2E2F2E2E2F6472697665729E
:10109000732F686333325F6C6C5F6472697665725C
:1010A0002F7372632F686333325F6C6C5F636C6B9A
:1010B0002E6300000040054070B5040045D0207844
:1010C000012805D020B140F2A9312DA000F0D8FDB3
:1010D000607850B1102808D0202806D0302804D0DD
:1010E00040F2AA3126A000F0CBFDA07830B1402814
:1010F00004D040F2AB3122A000F0C2FDE07880289D
:1011000005D020B14FF46B711DA000F0B9FD20791E
:10111000012814D0022812D0032810D004280ED0A1
:1011200005280CD006280AD0072808D0082806D0A1
:10113000092804D040F2AD3111A000F0A1FD1C4DF2
:10114000B5F8FE03C00708D102E06FF0020070BDE1
:1011500040F2AE310AA000F093FD207985F8A2009C
:10116000E07861780843A178084312490870207834
:1011700020B10020BDE87040FFF74CBF0120F9E727
:101180002E2E2F2E2E2F647269766572732F686350
:1011900033325F6C6C5F6472697665722F73726351
:1011A0002F686333325F6C6C5F636C6B2E6300007F
:1011B0000040054010440540002150B1012202705A
:1011C0000022827042708022C2700522027108469D
:1011D00070476FF00201FAE770B5164604461869C9
:1011E00012691D46904227D0307968B106280AD18D
:1011F00054F84C0B4169496AA1674169896A616782
:101200004069C06AE06770BDD4F8C40054F84C1B54
:101210000969486254F84C1C606F0969886254F887
:101220004C1CE06F0969C862B5F92400A067B3F9E6
:1012300026000C38606770BD0879D8B10128FAD152
:10124000B5F92400C4F8C4006169802292FBF1F270
:101250004A43511A814201DB0028ECDAF068D96870
:10126000401A012801D0401CE5D1B6F92400C4F889
:10127000C40070BD3068FFF7A7F800EB4000042100
:1012800001EB4000C4F8B400B5F9260040220C3848
:10129000C4F8C000216992FBF1F24A43511A81421D
:1012A00001DB0028E5DAF068E968401A012801D07E
:1012B000401CDED1B6F926000C38C4F8C00070BD61
:1012C0002DE9F04F0C794FF000094FF0010A4FF073
:1012D0000C0B24B1012C3CD14C79E4B36FE04C7978
:1012E00054BBD3F80C80D2F80CC04027A8EB0C06F6
:1012F0000469002E0EDD97FBF4FC8D69A5EB0C0C48
:10130000B44504DA97FBF4F6AD1B6D1C6C43C5695C
:101310002C1B0EE097FBF4F68D69ACEB080CAE1BB2
:10132000664504DA97FBF4F6AD1B6D1C6C43C5698A
:101330002C44C46181F805A019691469A14208D040
:1013400015794DB1062D04D1096AC1611969C969C0
:101350008161BDE8F08F07E08169E1611269C169CF
:101360001162C0E9069BF4E7D3F80C80D2F80CC0F8
:101370008027A8EB0C064469002E0EDD97FBF4FCD9
:101380008D69A5EB0C0CB44504DA97FBF4F6AD1BA4
:101390006D1C6C4385692C1B0EE097FBF4F68D6980
:1013A000ACEB080CAE1B664504DA97FBF4F6AD1BFC
:1013B0006D1C6C4385692C44846181F805A0196912
:1013C0001469A142C5D01579002DC5D0062DC0D114
:1013D000C96981611969096AC161BAE72DE9F05FDC
:1013E0000C462DED028B9946DDE90CBA38491546BD
:1013F0006FF0020888420DD0364988420AD036493B
:10140000884207D03549884204D04FF4167134A081
:1014100000F036FCB9F1000F55D0BBF1000F52D0EF
:10142000F4B3EDB3A800B4FBF0F0461E801EFE2816
:1014300049D80022701C42F100018B0043EA9073EE
:101440008100A1FB050703FB057301FB02310D02BF
:1014500045EA106507022246002338462946FEF772
:101460004BFF80387F282ED8C9F80060CBF80000E9
:10147000BAF1000F25D080214118A1FB04060022FB
:1014800042F1000303FB046301FB023406463846C5
:101490002946FFF71CF841EC180B3046214600E0C6
:1014A00011E0FFF714F853EC182BFEF794FFFFF749
:1014B0002DF800EE100AF7EE000A30EE600A8AED11
:1014C000000A4FF00008BDEC028B4046BDE8F09FDB
:1014D00000D0014000D4014000100240001402403E
:1014E0002E2E2F2E2E2F647269766572732F6863ED
:1014F00033325F6C6C5F6472697665722F737263EE
:101500002F686333325F6C6C5F75736172742E6326
:10151000000000002DE9F0410C462DED028B1E4627
:101520002949089F90466FF0020588420DD027494F
:1015300088420AD02649884207D02649884204D0EA
:1015400040F29511244800F09BFB4046B6B3ACB383
:10155000A0B304EB840149008200B1FBF2F10A223E
:10156000491DB1FBF2F2511E921EFE2A26D83160AF
:101570001FB30023491C43F10002950045EA917511
:101580008900A1FB002605FB086001FB0301104652
:10159000FEF79DFF41EC180B2046FEF78BFF53EC46
:1015A000182BFEF718FFFEF7B1FF00EE100AF7EE5A
:1015B000000A30EE600A87ED000A0025BDEC028BC0
:1015C0002846BDE8F081000000D0014000D4014071
:1015D00000100240001402400461010070B50D4685
:1015E000044600F059F800F093FA00F041FB102097
:1015F000206127206061002025600C216560C4E91E
:10160000060184F8200084F821009FED1C1A207345
:101610009FED1B0A84ED091ADFED1A0A84ED0A0A10
:10162000C4ED0B0AF6EE001AC4ED0F1A84ED100A91
:1016300084ED110AC4ED151ADFED131AC4ED161A64
:10164000DFED121AC4ED171AF5EE001AC4ED211AD7
:1016500084ED220AC4ED230ADFED0D0AC4ED270A4A
:10166000DFED0C0A84ED280AC4ED290A84ED1B1A6B
:1016700084ED1C0AC4ED1D0A70BD00003333B33E77
:10168000000000008FC2F53CCDCC4C3E7B142E3EBA
:101690006666E63ECDCCCC3DFEB50122C249C3A074
:1016A000FFF7EAF9C04DC44800240095CDE9014098
:1016B00005F5907322460121BCA0FFF781F905F1E1
:1016C00030060095BD4FCDE9016405F51673002184
:1016D000BBA07A68FFF774F900223146BAA0FFF781
:1016E000CBF90096CDE9015405F5AA730022062135
:1016F000B5A0FFF765F9CDE9006405F55773002241
:101700000221B3A00294FFF75BF9CDE9006405F56F
:10171000647300220221B0A00294FFF751F9CDE9D1
:10172000006405F5717300220221ADA00294FFF759
:1017300047F9CDE9006405F57E7300220221AAA0D5
:101740000294FFF73DF9CDE9006405F22C43002235
:101750000221A7A00294FFF733F9CDE9006405F553
:101760008C6300220221A4A00294FFF729F93036ED
:101770000095CDE9016405F530730021A0A0BA6899
:10178000FFF71EF9002231468FA0FFF775F900968A
:10179000CDE9015405F5DE73002206218AA0FFF78A
:1017A0000FF9CDE9006405F294430022022198A0CC
:1017B0000294FFF705F9CDE9006405F5996300226D
:1017C000022195A00294FFF7FBF8CDE9006405F231
:1017D000FC430022022192A00294FFF7F1F8CDE928
:1017E000006405F5A6630022022190A00294FFF791
:1017F000E7F8CDE9006405F26453002202218DA0D0
:101800000294FFF7DDF8CDE9006405F5B36300222B
:1018100002218AA00294FFF7D3F830360095CDE973
:10182000016405F52373002186A0FA68FFF7C8F864
:101830000022314664A0FFF71FF90096CDE901545C
:1018400005F5C473002206215FA0FFF7B9F8CDE9C2
:10185000006405F2CC53002203217CA00294FFF720
:10186000AFF8CDE9006405F5C063002203217BA039
:101870000294FFF7A5F8CDE9006405F23463002275
:10188000032179A00294FFF79BF8CDE9006405F5E8
:10189000CD630022032178A00294FFF791F830363F
:1018A0000095CDE9016405F53D73002174A0FA6946
:1018B000FFF786F80022314643A0FFF7DDF80096D7
:1018C000CDE9015405F5F873002206213EA0FFF78B
:1018D00077F8CDE9006405F29C63002203216DA036
:1018E0000294FFF76DF8CDE9006405F5DA63002294
:1018F00003216CA00294FFF763F830360095CDE920
:10190000016405F54A73002169A03A69FFF758F8A8
:10191000002231462CA0FFF7AFF80096CDE9015424
:1019200005F509730022062127A0FFF749F8CDE944
:10193000006405F204730022022160A00294FFF704
:101940003FF8CDE9006405F5E763002202215EA0BF
:101950000294FFF735F8CDE9006405F26C730022BC
:1019600002215DA00294FFF72BF8CDE9006405F594
:10197000F463002202215CA00294FFF721F8CDE974
:101980000054029405F2D47302215BA07A69FFF738
:1019900017F8CDE90054029405F60803022158A077
:1019A000BA69FFF70DF8FEBD4884FF1F5B486F6DF5
:1019B00065506167655D0000E94A01003880FF1FDE
:1019C000202B496E707574005B4261636B5D000093
:1019D000202D535600000000202D43564253000096
:1019E000202D524742300000202D52474231000046
:1019F000202D595556000000202D5647410000006B
:101A0000202B566964656F466F726D61740000002B
:101A1000202D4175746F0000202D4E54534300005B
:101A2000202D4E545343343433000000202D5041B8
:101A30004C000000202D50414C5F4D00202D53459F
:101A400043414D00202B436F6C6F7200202D42727A
:101A5000696768746E65737300000000202D436F22
:101A60006E74726173740000202D5361747572611D
:101A700074696F6E00000000202D487565730000CA
:101A8000202B53637265656E506F736974696F6E56
:101A900000000000202D4C6566742652696768744A
:101AA00000000000202D557026446F776E00000066
:101AB000202B4F757450757400000000202D3732B4
:101AC000305028342A332900202D37323050283125
:101AD000362A392900000000202D313038305028B6
:101AE000342A332900000000202D313038305028AE
:101AF00031362A3929000000202D53617665000017
:101B0000202D4C6F616444656661756C7400000043
:101B10002DE9F0414548464E00242DED028B40A1B1
:101B20008460C0E90016012505734473857364273A
:101B3000C0E90474B7EE008A311D80ED068A0860A2
:101B400000F2746000F095F838483AA11C308460C7
:101B5000C0E90016057344738573C0E9047406F187
:101B60000C0180ED068A086000F28C6000F081F8BC
:101B70002E4833A138308460C0E9001605734473E1
:101B80008573C0E9047406F1140180ED068A0860CB
:101B900000F2A46000F06DF824482CA15430846059
:101BA000C0E90016057344738573C0E9047406F137
:101BB0001C0180ED068A086000F2BC6000F059F854
:101BC0001A4824A1703014278460C0E900160573F8
:101BD000447385736FF01308C0E9047806F124019B
:101BE00080ED068A086000F2D46000F042F80F48E9
:101BF0001CA18C308460C0E90016057344738573A2
:101C0000C0E9047806F12C0180ED068A086000F234
:101C1000EC60BDEC028BBDE8F04100F02AB800009A
:101C20004272696768746E6573730000A083FF1F5A
:101C30006880FF1F436F6E74726173740000000050
:101C400053617475726174696F6E000048756573D5
:101C5000000000004C656674416E645269676874E8
:101C6000000000005570416E64446F776E00000004
:101C70007047002802D0002900D081607047000022
:101C80000A46014601A004F00FFCFEE757726F6E92
:101C90006720706172616D65746572732076616C26
:101CA00075653A2066696C65202573206F6E206C1F
:101CB000696E652025640D0A0000000018B50E4A03
:101CC00000210091D36804469268C81E002A0FD0F4
:101CD000009805E0106800F080010098401C00901A
:101CE000984202D80029F5D000E011B154600020DC
:101CF00018BD6FF0070018BD0080FF1F0B4908B525
:101D0000096AC1F302620A490968D14042F20F72BE
:101D10001144521CB1FBF2F304E0009300994A1EF7
:101D20000092FBD2401EF8D208BD000000400540E2
:101D30001080FF1F0A4908B5096AC1F30262094908
:101D40000968D140084A1144521CB1FBF2F304E087
:101D5000009300994A1E0092FBD2401EF8D208BDA3
:101D6000004005401080FF1F7F9698002DE9F84342
:101D7000044690F82000089E1D4617468846042811
:101D800019D104F13C02B4F8CC109146184602F087
:101D900061FA24F8CC0F4A466188304602F05AFABC
:101DA00080B26080009034F8CC39BAB21FFA88F162
:101DB000204600F021F8B4F8CC00A91E884210DBC0
:101DC000AD1CA8420DDCB4F8CE00B11E884208DB81
:101DD000B61CB04205DC032084F820000120BDE8D9
:101DE000F88302F025FA0020F9E70000014805F029
:101DF000E7BC0000048DFF1F2DE9F8430446007B7B
:101E0000984680F001008DF8000015460E46089FA8
:101E1000684602F013FA3B4642462946304602F035
:101E2000ADF99DF8000080F001008DF800006846D3
:101E300002F004FAB4F8CE006D1C801E83B2B4F830
:101E4000CC00761C801E82B2A9B2B0B202F096F924
:101E50009DF8000080F001008DF80000684602F057
:101E6000EDF9BDE8F883000010B502F081F90D48E6
:101E700002F0EAF90CA20C21002002F0B1F90DA247
:101E80001821002002F0ACF910A22421002002F059
:101E9000A7F912A23C21322002F0A2F9BDE81040BD
:101EA00002F0C6B97C9101004D756C744D656E757C
:101EB00000000000417574686F723A5A68616E677D
:101EC0004A69616E46656E6700000000576169747B
:101ED00020627574746F6E2E2E2E0000566572731C
:101EE000696F6E3A322E312E370000002DE9FC4129
:101EF000984613460F46CC6805464246194600F000
:101F00004BF828680169D8F81000814209D00020F8
:101F1000014603E02185E469401C80B2BA6982422F
:101F2000F8DA002617E0B4F92810B4F9240005F116
:101F3000840202F08FF900B220851E30BC2807D839
:101F4000206B00901E23208D1A460C2102F050F9C0
:101F5000E469761CB6B2B869B042E4DA3E210020EA
:101F6000D8F8002002F03CF902208DF8040001A806
:101F700002F064F905F19C02D5F8BC10D5F8C40054
:101F800002F068F9C5F8BC0080B202231E222F219E
:101F900002F000F9BDE8FC8110B5044610699FED20
:101FA000181A90ED060AB8EEC00AC1EE000A92EDCA
:101FB000030A04F12402B8EEC00A20EE800ABCEE47
:101FC000C00A10EE100A80B2A4F8D600B4F8D410FB
:101FD00002F040F924F8D40F022380221946002091
:101FE00002F0E4F8002122880623084602F0C6F831
:101FF00020886188884201D1012010BD002010BDD9
:1020000000000043F8B504461D4617460E466248D8
:1020100002F01AF902F0ACF894F82000022828D156
:1020200028693969884202D00120707121E0307935
:10203000002110B101281CD10FE02069402292FB41
:10204000F0F24243131AB5F92600A0F10C029342B4
:1020500001DB0C380BE071710BE06069802292FBB0
:10206000F0F24243121AB5F924008242F3DB002851
:10207000F1DB2868FEF7A8F900EB40004000C4F847
:10208000C800207B8DF80000684602F0D7F80021D8
:1020900040238022084602F071F89DF8000080F08D
:1020A00001008DF80000684602F0C8F894F820009E
:1020B0003A462B46022826D131462046FFF700F942
:1020C0000020F16812E0327912B1012A0BD105E04B
:1020D0002369E26900FB0322CA8404E0D4E90532E3
:1020E00000FB03228A84C969401C80B2B269824223
:1020F000E9DA94F82000022805D12B463A46314609
:102100002046FFF769F8307910B1012832D03CE061
:1021100028699FED221A04F1240290ED060AB8EE18
:10212000C00AC1EE000A95ED030AB8EEC00A20EE1F
:10213000800ABCEEC00A10EE100A80B2A4F8D200E9
:10214000B4F8D01002F086F8A4F8D0007922402329
:102150000021104602F02AF8B4F8D03006220021FF
:10216000762002F00BF82B463A463146204600F026
:10217000DDF80AE02A4639462046FFF70DFF2B46D8
:102180003A4631462046FFF7B1FE02F051F80120F1
:1021900084F82000F8BD00007C910100000080421E
:1021A0002DE9F04305462DED028B81B01F460B98BB
:1021B000002389468DF800301446417B0126921F8A
:1021C000F1EE081A00297CD0012978D190ED041A8B
:1021D0004168B8EEC11AD1ED000AF4EEC10AF1EE81
:1021E00010FA6CD890ED051AB8EEC11AF4EEC10AD7
:1021F000F1EE10FA63DB30EE800A81ED000AD0EDDB
:10220000040A4168B8EEE01AB4EEC10AF1EE10FA21
:1022100003DDB8EEE00A81ED000A90ED050A4168A1
:10222000B8EEC01AD1ED000AF4EEC10AF1EE10FAD0
:1022300003D2B8EEC00A81ED000AD0F814C041689C
:1022400000EE10CAD1ED000AB8EEC00A30EEC00AA6
:10225000BDEEC00A10EE101A002900DA49425143BF
:1022600000EE101A00698DF80030F8EEC00AA0EBFD
:102270000C0000EE100A6846B8EEC01A80EE810A23
:1022800030EE218A01F0DAFFBCEEC88A3B464946AF
:1022900018EE100A201A82B218EE100A284480B2F2
:1022A00001F06CFF8DF80060684601F0C7FF18EE82
:1022B000100A3B46494682B2284601F05FFF01B052
:1022C00000E003E0BDEC028BBDE8F083D0F804C071
:1022D000D0F81080DCF800104145F0DCD0F8148014
:1022E0004145ECDB00EE901AF8EEE00A30EE800A91
:1022F000BDEEC00A10EE101ACCF80010D0F810C0D5
:10230000D0F80480614501DDC8F800C0D0F804C0F1
:102310004169DCF80080884501DACCF8001041689A
:10232000D0F814C00968A1EB0C0195E7F0B505469B
:1023300000680F46CC680069196987B0884209D0E7
:102340000020014603E06185E469401C80B2BA695F
:102350008242F8DA002659E0B4F92A10B4F92600CE
:1023600005F16C0201F076FF00B260850C30582850
:1023700049D8618DA08C226801F032FF20790328B2
:1023800041D114216846FEF714F8A0680168487B23
:1023900020B1012809D002282ED113E0486831A1CC
:1023A0000268684604F090F826E048680068FEF786
:1023B0009AF841EC100B2CA153EC102B684604F05A
:1023C00083F819E0608D0C230C3881B2A08C1A467A
:1023D0005F3080B201F0DEFEA068006840680078DF
:1023E000012809D1608D08230A3881B2A08C1A46D1
:1023F000613080B201F0C2FEA08C618D5C3080B291
:102400006A4601F0EDFEE469761CB6B2B869B042E6
:10241000A2DA02208DF8140005A801F00FFF05F1E3
:1024200054021446D5F8B810D5F8C00001F012FFD8
:10243000C5F8B800D5F8B410D5F8C80022467C35E8
:1024400001F008FF0421A86382B20091A88F0C2339
:10245000401C81B235F8640C401C80B201F0B2FE21
:1024600007B0F0BD25640000252E32660000000094
:1024700010B5040006D0012C04D040F2BB3103A0FB
:10248000FFF7FEFB0D48C0F8804110BD2E2E2F2E09
:102490002E2F647269766572732F686333325F6CB6
:1024A0006C5F6472697665722F7372632F68633331
:1024B000325F6C6C5F65666D2E63000000802042A9
:1024C0002DE9F04105461A4800240068012804D08F
:1024D0004FF4897117A0FFF7D3FBF02D04D940F218
:1024E000131114A0FFF7CCFB114B0833186805F04B
:1024F000F00120F0F000084318601B48194E44F624
:10250000206102680DE0306AC0F3026722FA07F02A
:10251000B0FBF1F0641CA04203D26FF00700BDE8ED
:10252000F081186800F0F000A842ECD10020F6E736
:10253000000401402E2E2F2E2E2F647269766572B4
:10254000732F686333325F6C6C5F64726976657297
:102550002F7372632F686333325F6C6C5F65666DD7
:102560002E630000004005401080FF1F10B50400DE
:1025700001D0200C04D040F2032104A0FFF780FB1F
:102580001048816D2143816510BD00002E2E2F2E35
:102590002E2F647269766572732F686333325F6CB5
:1025A0006C5F6472697665722F7372632F68633330
:1025B000325F6C6C5F696E74657272757074732EC5
:1025C000630000000010054010B5040001D0200C8D
:1025D00004D04FF4047104A0FFF752FB1048406D83
:1025E000204000D0012010BD2E2E2F2E2E2F6472E1
:1025F00069766572732F686333325F6C6C5F6472E7
:10260000697665722F7372632F686333325F6C6C07
:102610005F696E74657272757074732E630000006A
:102620000010054010B54FF400742046FFF7CCFFB2
:1026300001280CD104F05CFF2146012000F03CFA97
:102640000028F9D02046BDE81040FFF78FBF10BD2D
:102650002DE9F0410C0005464FF000063FD00DB1CA
:10266000280C04D040F2D3111EA0FFF709FB20680C
:1026700030B1802804D04FF4EA711AA0FFF700FBB4
:10268000606850B1102808D0202806D0302804D027
:1026900040F2D51113A0FFF7F3FAA068032809D080
:1026A000012807D030B1022804D04FF4EB710DA0FF
:1026B000FFF7E6FA0022194F012303FA02F028423D
:1026C00006D0D4E900100143A068014347F8221066
:1026D000521CD2B2102AF0D33046BDE8F0816FF020
:1026E0000206F9E72E2E2F2E2E2F64726976657260
:1026F000732F686333325F6C6C5F647269766572E6
:102700002F7372632F686333325F6C6C5F696E7412
:10271000657272757074732E6300000010100540AE
:10272000002128B1002202604260826008467047A2
:102730006FF00201FAE7000070B50D46040002D008
:102740000E48044203D071210DA0FFF799FA2DB174
:10275000012D03D072210AA0FFF792FA144E3069BE
:10276000C00703D1732106A0FFF78AFA3068012D54
:1027700002D02043306070BDA043FBE7EE3A0C70FE
:102780002E2E5C2E2E5C647269766572735C6863B3
:1027900033325F6C6C5F6472697665725C7372630E
:1027A0005C686333325F6C6C5F6663672E63000046
:1027B0000080044070B50D46040002D00A4804426F
:1027C00003D0842109A0FFF75BFA144E2DB1012D2F
:1027D00007D0852105A0FFF753FA70682043706089
:1027E00070BD7068A043FAE78602F0F02E2E5C2ED2
:1027F0002E5C647269766572735C686333325F6CF9
:102800006C5F6472697665725C7372635C68633373
:10281000325F6C6C5F6663672E630000008004406B
:1028200070B50D46040002D00A48044203D0962138
:1028300009A0FFF725FA144E2DB1012D07D09721DD
:1028400005A0FFF71DFAB0682043B06070BDB06806
:10285000A043FAE70078F8FF2E2E5C2E2E5C6472FF
:1028600069766572735C686333325F6C6C5F647247
:10287000697665725C7372635C686333325F6C6C3B
:102880005F6663672E6300000080044070B51546E4
:102890000C4606000ED0012E0CD0022E0AD0032EBC
:1028A00008D0042E06D0052E04D04FF41E7110A0BF
:1028B000FFF7E6F924B940F279210DA0FFF7E0F91E
:1028C0000021174BB201E00708D002EB8100184449
:1028D000012D068809D0C6F30E060680640803D0D1
:1028E000491CC9B21029EED370BD46F40046F4E786
:1028F0002E2E2F2E2E2F647269766572732F6863C9
:1029000033325F6C6C5F6472697665722F737263C9
:102910002F686333325F6C6C5F6770696F2E630082
:10292000003C05402DE9F04114000E4605464FF0ED
:10293000000704D053480088C00707D102E06FF0B9
:1029400002079BE0FF2150A0FFF79AF975B1012D16
:102950000CD0022D0AD0032D08D0042D06D0052D51
:1029600004D04FF4807148A0FFF78AF926B940F2ED
:10297000011145A0FFF784F9208830B1012804D067
:102980004FF4817140A0FFF77BF9608830B10228D5
:1029900004D040F203113CA0FFF772F9A08830B1D7
:1029A000042804D04FF4827137A0FFF769F9E0885A
:1029B00040B1102806D0202804D040F2051132A0E2
:1029C000FFF75EF9208938B1B0F5804F04D04FF49D
:1029D00083712DA0FFF754F9608930B1402804D0ED
:1029E00040F2071128A0FFF74BF9A08938B1B0F5E4
:1029F000007F04D04FF4847123A0FFF741F9E089F0
:102A000038B1B0F5805F04D040F209111EA0FFF785
:102A100037F9208A38B1B0F5004F04D04FF48571F2
:102A200019A0FFF72DF900204FF0010E0EFA00F16A
:102A300031421FD021886288E3881143A2884DF279
:102A4000772C1A43114362890E4B1143A28911431B
:102A5000E289114322891143228A0A43A90101EB29
:102A600080011B1D19440B8802EA0C0223EA0C03A7
:102A700013430B80401CC0B21028D7D33846BDE8A2
:102A8000F0810000FC3B05402E2E2F2E2E2F64726D
:102A900069766572732F686333325F6C6C5F647242
:102AA000697665722F7372632F686333325F6C6C63
:102AB0005F6770696F2E630070B50D4604000ED01D
:102AC000012C0CD0022C0AD0032C08D0042C06D0E8
:102AD000052C04D040F2F11108A0FFF7D1F825B978
:102AE0004FF4F97105A0FFF7CBF8104901EB041082
:102AF000B0F80008284000D0012070BD2E2E2F2EE7
:102B00002E2F647269766572732F686333325F6C3F
:102B10006C5F6472697665722F7372632F686333BA
:102B2000325F6C6C5F6770696F2E63000030054028
:102B300070B50D4604000ED0012C0CD0022C0AD02A
:102B4000032C08D0042C06D0052C04D040F23D21E3
:102B500007A0FFF795F825B940F23E2104A0FFF742
:102B60008FF80F4800EB041001882943018070BDE5
:102B70002E2E2F2E2E2F647269766572732F686346
:102B800033325F6C6C5F6472697665722F73726347
:102B90002F686333325F6C6C5F6770696F2E630000
:102BA0000A3805402DE9F04115460E4604000ED0C6
:102BB000012C0CD0022C0AD0032C08D0042C06D0F7
:102BC000052C04D040F2771117A0FFF759F826B969
:102BD0004FF4BC7114A0FFF753F80F2D08D9A5F1DD
:102BE00020001B2804D940F279110FA0FFF748F804
:102BF00019480088C00704D14FF4BD710AA0FFF73F
:102C00003FF8A201144C00230127A41D07FA03F189
:102C1000314202D002EB830005535B1CDBB2102B68
:102C2000F4D3BDE8F08100002E2E2F2E2E2F6472DB
:102C300069766572732F686333325F6C6C5F6472A0
:102C4000697665722F7372632F686333325F6C6CC1
:102C50005F6770696F2E6300FC3B054070B50D46E1
:102C600004000ED0012C0CD0022C0AD0032C08D06A
:102C7000042C06D0052C04D040F22B2107A0FEF72F
:102C8000FFFF25B94FF40B7104A0FEF7F9FF0F48C1
:102C900000EB041001882943018070BD2E2E2F2ED9
:102CA0002E2F647269766572732F686333325F6C9E
:102CB0006C5F6472697665722F7372632F68633319
:102CC000325F6C6C5F6770696F2E63000838054077
:102CD00010B504000DD0B4F5804F0AD0B4F5004F04
:102CE00007D0B4F5404F04D040F2CD110AA0FEF752
:102CF000C7FF15480088C00704D14FF4E77106A04C
:102D0000FEF7BEFF1048001F018804F44042C1F3E3
:102D10000D011143018010BD2E2E2F2E2E2F647217
:102D200069766572732F686333325F6C6C5F6472AF
:102D3000697665722F7372632F686333325F6C6CD0
:102D40005F6770696F2E6300FC3B0540002258B13D
:102D5000002101804180C180018201814181818106
:102D6000C1818180104670476FF00202FAE70000CF
:102D70002DE9F0474FF0000491460D000646274626
:102D80004FF002089FED590A6FF0020A39D0B9F1ED
:102D9000000F36D0564886420AD05648864207D0A1
:102DA0005548864204D04FF4887154A0FEF768FF5E
:102DB000686810B15D49884204D940F211114FA0F2
:102DC000FEF75EFF2868072804D94FF489714BA0ED
:102DD000FEF756FF5648006A5649C0F302302A688B
:102DE0000968D5ED020AC140012095ED011A336B47
:102DF0009040DB0603D5336B03F003077F1C32B131
:102E000007E05446B9F1000F6AD0E4B368E04FF030
:102E10000308C8B300EE101AB8EE412AF8EE600AB3
:102E2000B8EE400AC0EE021A00EE100AB8EE402AD0
:102E300081EE820A01EE908AB0EE002AF8EE611A65
:102E400061EE822A01EE907AF8EE611A41EE822A52
:102E500032EEA02AFCEEC00A70EE421AF8EE602AAA
:102E600030EE620A10EE103AB8EE600AB3F17C5F01
:102E700003DBF7EE000A30EE200AB4EEC20AF1EEF0
:102E800010FA30D901E029E02DE011EE903A2A4DF8
:102E9000AB4228DCBCEEC00AF8EE410A10EE103A54
:102EA000B1FBF3F1B1FBF0F000EE100A1104B8EE43
:102EB000400A70EEC00A00EE100AB8EE401A80EE2A
:102EC000810AFCEEE10A10EE900A41EA500110EE90
:102ED000900AA0EB500041EA0020F06289ED000A60
:102EE0002046BDE8F0875446FAE7000000000000E5
:102EF00000E0044000E4044000E804402E2E5C2E74
:102F00002E5C647269766572735C686333325F6CE1
:102F10006C5F6472697665725C7372635C6863335C
:102F2000325F6C6C5F6932632E630000801A0600AA
:102F3000004005401080FF1F0000784270B5044635
:102F40000F480D4684420AD00E48844207D00E48EE
:102F5000844204D040F2FB110CA0FEF791FE35B183
:102F6000012D09D04FF4FE7108A0FEF789FEE0683C
:102F700020F48060E06070BDE06840F48060F9E7B4
:102F800000E0044000E4044000E804402E2E5C2EE3
:102F90002E5C647269766572735C686333325F6C51
:102FA0006C5F6472697665725C7372635C686333CC
:102FB000325F6C6C5F6932632E63000070B504464B
:102FC0000C480D4684420AD00B48844207D00B4877
:102FD000844204D040F29A2109A0FEF751FE15B1B7
:102FE0001348054204D040F29B2105A0FEF748FE9D
:102FF000256270BD00E0044000E4044000E80440A5
:103000002E2E5C2E2E5C647269766572735C68632A
:1030100033325F6C6C5F6472697665725C73726385
:103020005C686333325F6C6C5F6932632E630000EF
:1030300020AD0FFF70B504460D480D4684420AD0FE
:103040000C48844207D00C48844204D040F2D51189
:103050000AA0FEF715FE35B1012D04D04FF4EB7137
:1030600006A0FEF70DFE206865F30000206070BD2D
:1030700000E0044000E4044000E804402E2E5C2EF2
:103080002E5C647269766572735C686333325F6C60
:103090006C5F6472697665725C7372635C686333DB
:1030A000325F6C6C5F6932632E63000010B50446BA
:1030B0000B4884420AD00B48844207D00A48844215
:1030C00004D040F2651109A0FEF7DAFD206820F077
:1030D00001002060206840F40040206010BD000026
:1030E00000E0044000E4044000E804402E2E5C2E82
:1030F0002E5C647269766572735C686333325F6CF0
:103100006C5F6472697665725C7372635C6863336A
:10311000325F6C6C5F6932632E63000010B5044649
:103120000848844209D00848844206D007488442AF
:1031300003D0C42106A0FEF7A3FD206840F48070F0
:10314000206010BD00E0044000E4044000E80440BA
:103150002E2E5C2E2E5C647269766572735C6863D9
:1031600033325F6C6C5F6472697665725C73726334
:103170005C686333325F6C6C5F6932632E6300009E
:1031800010B504460848844209D00848844206D055
:103190000748844203D0DE2106A0FEF771FD2068B7
:1031A00040F40070206010BD00E0044000E40440E2
:1031B00000E804402E2E5C2E2E5C647269766572E7
:1031C000735C686333325F6C6C5F647269766572DE
:1031D0005C7372635C686333325F6C6C5F6932632B
:1031E0002E63000070B504460E480D4684420AD096
:1031F0000D48844207D00D48844204D04FF41F711B
:103200000BA0FEF73DFD15B11548054204D040F274
:103210007D2107A0FEF734FDE069284000D00120A1
:1032200070BD000000E0044000E4044000E80440F9
:103230002E2E5C2E2E5C647269766572735C6863F8
:1032400033325F6C6C5F6472697665725C73726353
:103250005C686333325F6C6C5F6932632E630000BD
:1032600020A908FF70B516460D0004463DD0204841
:1032700084420AD01F48844207D01F48844204D0A9
:103280004FF4C8711DA0FEF7FBFC686810B1274918
:10329000884204D940F2911118A0FEF7F1FC286889
:1032A000072804D94FF4C97114A0FEF7E9FC20687F
:1032B00020F001002060206840F400402060206879
:1032C00040F001002060324629462046FFF750FDBD
:1032D000216821F040012160216821F40041216032
:1032E000216821F00101216070BD6FF0020070BD06
:1032F00000E0044000E4044000E804402E2E5C2E70
:103300002E5C647269766572735C686333325F6CDD
:103310006C5F6472697665725C7372635C68633358
:10332000325F6C6C5F6932632E630000801A0600A6
:103330007FB50D4C2046FFF7B9FE684600F0E2F875
:1033400001200090094801900320029003AA6946D9
:103350002046FFF787FF054601212046FFF7EEFDD7
:1033600004B0284670BD000000E40440801A060046
:1033700070B504460D480D4684420AD00C4884427C
:1033800007D00C48844204D040F2AA210AA0FEF7DC
:1033900077FC35B1012D04D040F2AB2106A0FEF739
:1033A0006FFC206865F3CF30206070BD00E0044002
:1033B00000E4044000E804402E2E5C2E2E5C647273
:1033C00069766572735C686333325F6C6C5F6472DC
:1033D000697665725C7372635C686333325F6C6CD0
:1033E0005F6932632E63000070B5044611480D46D4
:1033F00084420AD01048844207D01048844204D046
:1034000040F266310EA0FEF73BFC2B4600224FF443
:103410000031204600F04AF900280AD12046FFF783
:103420007DFE2B462046BDE870400122104900F089
:103430003DB970BD00E0044000E4044000E80440F1
:103440002E2E5C2E2E5C647269766572735C6863E6
:1034500033325F6C6C5F6472697665725C73726341
:103460005C686333325F6C6C5F6932632E630000AB
:103470000100020070B5054613480C46854210D085
:10348000124885420DD0124885420AD040F2E641EA
:1034900010A0FEF7F5FB04E010212846FFF78EFD93
:1034A000641E10212846FFF79DFE012801D1002C43
:1034B000F2D12846FFF764FE23462846BDE8704057
:1034C0000122102100F0F2B800E0044000E40440C2
:1034D00000E804402E2E5C2E2E5C647269766572C4
:1034E000735C686333325F6C6C5F647269766572BB
:1034F0005C7372635C686333325F6C6C5F69326308
:103500002E630000002138B14CF25032426000229C
:1035100082600260084670476FF00201FAE700001F
:103520002DE9F04106462348984615460F46864247
:103530000AD02148864207D02048864204D04FF462
:1035400068711FA0FEF79CFB35B1012D04D040F23D
:10355000A1311BA0FEF794FB7F2F04D940F2A231CA
:1035600017A0FEF78DFB434601228021304600F074
:103570009DF804001BD1780645EA1061304600F042
:10358000EBF8434645B100224FF48021304600F06D
:103590008DF8040003D00AE001220821F6E74FF479
:1035A00080513046FFF71EFE012800D1841E2046C0
:1035B000BDE8F08100E0044000E4044000E804407D
:1035C0002E2E5C2E2E5C647269766572735C686365
:1035D00033325F6C6C5F6472697665725C737263C0
:1035E0005C686333325F6C6C5F6932632E6300002A
:1035F0002DE9F843054600241D48994617460E4616
:10360000009485420AD01B48854207D01A4885425B
:1036100004D040F2254119A0FEF732FB1EB34FF44F
:1036200080580098B84220D0FCB94B460122802136
:10363000284600F03BF80400F3D10098315C28469E
:1036400000F08AF84B4601220821284600F02EF8A7
:10365000044641462846FFF7C5FD012805D00098DD
:10366000401C0090DDE76FF002042046BDE8F883BF
:1036700000E0044000E4044000E804402E2E5C2EEC
:103680002E5C647269766572735C686333325F6C5A
:103690006C5F6472697665725C7372635C686333D5
:1036A000325F6C6C5F6932632E6300002DE9F0417C
:1036B000074619481E4614460D466FF00708874214
:1036C00009D01648874206D01548874203D0A32167
:1036D00014A0FEF7D5FA15B11E48054203D0A42167
:1036E00010A0FEF7CDFA2CB1012C03D0A5210DA01E
:1036F000FEF7C6FAF8692840012C01D1854208D0AE
:10370000204306D0B8F1000004D0002E02D0761E6F
:10371000F0E70020BDE8F08100E0044000E4044050
:1037200000E804402E2E5C2E2E5C64726976657271
:10373000735C686333325F6C6C5F64726976657268
:103740005C7372635C686333325F6C6C5F693263B5
:103750002E63000020A908FF70B5044608480D46F6
:1037600084420AD00748844207D00748844204D0E4
:1037700040F2D32105A0FEF783FA84F8245070BDEF
:1037800000E0044000E4044000E804402E2E5C2EDB
:103790002E5C647269766572735C686333325F6C49
:1037A0006C5F6472697665725C7372635C686333C4
:1037B000325F6C6C5F6932632E6300002DE9F0416B
:1037C00004004FF000056FF0020619D02088B0F514
:1037D000007F03D3C3211AA0FEF752FA22885009B2
:1037E00000EB4001202000EB4103B4F902008342CA
:1037F00004D8252303EB4101814203D2202801D3C1
:1038000035461AE01C4901EB80010E681B4F1C4B2A
:10381000B7EBC65F06D10A60B4F90210606843F8DE
:1038200021000AE00968C1F308018A4203D16168F6
:1038300043F8201001E06FF001052846BDE8F08153
:103840002E2E2F2E2E2F647269766572732F686369
:1038500033325F6C6C5F6472697665722F7372636A
:103860002F686333325F6C6C5F696E74657272755A
:103870007074732E630000005C100540000080FF30
:10388000C880FF1F0148006800470000C880FF1F74
:103890000148406800470000C880FF1F0148806859
:1038A00000470000C880FF1F0148C06800470000B3
:1038B000C880FF1F0148006900470000C880FF1F43
:1038C0000148406900470000C880FF1F0148806927
:1038D00000470000C880FF1F0148C0690047000082
:1038E000C880FF1F0148006A00470000C880FF1F12
:1038F0000148406A00470000C880FF1F0148806AF5
:1039000000470000C880FF1F0148C06A0047000050
:10391000C880FF1F0148006B00470000C880FF1FE0
:103920000148406B00470000C880FF1F0148806BC2
:1039300000470000C880FF1F0148C06B004700001F
:10394000C880FF1F0148006C00470000C880FF1FAF
:103950000148406C00470000C880FF1F0148806C90
:1039600000470000C880FF1F0148C06C00470000EE
:10397000C880FF1F0148006D00470000C880FF1F7E
:103980000148406D00470000C880FF1F0148806D5E
:1039900000470000C880FF1F0148C06D00470000BD
:1039A000C880FF1F0148006E00470000C880FF1F4D
:1039B0000148406E00470000C880FF1F0148806E2C
:1039C00000470000C880FF1F0148C06E004700008C
:1039D000C880FF1F0148006F00470000C880FF1F1C
:1039E0000148406F00470000C880FF1F0148806FFA
:1039F00000470000C880FF1F0148C06F004700005B
:103A0000C880FF1F0148D0F880000047C880FF1F12
:103A10000148D0F884000047C880FF1F0148D0F853
:103A200088000047C880FF1F0148D0F88C0000477D
:103A3000C880FF1F0148D0F890000047C880FF1FD2
:103A40000148D0F894000047C880FF1F0148D0F813
:103A500098000047C880FF1F0148D0F89C0000472D
:103A6000C880FF1F0148D0F8A0000047C880FF1F92
:103A70000148D0F8A4000047C880FF1F0148D0F8D3
:103A8000A8000047C880FF1F0148D0F8AC000047DD
:103A9000C880FF1F0148D0F8B0000047C880FF1F52
:103AA0000148D0F8B4000047C880FF1F0148D0F893
:103AB000B8000047C880FF1F0148D0F8BC0000478D
:103AC000C880FF1F0148D0F8C0000047C880FF1F12
:103AD0000148D0F8C4000047C880FF1F0148D0F853
:103AE000C8000047C880FF1F0148D0F8CC0000473D
:103AF000C880FF1F0148D0F8D0000047C880FF1FD2
:103B00000148D0F8D4000047C880FF1F0148D0F812
:103B1000D8000047C880FF1F0148D0F8DC000047EC
:103B2000C880FF1F0148D0F8E0000047C880FF1F91
:103B30000148D0F8E4000047C880FF1F0148D0F8D2
:103B4000E8000047C880FF1F0148D0F8EC0000479C
:103B5000C880FF1F0148D0F8F0000047C880FF1F51
:103B60000148D0F8F4000047C880FF1F0148D0F892
:103B7000F8000047C880FF1F0148D0F8FC0000474C
:103B8000C880FF1F0148D0F800010047C880FF1F10
:103B90000148D0F804010047C880FF1F0148D0F851
:103BA00008010047C880FF1F0148D0F80C010047FA
:103BB000C880FF1F0148D0F810010047C880FF1FD0
:103BC0000148D0F814010047C880FF1F0148D0F811
:103BD00018010047C880FF1F0148D0F81C010047AA
:103BE000C880FF1F0148D0F820010047C880FF1F90
:103BF0000148D0F824010047C880FF1F0148D0F8D1
:103C000028010047C880FF1F0148D0F82C01004759
:103C1000C880FF1F0148D0F830010047C880FF1F4F
:103C20000148D0F834010047C880FF1F0148D0F890
:103C300038010047C880FF1F0148D0F83C01004709
:103C4000C880FF1F0148D0F840010047C880FF1F0F
:103C50000148D0F844010047C880FF1F0148D0F850
:103C600048010047C880FF1F0148D0F84C010047B9
:103C7000C880FF1F0148D0F850010047C880FF1FCF
:103C80000148D0F854010047C880FF1F0148D0F810
:103C900058010047C880FF1F0148D0F85C01004769
:103CA000C880FF1F0148D0F860010047C880FF1F8F
:103CB0000148D0F864010047C880FF1F0148D0F8D0
:103CC00068010047C880FF1F0148D0F86C01004719
:103CD000C880FF1F0148D0F870010047C880FF1F4F
:103CE0000148D0F874010047C880FF1F0148D0F890
:103CF00078010047C880FF1F0148D0F87C010047C9
:103D0000C880FF1F0148D0F880010047C880FF1F0E
:103D10000148D0F884010047C880FF1F0148D0F84F
:103D200088010047C880FF1F0148D0F88C01004778
:103D3000C880FF1F0148D0F890010047C880FF1FCE
:103D40000148D0F894010047C880FF1F0148D0F80F
:103D500098010047C880FF1F0148D0F89C01004728
:103D6000C880FF1F0148D0F8A0010047C880FF1F8E
:103D70000148D0F8A4010047C880FF1F0148D0F8CF
:103D8000A8010047C880FF1F0148D0F8AC010047D8
:103D9000C880FF1F0148D0F8B0010047C880FF1F4E
:103DA0000148D0F8B4010047C880FF1F0148D0F88F
:103DB000B8010047C880FF1F0148D0F8BC01004788
:103DC000C880FF1F0148D0F8C0010047C880FF1F0E
:103DD0000148D0F8C4010047C880FF1F0148D0F84F
:103DE000C8010047C880FF1F0148D0F8CC01004738
:103DF000C880FF1F0148D0F8D0010047C880FF1FCE
:103E00000148D0F8D4010047C880FF1F0148D0F80E
:103E1000D8010047C880FF1F0148D0F8DC010047E7
:103E2000C880FF1F0148D0F8E0010047C880FF1F8D
:103E30000148D0F8E4010047C880FF1F0148D0F8CE
:103E4000E8010047C880FF1F0148D0F8EC01004797
:103E5000C880FF1F0148D0F8F0010047C880FF1F4D
:103E60000148D0F8F4010047C880FF1F0148D0F88E
:103E7000F8010047C880FF1F0148D0F8FC01004747
:103E8000C880FF1F70B50125104C01280DD0607946
:103E900020B120210120FEF70FFE40B1202101209A
:103EA000FEF70AFE01280ED00EE06571F1E70A2048
:103EB000FDF724FF0020607120210120FEF7FCFDAA
:103EC00010B9012070BD6571002070BD1880FF1F02
:103ED000C10706D0164940F223120A6043F21022AD
:103EE0000A60810702D51449124A0A61410703D5C5
:103EF000124A4AF2015111801149C20606D5B1F8A1
:103F0000FE234AF208531A43A1F8FE23420606D5BF
:103F1000B1F8FE234AF203531A43A1F8FE23000628
:103F200005D50849772008600649083108607047C0
:103F3000000401400100A5A500800440FC3B0540B1
:103F4000004005400408054010B50446C00702D0F3
:103F5000114900200860A00702D511490F480861E7
:103F6000600703D50F494FF425400880E00603D5CC
:103F70004AF2085000F0D0F9600603D54AF2035027
:103F800000F0CAF9200605D50749762008600649E1
:103F90000831086010BD0000000401400000A5A524
:103FA00000800440FC3B05400408054070B5044611
:103FB0000D466FF00200002A14D02046904720B131
:103FC0004FF4B57109A0FDF75BFE154A946055B139
:103FD0001449096AC1F3026313490968D940B1FB66
:103FE000F5F1D16070BD0021FBE700002E2E2F2ED1
:103FF0002E2F647269766572732F686333325F6C3B
:104000006C5F6472697665722F7372632F686333B5
:10401000325F6C6C5F7574696C6974792E63000033
:104020000080FF1F004005401080FF1F10B50446B0
:10403000FDF7DCFE04492046FDF7D0FABDE810404C
:104040000020FDF711BF00006885FF1F70B5044612
:10405000FCF7F8FD054694F8200088B985B10220E8
:1040600084F82000226832B120461169BDE8704012
:104070001346FDF7C7BFBDE870400DA002F014BAAB
:10408000062813D2DFE800F0120C0C03030C2A46BA
:104090002046216800F0EAF994F82000042805D0B1
:1040A00029462046BDE8704000F04BBA70BD0000C4
:1040B0004D656E752D3E6E6F775F6974656D206915
:1040C00073204E554C4C0A002DE9F04385B0044650
:1040D00090F820000C9D984617460E46042818D1EB
:1040E00004F13C02B4F8CC109146184600F0B2F846
:1040F00024F8CC0F4A466188284600F0ABF880B21D
:104100006080009034F8CC39BAB2B1B22046FDF7E5
:1041100073FEB4F8CC10A8F1020081421FDBB4F8A2
:10412000CE10A81E81421ADB14216846FCF741F923
:1041300020680DA10268684602F0C6F905EBD5704B
:1041400007EB600081B2761DB0B26A4600F048F815
:10415000032084F82000012005B0BDE8F08300F0C2
:1041600067F80020F8E700002573204F4B2100007E
:10417000014803F05BBB0000048DFF1F08B50093EE
:1041800013460A460146024803F05AFB08BD0000E8
:10419000048DFF1F08B5009313460A4601460248E6
:1041A00003F090FB08BD0000048DFF1F08B50093CD
:1041B00013460A460146024803F09DFC08BD000074
:1041C000048DFF1F1CB50C460499CDE90031134640
:1041D00001462246014803F0FAFC1CBD048DFF1F76
:1041E00013460A460146014803F064BD048DFF1FD3
:1041F0001CB50C460499CDE9003113460146224610
:10420000014803F065FD1CBD048DFF1F0148406B94
:1042100070470000048DFF1F014890F83800704778
:10422000048DFF1F01480068007C7047048DFF1F4C
:10423000014803F08CBD0000048DFF1F0178014888
:1042400003F08EBD048DFF1F0146014803F090BDB1
:10425000048DFF1F401A00EE100AB8EEC00A82ED6E
:10426000030AD2ED040A70EE800AC2ED040A92ED50
:10427000051A92ED012A70EE411A92ED001A21EE14
:10428000001A02EE201AD2ED020A82ED050A00EEB3
:10429000A11A00EE901AF8EEE00A70EE810AFDEE27
:1042A000E00A10EE900A70470D4810B5B0F8FE0312
:1042B000800704D440F23F410AA0FDF7E1FC154815
:1042C000017801F0C00141F00F0101701149102087
:1042D0000D3108701E20FDF72DFD002010BD0000DF
:1042E000004005402E2E2F2E2E2F647269766572A7
:1042F000732F686333325F6C6C5F647269766572CA
:104300002F7372632F686333325F6C6C5F707763F7
:104310002E630000024405400449B1F8FE238243A5
:1043200042F42540A1F8FE0370470000004005401C
:1043300030B52DED028B0446006887B080680068B8
:10434000417B02292DD0142102A8FCF732F8206805
:1043500078230C2280680421006890ED068A2020D2
:1043600000902046FDF702FD002868D094F8210057
:1043700003235A221E21082501281CD0022823D0FD
:1043800020689FED310A80680068CDE9003028463A
:104390000623FDF705FF206880680068016851B3B7
:1043A0002BE0816800294AD0406807B0BDEC028B41
:1043B000BDE8304008472068B0EE480A80680068D1
:1043C000CDE90030284607E02068B1EE480A806851
:1043D0000068CDE9003028460623FDF7E1FE20689D
:1043E0008068006881680029D5D0027B012AD2D17B
:1043F00040688847CFE715A101602068806804689D
:10440000607B10B1012813D107E0606812A1226817
:10441000036802A802F058F80AE060680068FCF738
:1044200062F8CDE900010EA102A8226802F04CF862
:104430001921284602AAFFF7D3FEFFF7F9FE07B0BD
:10444000BDEC028B30BD0000000000004E756C6CAE
:10445000206E616D6500000025733A256420000020
:1044600025733A252E3266200000000038B50D0075
:10447000044624D084F82120287906281FD2DFE8BA
:1044800000F01E2D43033A34A8680068807B98B181
:10449000296A2046A1B18847A8680068417B0229A3
:1044A00011D094F82100032809D1206880680068A1
:1044B000816809B1027B72B1052084F8200038BD03
:1044C000FFF736FFE8E74068017811B1002101707D
:1044D000F2E70121FBE740688847EDE7296A61B907
:1044E00094F821000328E7D038BD296A29B920466D
:1044F00001F052FFF4E7296A11B120468847EFE73F
:10450000204601F024FBEBE7296A39B195F82C002D
:1045100020B920468847012085F82C0020200090F3
:1045200078230C2204212046FFF7CEFD08B1FFF7C7
:104530007FFE94F821000028D6D0002085F82C00BA
:10454000BAE770B50D460446002194F82000012812
:1045500070D002281BD005284AD10020A4F8CE0034
:10456000A4F8CC00022084F820000025204604F0A6
:104570009FFA6D1C0146082DF8D32268002A37D017
:1045800020461169BDE870401346FDF73BBD012D83
:1045900005D0022D11D0032D1DD02268F0E722682E
:1045A000002A25D09369002B22D020461169FDF7FF
:1045B00029FD20686060806959E02268002A17D0D0
:1045C000D369002B14D020461169FDF71BFD20682C
:1045D0006060C0694BE0206818B1007948B10628D6
:1045E00029D00121204604F063FA042084F8200039
:1045F00070BD94F82100032802D0022084F8200026
:104600000025204604F054FA6D1C0146082DF8D30D
:10461000226851690029EBD0CB68002BE8D02046F6
:10462000FDF7F0FC2068016948612068606040691E
:10463000C0681CE01DE094F82100032802D002208D
:1046400084F820000025204604F032FA6D1C014653
:10465000082DF8D3226850690028C9D04369204644
:104660001969FDF7CFFC20686060406940692060EF
:1046700070BD2368002BFBD06268002AF8D020466A
:104680001969FDF7BFFC002DF2D0022084F820004C
:104690005AE700000248016841F01F0101607047BD
:1046A000100805402DE9F04117460E4604004FF072
:1046B000000501D0200903D0AA211DA0FDF7E0FAD2
:1046C000072E03D9AB211AA0FDF7DAFA072F03D979
:1046D000AC2117A0FDF7D4FA21480068772803D051
:1046E000AD2113A0FDF7CCFADFF874E04FF0070C12
:1046F000AEF1040E002C18D0E00712D0E800011D26
:1047000006FA00F307FA01F213430CFA00F20CFA6E
:1047100001F00243DEF80000134090430343CEF85B
:10472000003064086D1CEDB2E4E7BDE8F0810000E4
:104730002E2E2F2E2E2F647269766572732F68636A
:1047400033325F6C6C5F6472697665722F7372636B
:104750002F686333325F6C6C5F7372616D2E630020
:10476000040805402DE9FF47844F05460C4638688C
:104770000026009078680190B8680290F86811F0FF
:10478000E06F039012D0C4F3026001280ED002281B
:104790000CD003280AD0042808D0052806D0062803
:1047A00004D040F2C62176A0FDF76AFA14F0700F2B
:1047B00012D0C4F3021001280ED002280CD0032816
:1047C0000AD0042808D0052806D0062804D040F2D4
:1047D000C7216BA0FDF754FA14F4E02F12D0C4F3F4
:1047E000024001280ED002280CD003280AD0042849
:1047F00008D0052806D0062804D04FF4327160A0F6
:10480000FDF73EFA14F4E00F12D0C4F30250012871
:104810000ED002280CD003280AD0042808D005287E
:1048200006D0062804D040F2CA2155A0FDF728FA88
:10483000600712D004F0070001280ED002280CD027
:1048400003280AD0042808D0052806D0062804D05A
:1048500040F2CB214AA0FDF713FA14F4E06F12D016
:10486000C4F3022001280ED002280CD003280AD05D
:10487000042808D0052806D0062804D04FF4337148
:104880003FA0FDF7FDF914F4E04F12D0C4F302305D
:1048900001280ED002280CD003280AD0042808D002
:1048A000052806D0062804D040F2CD2134A0FDF71B
:1048B000E7F93F48054204D140F2CF2130A0FDF78F
:1048C000DFF9DFF8F080B8F8FE03C00704D14FF439
:1048D00034712BA0FDF7D4F998F82600DFF8D890B2
:1048E00000F007004CF2503A052819D1386901262A
:1048F000C00704D140F2D72121A0FDF7C1F92F480C
:104900003860C0127860B860F860D8F82000C0F352
:104910000261D9F80000C840B0FBFAF0FCF7D0F90A
:10492000D8F820102C40A9432143C8F82010D8F80B
:1049300020005546C0F30261D9F800004C46C8403B
:10494000B0FBF5F0FCF7BCF9002E14D000983860ED
:10495000019878600298B8600398F860D8F8200051
:10496000C0F30261206804B0C840B0FBF5F0BDE8B8
:10497000F047FCF7A5B9BDE8FF87000000800440C0
:104980002E2E2F2E2E2F647269766572732F686318
:1049900033325F6C6C5F6472697665722F73726319
:1049A0002F686333325F6C6C5F636C6B2E63000047
:1049B00077777707004005401080FF1F0EFAFFFF52
:1049C0002DE9FF47384E04004FF000053068009095
:1049D00070680190B0680290F06803900ED0012CCE
:1049E0000CD0022C0AD0032C08D0042C06D0052CA5
:1049F00004D040F257212DA0FDF742F9374FB7F808
:104A0000FE03C00704D14FF4167128A0FDF738F952
:104A100097F82600DFF8C88000F007004CF2503904
:104A2000052801D0052C18D130690125C00704D113
:104A30004FF418711DA0FDF723F92A483060C01209
:104A40007060B060F060386AC0F30261D8F80000AE
:104A5000C840B0FBF9F0FCF733F987F82640386A14
:104A60004C46C0F30261D8F80000C840B0FBF4F037
:104A7000FCF726F9002D14D0009830600198706082
:104A80000298B0600398F060386AC0F30261D8F809
:104A9000000004B0C840B0FBF4F0BDE8F047FCF7FC
:104AA0000FB9BDE8FF870000008004402E2E2F2E96
:104AB0002E2F647269766572732F686333325F6C70
:104AC0006C5F6472697665722F7372632F686333EB
:104AD000325F6C6C5F636C6B2E63000000400540BE
:104AE0001080FF1F0EFAFFFF08B5FFF741FB0648D5
:104AF000402300901A4600212020FFF779FBBDE8F3
:104B00000840FFF795BB00007C8F01002DE9F04FB6
:104B100004462DED028B9A464C4816460D460FC8AA
:104B200085B06FF00209DDF844B08DE80F00484809
:104B300084420DD0474884420AD04748844207D077
:104B40004648844204D040F29F2145A0FDF798F8E2
:104B5000BAF1000F73D01098002870D0002D6ED0DD
:104B6000002E6CD0606910F4600410D0B4F5001F02
:104B70000DD0B4F5800F0AD0B4F5C00F07D0B4F54E
:104B8000400F04D040F2A62135A0FDF779F8600D62
:104B90003DF8100006FB00F14900B5FBF1F4641E7E
:104BA000FF2C4CD80021031841EB0107601CA3FB2C
:104BB000002807FB008041F1000C03FB0C03A2FB63
:104BC000060703FB067302FB01310E0246EA10667C
:104BD00007022A46002338463146FBF78DFB803812
:104BE0007F282CD8CAF800401099BBF1000F08604C
:104BF00023D080214118A1FB0504002242F10003CB
:104C000003FB054301FB0235044638463146FBF7FA
:104C10005EFC41EC180B20462946FBF758FC53EC90
:104C2000182BFBF7D8FBFBF771FC00EE100AF7EE30
:104C3000000A30EE600A8BED000A4FF0000905B063
:104C40004846BDEC028BBDE8F08F0000348B0100BC
:104C500000D0014000D40140001002400014024086
:104C60002E2E2F2E2E2F647269766572732F686335
:104C700033325F6C6C5F6472697665722F73726336
:104C80002F686333325F6C6C5F75736172742E636F
:104C9000000000002DE9F04304462DED028B9846FC
:104CA0003E4815460E460FC885B06FF00207DDF886
:104CB00038908DE80F003A4884420DD0394884423C
:104CC0000AD03948844207D03848844204D04FF48F
:104CD000E77137A0FCF7D4FFB8F1000F58D0002ED1
:104CE00056D0002D54D0606910F4600410D0B4F593
:104CF000001F0DD0B4F5800F0AD0B4F5C00F07D057
:104D0000B4F5400F04D040F2D91129A0FCF7B8FF48
:104D1000600D3DF8101006EB8600420005FB01F027
:104D20004000B2FBF0F00A22401DB0FBF2F0401E42
:104D3000FF282DD8C8F80000B9F1000F27D00022B5
:104D4000491842EB0204401CA1FB003C04FB00C0DC
:104D500042F1000701FB0701A3FB050401FB05412C
:104D600003FB0211FBF7B3FB41EC180B3046FBF7DA
:104D7000A1FB53EC182BFBF72EFBFBF7C7FB00EE58
:104D8000100AF7EE000A30EE600A89ED000A0027EB
:104D900005B03846BDEC028BBDE8F083248B0100E2
:104DA00000D0014000D40140001002400014024035
:104DB0002E2E2F2E2E2F647269766572732F6863E4
:104DC00033325F6C6C5F6472697665722F737263E5
:104DD0002F686333325F6C6C5F75736172742E631E
:104DE0000000000030B51B480068C1071A4801D018
:104DF0001A4900E01A491B4A416092F826104FF404
:104E0000004401F007031849062B06D2DFE803F03F
:104E10000304060406084168016030BD046030BD2B
:104E2000D2F80031C3F30825D2F800311C0FD2F8B4
:104E30000031D2F8002103F01F03120600D54168AB
:104E40005B1CB1FBF3F16D1C6943641CB1FBF4F115
:104E5000E2E70000840601401080FF1F0024F400F8
:104E6000002D31010040054000127A00064800B5CF
:104E7000016841F470010160FFF7B4FF02494FF48B
:104E800080308039086000BD88ED00E030B5012138
:104E900087B00846FDF7C4FC01214804FDF74CFC2F
:104EA000684600F067FB4FF480704024CDE90004B1
:104EB0000020029040F2FF30194DADF80C006A4618
:104EC0000021284600F0AEF90120FCF717FF01226F
:104ED0000021284600F060F90120FCF70FFF0122B5
:104EE0000421284600F022FA0120FCF707FFADF864
:104EF00010400820ADF812000A48059004A8FEF7FB
:104F00005DFCBDF9120001F0F3FABDF912000F21AA
:104F100001F008FBBDF9120001F0F7FA07B030BD4F
:104F200000400240294F01000121014800F0C2B8B1
:104F3000004002401FB501210220FDF771FC012154
:104F40004804FDF7F9FB684600F014FB00200090D0
:104F50000190029063200A4CADF80C006A460021D3
:104F6000204600F05FF90120FCF7C8FE0122002175
:104F7000204600F011F90120FCF7C0FE1FBD000023
:104F80000044024010B586B001210220FDF748FC24
:104F900001214804FDF7D0FB684600F0EBFA002041
:104FA00000900190029040F2E7301A4CADF80C00EE
:104FB0006A460121204600F035F90120FCF79EFEEB
:104FC00001221146204600F0E7F80120FCF796FE8A
:104FD00001229104204600F0A9F90120FCF78EFE81
:104FE0004320ADF810000720ADF812000A480590E4
:104FF00004A8FEF7E3FBBDF9120001F079FABDF950
:1050000012000F2101F08EFABDF9120001F07DFAB5
:1050100006B010BD004402401D50010070B5224C86
:10502000642100256069B0FBF1F201FB120159B95E
:105030002169491C2161A169491CA1610A2903D385
:105040001A4A01211170A5614FF47A71B0FBF1F297
:1050500001FB1200E8B9E088401CE0802089401C78
:1050600020816089401C6081A089401CA0816078FB
:10507000C0070BD0E089401CE0810020FBF773FDE6
:10508000E089322805D3E581657002E02078FBF7DE
:105090006AFD60694FF48031401C6061BDE870407A
:1050A000034800F007B800001880FF1F3480FF1F7E
:1050B0000044024070B504460C480D46844207D0B7
:1050C0000B48844204D04FF417710AA0FCF7D8FDB6
:1050D00015B135F0011004D040F25D2105A0FCF7B8
:1050E000CFFD6069A843606170BD000000400240D0
:1050F000004402402E2E5C2E2E5C6472697665722E
:10510000735C686333325F6C6C5F6472697665727E
:105110005C7372635C686333325F6C6C5F746D7276
:10512000302E630070B505460D4800260C468542BA
:1051300007D00C48854204D040F245210AA0FCF774
:105140009FFD14B134F0011004D040F2462106A0B6
:10515000FCF796FD6869204200D00126304670BDFC
:1051600000400240004402402E2E5C2E2E5C6472F1
:1051700069766572735C686333325F6C6C5F64720E
:10518000697665725C7372635C686333325F6C6C02
:105190005F746D72302E630070B504461348164676
:1051A0000D46844207D01248844204D040F2F711E1
:1051B00010A0FCF765FD35B1012D04D04FF4FC7152
:1051C0000CA0FCF75DFD28014FF40055854036B179
:1051D000012E08D040F2F91106A0FCF751FD20691C
:1051E000A843206170BD20692843FAE700400240CF
:1051F000004402402E2E5C2E2E5C6472697665722D
:10520000735C686333325F6C6C5F6472697665727D
:105210005C7372635C686333325F6C6C5F746D7275
:10522000302E63002DE9F04114000E4605464FF084
:1052300000075CD02F48854206D02F48854203D016
:10524000BD212EA0FCF71CFD2EB1012E03D0BE21E6
:105250002AA0FCF715FD206860B1B0F5007F09D0E9
:10526000B0F5807F06D0B0F5A06F03D0BF2123A09A
:10527000FCF706FD6068B8B1102815D0202813D0BF
:10528000302811D040280FD050280DD060280BD0E6
:10529000702809D0802807D0902805D0A02803D0F6
:1052A000C02116A0FCF7ECFCA06838B1A0F50041C5
:1052B000023903D0C12111A0FCF7E2FC05EB860006
:1052C00000210160A18981602B69300148F2F271EF
:1052D00001FA00F29343D4E90026A4683243224342
:1052E0000A40824013432B613846BDE8F0816FF0DD
:1052F0000207F9E700400240004402402E2E5C2ED7
:105300002E5C647269766572735C686333325F6CBD
:105310006C5F6472697665725C7372635C68633338
:10532000325F6C6C5F746D72302E630070B5044632
:10533000124816460D46844207D01148844204D0D4
:1053400040F22B210FA0FCF79BFC15B135F00410A7
:1053500004D04FF40B710BA0FCF792FC4EB1012E60
:1053600004D040F22D2107A0FCF78AFC20692843D5
:1053700001E02069A843206170BD000000400240A8
:10538000004402402E2E5C2E2E5C6472697665729B
:10539000735C686333325F6C6C5F647269766572EC
:1053A0005C7372635C686333325F6C6C5F746D72E4
:1053B000302E630070B505460C4816460C468542F3
:1053C00007D00B48854204D040F2491109A0FCF7F0
:1053D00057FC34B1012C04D04FF4A57105A0FCF7A3
:1053E0004FFC05EB8400866070BD00000040024069
:1053F000004402402E2E5C2E2E5C6472697665722B
:10540000735C686333325F6C6C5F6472697665727B
:105410005C7372635C686333325F6C6C5F746D7273
:10542000302E630070B505460B4816460C46854283
:1054300007D00A48854204D04FF48E7108A0FCF7CB
:105440001FFC34B1012C04D040F21D1104A0FCF764
:1054500017FC45F8246070BD004002400044024043
:105460002E2E5C2E2E5C647269766572735C6863A6
:1054700033325F6C6C5F6472697665725C73726301
:105480005C686333325F6C6C5F746D72302E6300E6
:1054900070B504460C480D46844206D00B48844241
:1054A00003D0F2210AA0FCF7EBFB2DB1012D03D0B4
:1054B000F32107A0FCF7E4FB20692A0101219140B8
:1054C0000843206170BD00000040024000440240DB
:1054D0002E2E5C2E2E5C647269766572735C686336
:1054E00033325F6C6C5F6472697665725C73726391
:1054F0005C686333325F6C6C5F746D72302E630076
:1055000070B504460D480D46844207D00C488442CD
:1055100004D040F205110BA0FCF7B2FB35B1012D10
:1055200004D04FF4837107A0FCF7AAFB20692A017D
:10553000012191408843206170BD0000004002407D
:10554000004402402E2E5C2E2E5C647269766572D9
:10555000735C686333325F6C6C5F6472697665722A
:105560005C7372635C686333325F6C6C5F746D7222
:10557000302E6300002140B1002202604260826050
:105580004FF6FF728281084670476FF00201FAE71A
:10559000F8B504461CA01646006800901B480D464E
:1055A00084420ED01A4884420BD01A48844208D054
:1055B0001948844205D01948844202D018488442D0
:1055C00001D10A2D04D940F2E92116A0FCF758FBBD
:1055D00036B1012E04D040F2EA2112A0FCF750FBB4
:1055E000032D03D21DF80500983405E0ED1E04EBF1
:1055F00085040C2004F58074610101EB800000F14A
:1056000084400660F8BD000000080C000050014016
:105610000054014000580140005C0140006001401E
:10562000006401402E2E5C2E2E5C647269766572D9
:10563000735C686333325F6C6C5F64726976657249
:105640005C7372635C686333325F6C6C5F746D7241
:10565000612E630010B504460D48844213D00D48F6
:10566000844210D00C4884420DD00C4884420AD0A9
:105670000B48844207D00B48844204D04FF44D714C
:1056800009A0FCF7FDFAB4F8800000F0020010BD9C
:10569000005001400054014000580140005C0140AE
:1056A00000600140006401402E2E5C2E2E5C64726E
:1056B00069766572735C686333325F6C6C5F6472C9
:1056C000697665725C7372635C686333325F6C6CBD
:1056D0005F746D72612E630010B504460C488442FD
:1056E00013D00C48844210D00B4884420DD00B4894
:1056F00084420AD00A48844207D00A48844204D02F
:1057000040F27A3108A0FCF7BBFA208810BD0000F7
:10571000005001400054014000580140005C01402D
:1057200000600140006401402E2E5C2E2E5C6472ED
:1057300069766572735C686333325F6C6C5F647248
:10574000697665725C7372635C686333325F6C6C3C
:105750005F746D72612E630070B504461948164679
:105760000D46844213D01848844210D01748844212
:105770000DD0174884420AD01648844207D01648F4
:10578000844204D04FF4297114A0FCF779FA15B1C2
:1057900035F4774004D040F2A52110A0FCF770FA50
:1057A00036B1012E09D040F2A6210CA0FCF768FA10
:1057B00034F8840FA843208070BD34F8840F284348
:1057C000F9E700000050014000540140005801403A
:1057D000005C014000600140006401402E2E5C2E00
:1057E0002E5C647269766572735C686333325F6CD9
:1057F0006C5F6472697665725C7372635C68633354
:10580000325F6C6C5F746D72612E630070B505461B
:105810003E480C466FF00206854213D03C48854254
:1058200010D03C4885420DD03B4885420AD03B48C9
:10583000854207D03A48854204D04FF4877139A099
:10584000FCF71EFA002C29D02078002828D0012847
:1058500007D04FF4887133A0FCF712FA20780028A3
:105860001ED0608830B1400B04D040F21B112DA037
:10587000FCF706FAA08830B1400B04D040F21D11AD
:1058800028A0FCF7FDF96088A5F88800A088A5F895
:105890008C002846A16800F0C7F80026304670BD8D
:1058A000A08830B1042804D040F213111DA0FCF7E9
:1058B000E7F9E08830B1022804D04FF48A7119A0CA
:1058C000FCF7DEF96188C1B1102916D0202914D067
:1058D000302912D0402910D050290ED060290CD088
:1058E00070290AD0802908D0902906D0A02904D098
:1058F00040F215110BA0FCF7C3F9A088E18808431A
:1059000061880843A5F88000C3E70000005001400B
:105910000054014000580140005C0140006001401B
:10592000006401402E2E5C2E2E5C647269766572D6
:10593000735C686333325F6C6C5F64726976657246
:105940005C7372635C686333325F6C6C5F746D723E
:10595000612E6300F8B5044620A01646006800904A
:105960001F480D4684420ED01E4884420BD01E486C
:10597000844208D01D48844205D01D48844202D08C
:105980001C48844201D10A2D04D940F2C6211AA034
:10599000FCF776F9032E04D940F2C72116A0FCF7D4
:1059A0006FF9032D0BD234F8982F1DF80510032042
:1059B00088408E408243064032432280F8BDED1E6F
:1059C00004EB8500B0F80011720321F4C041C2F36A
:1059D000413241EA4231A0F80011F8BD01090D0041
:1059E000005001400054014000580140005C01405B
:1059F00000600140006401402E2E5C2E2E5C64721B
:105A000069766572735C686333325F6C6C5F647275
:105A1000697665725C7372635C686333325F6C6C69
:105A20005F746D72612E630070B504460C480D46BC
:105A3000844213D00B48844210D00B4884420DD0CE
:105A40000A4884420AD00A48844207D0094884425E
:105A500004D040F2473108A0FCF712F9A58070BDD0
:105A6000005001400054014000580140005C0140DA
:105A700000600140006401402E2E5C2E2E5C64729A
:105A800069766572735C686333325F6C6C5F6472F5
:105A9000697665725C7372635C686333325F6C6CE9
:105AA0005F746D72612E630010B504460E48844227
:105AB00013D00E48844210D00D4884420DD00D48BA
:105AC00084420AD00C48844207D00C48844204D057
:105AD00040F25F410AA0FCF7D3F834F8800F40F0A1
