:020000040001F9
:1000000058A0FF1F95020100C5020100ED0201008A
:10001000C9020100CB020100CD0201000000000076
:10002000000000000000000000000000CF020100FE
:10003000D102010000000000D3020100D50201003E
:10004000F53E0100013F01000D3F0100193F010095
:10005000253F0100313F01003D3F0100493F0100C4
:10006000553F0100613F01006D3F0100793F0100F4
:10007000853F0100913F01009D3F0100A93F010024
:10008000B53F0100C13F0100CD3F0100D93F010054
:10009000E53F0100F13F0100FD3F01000940010083
:1000A00015400100214001002D40010039400100B0
:1000B00045400100514001005D40010069400100E0
:1000C00075400100814001008D4001009940010010
:1000D000A5400100B1400100BD400100C940010040
:1000E000D5400100E1400100ED400100F940010070
:1000F00005410100114101001D410100294101009C
:1001000035410100414101004D41010059410100CB
:1001100065410100714101007D41010089410100FB
:1001200095410100A1410100AD410100B94101002B
:10013000C5410100D1410100DD410100E94101005B
:10014000F5410100014201000D4201001942010088
:1001500025420100314201003D42010049420100B7
:1001600055420100614201006D42010079420100E7
:1001700085420100914201009D420100A942010017
:10018000B5420100C1420100CD420100D942010047
:10019000E5420100F1420100FD4201000943010076
:1001A00015430100214301002D43010039430100A3
:1001B00045430100514301005D43010069430100D3
:1001C00075430100814301008D4301009943010003
:1001D000A5430100B1430100BD430100C943010033
:1001E000D5430100E1430100ED430100F943010063
:1001F00005440100114401001D440100294401008F
:1002000035440100414401004D44010059440100BE
:1002100065440100714401007D44010089440100EE
:1002200095440100A1440100AD440100B94401001E
:10023000C5440100D1440100DD440100E94401004E
:10024000D7020100D7020100D7020100D702010046
:10025000D7020100D7020100D7020100D702010036
:10026000D7020100D7020100D7020100D702010026
:10027000D7020100D7020100D7020100D702010016
:10028000DFF80CD000F070FB00480047B109010016
:1002900058A0FF1F10484FF0770101600F484FF042
:1002A000770101600E484FF4885101600A484FF011
:1002B0007601016009484FF07601016009488047E6
:1002C00009480047FEE7FEE7FEE7FEE7FEE7FEE738
:1002D000FEE7FEE7FEE7FEE7040805400C080540E0
:1002E0000008054069550100810201007046694619
:1002F00007F092F9FFF7FEFF2DE9F05F05460020B9
:1003000092469B4688460646814640241BE0284686
:1003100041464746224600F02FF853465A46C01A37
:10032000914110D311461846224600F016F82D1AB6
:1003300067EB01084F4622460120002100F00DF82E
:1003400017EB00094E41201EA4F10104DFDC4846F2
:1003500031462A464346BDE8F09F202A04DB203A76
:1003600000FA02F1002070479140C2F1200320FA08
:1003700003F3194390407047202A04DB203A21FA06
:1003800002F00021704721FA02F3D040C2F12002AE
:1003900091400843194670470649074A0868504388
:1003A00043F2390210440860400870470149086070
:1003B00070470000BC80FF1F6D4EC64140EA01033C
:1003C0009B0703D009E008C9121F08C0042AFAD20B
:1003D00003E011F8013B00F8013B521EF9D27047CF
:1003E000D2B201E000F8012B491EFBD27047002277
:1003F000F6E710B513460A4604461946FFF7F0FF24
:10040000204610BD421C10F8011B0029FBD1801AA8
:1004100070472DE9F04D81EA030404F0004B21F010
:10042000004514464FF0000A23F0004150EA05024F
:1004300020D054EA01021DD0C5F30A570246C5F385
:100440001303C1F31300C1F30A5640F4801543F4BB
:100450008013A7EB0608101BD64608F2FD3873EB95
:10046000050002D308F1010801E092185B41B8F1E0
:10047000000F03DA00200146BDE8F08D00204FF4A4
:100480008011064684460EE0171B73EB050705D363
:10049000121B63EB050306434CEA010C49084FEAC3
:1004A000300092185B4150EA0107EDD152EA030097
:1004B00012D082EA040083EA0501084305D0101B2C
:1004C000AB4106D20122002306E000224FF0004398
:1004D00002E06FF0010253101AEB06004CEB0851DA
:1004E00010EB0A0041EB0B01BDE8F04D00F095B8B0
:1004F0000EB540F2334102910021CDE900110A46C8
:100500000B4600F099F803B000BD0EB540F233423F
:1005100002920022CDE90022134600F08DF803B0CC
:1005200000BD00F0004230F000400AD0C10D01F5DE
:100530006071C0F3160042EA0151C208400711433E
:10054000704700200146704701F0004330B421F0AD
:10055000004150EA010206D00A0DA2F56072C1F313
:100560001301002A02DC30BC00207047440F44EA2B
:10057000C104C100E01830BC00EBC25000F016B856
:1005800030B50B46014600202022012409E021FA63
:1005900002F59D4205D303FA02F5491B04FA02F560
:1005A0002844151EA2F10102F1DC30BD0029A8BFCC
:1005B0007047401C490008BF20F00100704710B48C
:1005C000B0FA80FC00FA0CF050EA010404BF10BC41
:1005D000704749B1CCF1200421FA04F411FA0CF16E
:1005E00018BF012121430843A3EB0C01CB1D4FEAA7
:1005F00000614FEA102042BF002010BC704700EBA2
:10060000C35010440029A4BF10BC7047401C4900CF
:1006100008BF20F0010010BC704710B5141E73F124
:10062000000408DA401C41F1000192185B411A43B2
:1006300001D120F0010010BD2DE9F04D92469B46FE
:1006400011B1B1FA81F202E0B0FA80F220329046A4
:10065000FFF783FE04460F4640EA0A0041EA0B0119
:1006600053465A46084313D0114653EA010019D0A5
:10067000C8F140025046FFF77FFE05460E46504641
:1006800059464246FFF769FE084305D0012004E0C1
:1006900020463946BDE8F08D0020054346EAE07665
:1006A0002C4337430A986305E40AA0EB08000022B4
:1006B000FD0A44EA47540A3002D500200146E9E722
:1006C000010510196941DDE9084500196941BDE8D6
:1006D000F04DA2E72DE9FE4F804681EA0300C00FEE
:1006E0000C46009021F0004123F00045B8EB0200D9
:1006F000A94105D24046214690461C460B4602467B
:1007000023F00040104347D0270DC7F30A00C3F37E
:100710000A510290401A019040286BDAC3F313008B
:1007200040F4801B0098924620B10023D2EB030ACC
:1007300063EB0B0B01985946C0F140025046FFF79E
:100740000CFE06460D4650465946019A00F01EF929
:1007500010EB08006141002487EA115284EAE77334
:100760001A4340D0009A62B3019A012A4FEA075215
:1007700015DC001B61EB02014FF0004202EA075258
:10078000CDE90042001C41F5801132462B46FFF7AF
:1007900053FF03B0BDE8F08F40462146F9E7001B48
:1007A00061EB0201001C41F5801300185B41201829
:1007B000A2F5001747EB030140EAD570B6196D4169
:1007C00011E06D084FEA360645EAC0754FEA075258
:1007D000001B61EB0201001C41F5801149084FEA42
:1007E00030000019514132462B4603B0BDE8F04FAE
:1007F000FFF713BF0098012240000023D0EB020254
:1008000063EBE073009821464FEAE074B8EB000018
:1008100061EB0401E9E783F000435BE781F000410D
:1008200058E72DE9FE4F81EA030404F0004421F06B
:10083000004100944FF0000B23F0004350EA010404
:100840005ED052EA03045BD0C3F30A54C1F30A55E5
:100850002C44A4F2F3340194A0FB0254C1F313011D
:1008600041F48011C3F3130343F4801301FB0244EA
:1008700000FB034E840A970A44EA815447EA8357EF
:10088000A4FB076802958D0A05FB07854FEA932CA8
:1008900004FB0C542705029D4FEA065847EA163719
:1008A000B5EB08056EEB070C870E920E47EA811731
:1008B00042EA8312A7FB0201B6EB0B0164EB0004D2
:1008C0002B0D43EA0C335E1844EB1C50DA465146BC
:1008D000E7FB0201C5F313044FEA0B3343EA145359
:1008E0004FEA0432019C43EA0603A4F10C0402948B
:1008F000009CCDE900B4FFF79FFE03B0BDE8F08F88
:1009000000200146F9E7C1F30A52C1F3130140F296
:10091000FF3341F480119A4202DA00200146704709
:1009200040F233439A42A2F2334202DC5242FFF7D2
:1009300023BDFFF712BD000030B5041E71F10004A5
:1009400004DB4FF00044404264EB0101141E73F1DC
:10095000000405DB1C464FF00043524263EB0403E6
:10096000994208BF904230BD064C074D06E0E06852
:1009700040F0010394E8070098471034AC42F6D3E6
:10098000FFF782FC8CCE0100ACCE0100202A06DBF2
:10099000CB17203A41FA02F043EAE07306E041FA4D
:1009A00002F3D040C2F1200291400843194670473B
:1009B00010B504F095FD07F065F9002010BD0000AA
:1009C0002DE9F0411C4606AB93E8600160B15CB1D3
:1009D00055B10027A7840C23E38420602171226392
:1009E0002979012905D00BE0BDE8F04115A005F0FB
:1009F000E7BF2AB919492163014619A005F0E0FFB4
:100A00002561C4E907780EB1B46000E02E46666146
:100A1000E86880B12869A0612869C4612C61A8696F
:100A2000401CA861E060D5E90301C861D5E9030174
:100A30008161BDE8F081A461EC60AF6138462C6152
:100A4000F0E70000496E76616C6964207061726144
:100A50006D657465722873290A00000004B70100EF
:100A60002573203A20496D616765206973206E7592
:100A70006C6C210A0000000008600020C86008615A
:100A80000A710120487170471FB50122032105201A
:100A900002F0ACF8684600F0BBFB02A800F0AAFA2E
:100AA0002149224800F0BEFA00248DF8024030208F
:100AB0008DF8010005208DF804008DF8004068468F
:100AC00000F026FB3121204661F3102000F1805018
:100AD00020F0706000F1807020F4700000F580104C
:100AE00020F0800003908DF8084002A800F09EF9E5
:100AF000202000F019F90128FAD100221146042023
:100B000004F02CF9012211460B2004F027F95020A3
:100B100001F000FF4FF4404002F08AFA03F028FF92
:100B2000052000F086FA1FBD1022110077777707A5
:100B300000B585B0684602F0B9FA0220ADF80200AF
:100B40006A460121002002F09DF86A460221002039
:100B500002F098F86A460821012002F093F805B0E7
:100B600000BD10B50446C00703D00121002002F0EB
:100B700025FAA00703D50221002002F01FFA600722
:100B800005D50821BDE81040012002F017BA10BDBC
:100B900010B50446C0074FF001014FF0000002D02D
:100BA00002F076F901E002F009FAA0074FF0020125
:100BB0004FF0000002D502F06BF901E002F0FEF9FF
:100BC00060074FF008014FF0010003D5BDE8104069
:100BD00002F05EB9BDE8104002F0F0B910B504466D
:100BE000C00703D00121002002F072FAA00703D54C
:100BF0000221002002F06CFA600705D50821BDE84B
:100C00001040012002F064BA10BD00002DE9F04749
:100C10008CB05FEA010A6FF0020434D02422042170
:100C2000052002F06FF90121C80601F01DFF68469A
:100C300005F0F4FD4FF40040154E07900022694680
:100C4000304605F01DFDDFF84C90134F00254FF0A6
:100C5000FF382946304605F0CBFC0BAA51463046FA
:100C600005F0D0FB04000AD10B98484507D8B842DC
:100C700005DC01220821304605F070FB03E06D1C05
:100C80004446032DE5D90CB02046BDE8F0870000AE
:100C900000140240CDCCCCBCCDCCCC3C2DE9F041F5
:100CA0001B4F384604F070FF0446002003F022FC7E
:100CB000184D002628B16C602E706E700320BDE8C0
:100CC000F0816868844206D0384604F01BFFC1B248
:100CD000022904D019B12E706E700020EFE76878F9
:100CE00081420ED12878401CC0B228700228F4D36B
:100CF000A9702E706C60022907D00029EDD1012067
:100D0000DDE7012028706970E7E70220D7E70000DF
:100D1000006001406880FF1F08B5002100918142FA
:100D200001D2491CFAE708BD10B5040002D034F026
:100D3000690004D040F2BB5104A001F003F80F4851
:100D400090F83C00204000D0012010BD2E2E2F2E08
:100D50002E2F647269766572732F686333325F6C0D
:100D60006C5F6472697665722F7372632F68633388
:100D7000325F6C6C5F636C6B2E630000004005405B
:100D800070B505004FF0000406D0012D04D040F2EC
:100D90000E5119A000F0D6FF234EB6F8FE03C0078F
:100DA00004D140F20F5114A000F0CCFF45B1D6F8A9
:100DB00000014FF48055000629460ED408200DE0AE
:100DC00096F8260000F00700052803D0012086F8D9
:100DD0002A000EE06FF005040BE0012000F030F96E
:100DE000040006D186F82A002946202000F028F9C0
:100DF0000446204670BD00002E2E2F2E2E2F64722A
:100E000069766572732F686333325F6C6C5F6472EE
:100E1000697665722F7372632F686333325F6C6C0F
:100E20005F636C6B2E630000004005402DE9F041CC
:100E3000040026D0207900F01F00172804D94FF4B1
:100E40009C6158A000F07EFF6068C0F30820133852
:100E5000B0F5E67F04D940F2E14152A000F072FF04
:100E600060684FF0FF3101EB10700E2804D940F29A
:100E7000E2414CA000F066FF6168080605D45548C1
:100E800005E06FF00200BDE8F0815348006801F012
:100E90001F02521CB0FBF2F0C1F308256D1C4F4934
:100EA000454308444E49884204D94FF49D613DA012
:100EB00000F048FF4B484B4928444942884204D936
:100EC00040F2E94137A000F03DFF6068012101EBED
:100ED0001070B5FBF0F0444E444F3044B84204D992
:100EE00040F2EA412FA000F02DFF6068C0F30360DC
:100EF000401E0E2804D940F2EB412AA000F022FF48
:100F00006068C0F30350401E0E2804D940F2EC4143
:100F100024A000F017FF6068C0F30350401CB5FB2D
:100F2000F0F03044B84204D940F2ED411DA000F089
:100F300009FF6068C0F30360401CB5FBF0F030446B
:100F4000B84204D940F2EE4116A000F0FBFE207832
:100F5000012805D020B140F2EF4112A000F0F2FECE
:100F6000234DB5F8FE03C00704D14FF49E610DA0D8
:100F700000F0E8FED5F80001217920F08000C1F3EF
:100F8000C01140EAC110C5F800016068C5F8000151
:100F9000207820B10020BDE8F041FFF7F1BE01202C
:100FA000F9E700002E2E2F2E2E2F647269766572BF
:100FB000732F686333325F6C6C5F6472697665723D
:100FC0002F7372632F686333325F6C6C5F636C6B7B
:100FD0002E63000000127A001480FF1FC0BDF0FFD6
:100FE00000366E0100E4B1F1401E1BFF403A690D6E
:100FF00000400540002190B10022132363F310222A
:1010000002F1805222F0706202F1807222F47002CA
:1010100002F58012426001220270084670476FF0AC
:101020000201FAE710B503F0F9FEBDE8104004F044
:1010300057BA10B504F020F8BDE8104004F050BADB
:10104000F8B5064600200D466FF00704009007E053
:101050003046FFF769FE012806D00098401C00903A
:10106000A842F5D92046F8BD0024FBE770B505007D
:101070004FF0000406D0012D04D040F2CB3117A070
:1010800000F060FE214EB6F8FE03C00704D14FF415
:10109000737112A000F056FE55B1002086F83200A0
:1010A0004FF480510820FFF7CBFF0446204670BD67
:1010B00096F826006FF0050100F0070003280BD01A
:1010C000D6F8000102064FF0010002D496F82A205B
:1010D00012B186F83200E9E70C46E7E72E2E2F2EF4
:1010E0002E2F647269766572732F686333325F6C7A
:1010F0006C5F6472697665722F7372632F686333F5
:10110000325F6C6C5F636C6B2E63000000400540C7
:1011100070B5040045D02078012805D020B140F2F8
:10112000A9312DA000F00EFE607850B1102808D033
:10113000202806D0302804D040F2AA3126A000F0A2
:1011400001FEA07830B1402804D040F2AB3122A09B
:1011500000F0F8FDE078802805D020B14FF46B71E5
:101160001DA000F0EFFD2079012814D0022812D034
:10117000032810D004280ED005280CD006280AD049
:10118000072808D0082806D0092804D040F2AD313D
:1011900011A000F0D7FD1C4DB5F8FE03C00708D123
:1011A00002E06FF0020070BD40F2AE310AA000F024
:1011B000C9FD207985F8A200E07861780843A1781C
:1011C000084312490870207820B10020BDE8704023
:1011D000FFF74CBF0120F9E72E2E2F2E2E2F647221
:1011E00069766572732F686333325F6C6C5F64720B
:1011F000697665722F7372632F686333325F6C6C2C
:101200005F636C6B2E630000004005401044054096
:10121000002150B1012202700022827042708022AF
:10122000C27005220271084670476FF00201FAE7AA
:1012300070B516460446186912691D46904227D0BB
:10124000307968B106280AD154F84C0B4169496AD3
:10125000A1674169896A61674069C06AE06770BDDA
:10126000D4F8C40054F84C1B0969486254F84C1C6B
:10127000606F0969886254F84C1CE06F0969C862A4
:10128000B5F92400A067B3F926000C38606770BD7B
:101290000879D8B10128FAD1B5F92400C4F8C400FE
:1012A0006169802292FBF1F24A43511A814201DBCB
:1012B0000028ECDAF068D968401A012801D0401CF7
:1012C000E5D1B6F92400C4F8C40070BD3068FFF75A
:1012D00099F800EB4000042101EB4000C4F8B40091
:1012E000B5F9260040220C38C4F8C000216992FBF1
:1012F000F1F24A43511A814201DB0028E5DAF06835
:10130000E968401A012801D0401CDED1B6F9260058
:101310000C38C4F8C00070BD2DE9F04F0C794FF0C7
:1013200000094FF0010A4FF00C0B24B1012C3CD105
:101330004C79E4B36FE04C7954BBD3F80C80D2F80D
:101340000CC04027A8EB0C060469002E0EDD97FBAD
:10135000F4FC8D69A5EB0C0CB44504DA97FBF4F6AC
:10136000AD1B6D1C6C43C5692C1B0EE097FBF4F69E
:101370008D69ACEB080CAE1B664504DA97FBF4F6FE
:10138000AD1B6D1C6C43C5692C44C46181F805A07C
:1013900019691469A14208D015794DB1062D04D1FF
:1013A000096AC1611969C9698161BDE8F08F07E007
:1013B0008169E1611269C1691162C0E9069BF4E7C4
:1013C000D3F80C80D2F80CC08027A8EB0C06446937
:1013D000002E0EDD97FBF4FC8D69A5EB0C0CB445DB
:1013E00004DA97FBF4F6AD1B6D1C6C4385692C1B6E
:1013F0000EE097FBF4F68D69ACEB080CAE1B66456E
:1014000004DA97FBF4F6AD1B6D1C6C4385692C4424
:10141000846181F805A019691469A142C5D01579C4
:10142000002DC5D0062DC0D1C96981611969096A2D
:10143000C161BAE72DE9F05F0C462DED028B9946AC
:10144000DDE90CBA384915466FF0020888420DD024
:10145000364988420AD03649884207D03549884201
:1014600004D04FF4167134A000F06CFCB9F1000FF9
:1014700055D0BBF1000F52D0F4B3EDB3A800B4FBCC
:10148000F0F0461E801EFE2849D80022701C42F152
:1014900000018B0043EA90738100A1FB050703FB69
:1014A000057301FB02310D0245EA10650702224671
:1014B000002338462946FEF71FFF80387F282ED8A4
:1014C000C9F80060CBF80000BAF1000F25D08021E8
:1014D0004118A1FB0406002242F1000303FB046350
:1014E00001FB0234064638462946FFF70EF841EC68
:1014F000180B3046214600E011E0FFF706F853ECE8
:10150000182BFEF786FFFFF71FF800EE100AF7EE24
:10151000000A30EE600A8AED000A4FF00008BDECC8
:10152000028B4046BDE8F09F00D0014000D401404E
:1015300000100240001402402E2E2F2E2E2F647217
:1015400069766572732F686333325F6C6C5F6472A7
:10155000697665722F7372632F686333325F6C6CC8
:101560005F75736172742E63000000002DE9F04115
:101570000C462DED028B1E462949089F90466FF0C0
:10158000020588420DD0274988420AD02649884260
:1015900007D02649884204D040F29511244800F033
:1015A000D1FB4046B6B3ACB3A0B304EB8401490011
:1015B0008200B1FBF2F10A22491DB1FBF2F2511E89
:1015C000921EFE2A26D831601FB30023491C43F126
:1015D0000002950045EA91758900A1FB002605FBF4
:1015E000086001FB03011046FEF78FFF41EC180B6A
:1015F0002046FEF77DFF53EC182BFEF70AFFFEF79F
:10160000A3FF00EE100AF7EE000A30EE600A87ED45
:10161000000A0025BDEC028B2846BDE8F0810000E1
:1016200000D0014000D401400010024000140240EC
:10163000B465010070B50D46044600F059F800F09D
:1016400003FB00F077FB1020206127206061002061
:1016500025600C216560C4E9060184F8200084F847
:1016600021009FED1C1A20739FED1B0A84ED091ABF
:10167000DFED1A0A84ED0A0AC4ED0B0AF6EE001A31
:10168000C4ED0F1A84ED100A84ED110AC4ED151A89
:10169000DFED131AC4ED161ADFED121AC4ED171A96
:1016A000F5EE001AC4ED211A84ED220AC4ED230AD6
:1016B000DFED0D0AC4ED270ADFED0C0A84ED280AE0
:1016C000C4ED290A84ED1B1A84ED1C0AC4ED1D0A21
:1016D00070BD00003333B33E000000008FC2F53C04
:1016E000CDCC4C3E7B142E3E6666E63ECDCCCC3D4A
:1016F0002DE9FE430122EA49EAA0FFF7BDF9E84DD2
:10170000EB4800240095CDE9014005F5A873224679
:101710000121E4A0FFF754F905F130060095E54FEB
:10172000CDE9016405F522730021E3A07A68FFF793
:1017300047F900223146E2A0FFF79EF90096CDE975
:10174000015405F5C27300220621DDA0FFF738F928
:10175000DD480096CDE9014005F57D7300220221A8
:10176000DAA0FFF72DF9DB480096CDE9014005F539
:10177000637300220221D8A0FFF722F9D84800960F
:10178000CDE9014005F5707300220221D5A0FFF7D5
:1017900017F930360095CDE9016405F53C73002159
:1017A000D2A0BA68FFF70CF900223146C4A0FFF7B7
:1017B00063F90096CDE9015405F5F6730022062180
:1017C000BFA0FFF7FDF8CDE9006405F5C663002270
:1017D0000221CAA00294FFF7F3F8CDE9006405F2F4
:1017E000646300220221C7A00294FFF7E9F8CDE963
:1017F000006405F5D36300220221C4A00294FFF720
:10180000DFF8CDE9006405F2CC6300220221C2A01A
:101810000294FFF7D5F8CDE9006405F5E0630022F6
:101820000221BFA00294FFF7CBF8CDE9006405F2D6
:10183000347300220221BCA00294FFF7C1F83036B5
:101840000095CDE9016405F52F730021B8A0FA6871
:10185000FFF7B6F80022314699A0FFF70DF9009680
:10186000CDE9015405F5DC730022062194A0FFF7B1
:10187000A7F8CDE9006405F5ED6300220321AEA0D1
:101880000294FFF79DF8CDE9006405F29C730022F5
:101890000321ADA00294FFF793F8CDE9006405F5AC
:1018A000FA6300220321ABA00294FFF789F8CDE987
:1018B000006405F6040300220321AAA00294FFF7A6
:1018C0007FF830360095CDE9016405F549730021B4
:1018D000A6A0FA69FFF774F80022314678A0FFF756
:1018E000CBF80096CDE9015405F5087300220621D6
:1018F00073A0FFF765F89F480096CDE9014005F514
:101900008563002202219CA0FFF75AF805F5907824
:101910000096CDE90184002205F25C43114699A0AE
:10192000FFF74EF80022414665A0FFF7A5F8CDF875
:101930000080CDE9016405F592630022062160A0D4
:10194000FFF73EF89249CDF80080CDE9014105F25C
:10195000C443002202218FA0FFF732F89049CDF84E
:101960000080CDE9014105F59F63002202218DA091
:10197000FFF726F88D49CDF80080CDE9014105F249
:101980002C53002202218AA0FFF71AF88A49CDF8C9
:101990000080CDE9014105F5AC630022022187A05A
:1019A000FFF70EF888480096CDE9014005F2945300
:1019B0000022022185A0FFF703F887480096CDE9B1
:1019C000014005F5B9630022022184A0FEF7F8FF6B
:1019D00085480096CDE9014005F2FC530022022122
:1019E00082A0FEF7EDFF30360095CDE9016405F5E4
:1019F000567300217FA03A69FEF7E2FF00223146CC
:101A00002FA0FFF739F80096CDE9015405F51573BD
:101A1000002206212AA0FEF7D3FF79480096CDE9DF
:101A2000014005F638030022022176A0FEF7C8FF28
:101A300076480096CDE9014005F66C0300220221AC
:101A400073A0FEF7BDFF74480096CDE9014005F58F
:101A50000A630022022171A0FEF7B2FF71480096CE
:101A6000CDE9014005F6D403002202216EA0FEF765
:101A7000A7FFCDE90054029405F6081302216CA0DB
:101A80007A69FEF79DFFCDE90054029405F63C13F8
:101A9000022169A0BA69FEF793FFBDE8FE8300004A
:101AA0000C84FF1F5B486F6D65506167655D0000CA
:101AB000A15101004080FF1F202B496E70757400FA
:101AC0005B4261636B5D00006D730100202D564722
:101AD000410000001D730100202D524742530000B9
:101AE00045730100202D524753420000202B5669B8
:101AF00064656F466F726D6174000000202D417542
:101B0000746F0000202D4E5453430000202D4E547E
:101B10005343343433000000202D50414C0000006A
:101B2000202D50414C5F4D00202D534543414D0029
:101B3000202B436F6C6F7200202D427269676874AE
:101B40006E65737300000000202D436F6E74726128
:101B500073740000202D53617475726174696F6E27
:101B600000000000202D487565730000202B54658F
:101B700073740000ED720100202D436869704944C0
:101B800000000000202B534F47204D6F646500007C
:101B9000F9740100202D4E6F726D616C0000000021
:101BA000B1740100202D466F726365003975010024
:101BB000202D526561640000AD740100202D436149
:101BC0006C69627261746500E5720100202D4153F9
:101BD0005720537465700000E9720100202D4153B5
:101BE000572052657365740091730100202D4F5486
:101BF00041000000202B4F757450757400000000E8
:101C00001D740100202D3438305000004D74010047
:101C1000202D3732305000007D740100202D3936E0
:101C200030500000ED730100202D3130383050006D
:101C3000202D536176650000202D4C6F6164446552
:101C40006661756C740000002DE9F0412F48304E3C
:101C500000242DED028B2AA18460C0E90016012525
:101C60000573447385736427C0E90474B7EE008A72
:101C7000311D80ED068A086000F5FB6000F05BF81E
:101C8000224824A11C308460C0E900160573447307
:101C90008573C0E9047406F10C0180ED068A0860C2
:101CA00000F5FE6000F047F818481DA13830846048
:101CB000C0E90016057344738573C0E9047406F126
:101CC000140180ED068A086000F6080000F033F881
:101CD0000E4816A154308460C0E9001605734473A1
:101CE0008573C0E9047406F11C0180ED068A086062
:101CF00000F50260BDEC028BBDE8F04100F01BB8BE
:101D00004272696768746E65737300009C83FF1F7D
:101D10007080FF1F436F6E74726173740000000067
:101D200053617475726174696F6E000048756573F4
:101D3000000000007047002802D0002900D0816018
:101D4000704700000A46014601A004F039FEFEE794
:101D500057726F6E6720706172616D657465727322
:101D60002076616C75653A2066696C652025732064
:101D70006F6E206C696E652025640D0A00000000FE
:101D800018B50E4A00210091D36804469268C81E17
:101D9000002A0FD0009805E0106800F0800100983C
:101DA000401C0090984202D80029F5D000E011B103
:101DB0005460002018BD6FF0070018BD0080FF1FA1
:101DC0000B4908B5096AC1F302620A490968D140A2
:101DD00042F20F721144521CB1FBF2F304E0009383
:101DE00000994A1E0092FBD2401EF8D208BD0000A6
:101DF000004005401080FF1F0A4908B5096AC1F379
:101E0000026209490968D140084A1144521CB1FBD9
:101E1000F2F304E0009300994A1E0092FBD2401EA8
:101E2000F8D208BD004005401080FF1F7F96980043
:101E30002DE9F843044690F82000089E1D461746F9
:101E40008846042819D104F13C02B4F8CC1091461C
:101E5000184602F063FD24F8CC0F4A4661883046EC
:101E600002F05CFD80B26080009034F8CC39BAB2E8
:101E70001FFA88F1204600F021F8B4F8CC00A91E22
:101E8000884210DBAD1CA8420DDCB4F8CE00B11EB8
:101E9000884208DBB61CB04205DC032084F8200031
:101EA0000120BDE8F88302F027FD0020F9E70000DB
:101EB000014807F069BB0000FC8DFF1F2DE9F843C6
:101EC0000446007B984680F001008DF8000015461E
:101ED0000E46089F684602F015FD3B4642462946DD
:101EE000304602F0AFFC9DF8000080F001008DF854
:101EF0000000684602F006FDB4F8CE006D1C801E9E
:101F000083B2B4F8CC00761C801E82B2A9B2B0B203
:101F100002F098FC9DF8000080F001008DF80000B0
:101F2000684602F0EFFCBDE8F883000010B502F04F
:101F300083FC0D4802F0ECFC0CA20C21002002F006
:101F4000B3FC0DA21821002002F0AEFC10A2242147
:101F5000002002F0A9FC12A23C21322002F0A4FCD5
:101F6000BDE8104002F0C8BC90B901004D756C741A
:101F70004D656E7500000000417574686F723A5AC5
:101F800068616E674A69616E46656E6700000000B1
:101F90005761697420627574746F6E2E2E2E000066
:101FA00056657273696F6E3A322E312E370000001B
:101FB0002DE9FC41984613460F46CC68054642463B
:101FC000194600F04BF828680169D8F810008142E2
:101FD00009D00020014603E02185E469401C80B25D
:101FE000BA698242F8DA002617E0B4F92810B4F989
:101FF000240005F1840202F091FC00B220851E301D
:10200000BC2807D8206B00901E23208D1A460C2177
:1020100002F052FCE469761CB6B2B869B042E4DA68
:102020003E210020D8F8002002F03EFC02208DF86E
:10203000040001A802F066FC05F19C02D5F8BC1072
:10204000D5F8C40002F06AFCC5F8BC0080B20223D7
:102050001E222F2102F002FCBDE8FC8110B50446CF
:1020600010699FED181A90ED060AB8EEC00AC1EE8D
:10207000000A92ED030A04F12402B8EEC00A20EE31
:10208000800ABCEEC00A10EE100A80B2A4F8D60096
:10209000B4F8D41002F042FC24F8D40F02238022BA
:1020A0001946002002F0E6FB00212288062308469C
:1020B00002F0C8FB20886188884201D1012010BD50
:1020C000002010BD00000043F8B504461D46174629
:1020D0000E46624802F01CFC02F0AEFB94F82000B1
:1020E000022828D128693969884202D001207071FC
:1020F00021E03079002110B101281CD10FE02069C6
:10210000402292FBF0F24243131AB5F92600A0F1E7
:102110000C02934201DB0C380BE071710BE060693B
:10212000802292FBF0F24243121AB5F92400824257
:10213000F3DB0028F1DB2868FEF764F900EB4000D0
:102140004000C4F8C800207B8DF80000684602F00B
:10215000D9FB002140238022084602F073FB9DF842
:10216000000080F001008DF80000684602F0CAFB14
:1021700094F820003A462B46022826D131462046C4
:10218000FFF7CAF80020F16812E0327912B1012A93
:102190000BD105E02369E26900FB0322CA8404E055
:1021A000D4E9053200FB03228A84C969401C80B24D
:1021B000B2698242E9DA94F82000022805D12B4660
:1021C0003A4631462046FFF733F8307910B10128FE
:1021D00032D03CE028699FED221A04F1240290EDF0
:1021E000060AB8EEC00AC1EE000A95ED030AB8EE81
:1021F000C00A20EE800ABCEEC00A10EE100A80B2BF
:10220000A4F8D200B4F8D01002F088FBA4F8D000F3
:10221000792240230021104602F02CFBB4F8D03084
:1022200006220021762002F00DFB2B463A4631466D
:10223000204600F0DDF80AE02A4639462046FFF73E
:102240000DFF2B463A4631462046FFF7B1FE02F01D
:1022500053FB012084F82000F8BD000090B9010074
:10226000000080422DE9F04305462DED028B81B040
:102270001F460B98002389468DF800301446417B99
:102280000126921FF1EE081A00297CD0012978D18D
:1022900090ED041A4168B8EEC11AD1ED000AF4EECF
:1022A000C10AF1EE10FA6CD890ED051AB8EEC11A19
:1022B000F4EEC10AF1EE10FA63DB30EE800A81ED34
:1022C000000AD0ED040A4168B8EEE01AB4EEC10A83
:1022D000F1EE10FA03DDB8EEE00A81ED000A90EDB0
:1022E000050A4168B8EEC01AD1ED000AF4EEC10A41
:1022F000F1EE10FA03D2B8EEC00A81ED000AD0F870
:1023000014C0416800EE10CAD1ED000AB8EEC00A50
:1023100030EEC00ABDEEC00A10EE101A002900DA35
:102320004942514300EE101A00698DF80030F8EE72
:10233000C00AA0EB0C0000EE100A6846B8EEC01A06
:1023400080EE810A30EE218A02F0DCFABCEEC88A07
:102350003B46494618EE100A201A82B218EE100ABF
:10236000284480B202F06EFA8DF80060684602F0F0
:10237000C9FA18EE100A3B46494682B2284602F0D6
:1023800061FA01B000E003E0BDEC028BBDE8F08330
:10239000D0F804C0D0F81080DCF800104145F0DC23
:1023A000D0F814804145ECDB00EE901AF8EEE00A1C
:1023B00030EE800ABDEEC00A10EE101ACCF8001004
:1023C000D0F810C0D0F80480614501DDC8F800C025
:1023D000D0F804C04169DCF80080884501DACCF807
:1023E00000104168D0F814C00968A1EB0C0195E712
:1023F000F0B5054600680F46CC680069196987B0DA
:10240000884209D00020014603E06185E469401C50
:1024100080B2BA698242F8DA002659E0B4F92A108B
:10242000B4F9260005F16C0202F078FA00B260857A
:102430000C30582849D8618DA08C226802F034FAFB
:102440002079032841D114216846FDF7D0FFA06808
:102450000168487B20B1012809D002282ED113E061
:10246000486831A10268684604F0BAFA26E0486874
:102470000068FEF756F841EC100B2CA153EC102B22
:10248000684604F0ADFA19E0608D0C230C3881B277
:10249000A08C1A465F3080B202F0E0F9A0680068B4
:1024A00040680078012809D1608D08230A3881B27C
:1024B000A08C1A46613080B202F0C4F9A08C618D04
:1024C0005C3080B26A4602F0EFF9E469761CB6B27D
:1024D000B869B042A2DA02208DF8140005A802F013
:1024E00011FA05F154021446D5F8B810D5F8C00019
:1024F00002F014FAC5F8B800D5F8B410D5F8C80041
:1025000022467C3502F00AFA0421A86382B20091C7
:10251000A88F0C23401C81B235F8640C401C80B29B
:1025200002F0B4F907B0F0BD25640000252E326634
:102530000000000010B504460C480068012804D0D3
:102540004FF4F4710AA0FFF7FDFB40F23F1034EAAC
:10255000000004D040F2E91105A0FFF7F3FB0348A7
:10256000143001682143016010BD000000040140E7
:102570002E2E2F2E2E2F647269766572732F68634C
:1025800033325F6C6C5F6472697665722F7372634D
:102590002F686333325F6C6C5F65666D2E6300007D
:1025A00010B5040006D0012C04D040F2BB3103A0CA
:1025B000FFF7C8FB0D48C0F8804110BD2E2E2F2E0E
:1025C0002E2F647269766572732F686333325F6C85
:1025D0006C5F6472697665722F7372632F68633300
:1025E000325F6C6C5F65666D2E6300000080204278
:1025F00010B5044640F23F1034EA000004D04FF416
:10260000ED7105A0FFF79EFB0F480068844301D0E1
:10261000002010BD012010BD2E2E2F2E2E2F6472F3
:1026200069766572732F686333325F6C6C5F6472B6
:10263000697665722F7372632F686333325F6C6CD7
:102640005F65666D2E630000100401402DE9F84FB0
:102650000446594816460D4600684FF00008970892
:1026600002F00309012804D04FF40E7153A0FFF7C4
:1026700069FB5E48D0F88001012804D040F239217E
:102680004EA0FFF75FFB4FF4002A4FF47F7B5445C9
:102690000CD357496018584508D3564960181F286D
:1026A00004D940F23A2145A0FFF74CFBA019411E86
:1026B00051450ED34E49491E0144594509D34D4950
:1026C000491E08441F2804D940F23B213BA0FFF7D4
:1026D00039FBA00704D04FF40F7138A0FFF732FB8D
:1026E000002640F23F10FFF725FF3348083001680D
:1026F000414A114000910168D24311400160001D20
:10270000016821F0700141F0100101604FF4807AFE
:102710004FF0100B18E001CD01C43848006AC0F337
:10272000026137480068C84044F62061B0FBF1F10F
:102730000AFA06F000F044F9083001D16FF00408FD
:102740000BFA06F0FFF7F6FE7F1EE4D2B9F1000F98
:102750001ED04FEAC9024FF0FF3128689140014373
:1027600026482160006AC0F3026125480068C8401D
:1027700044F62061B0FBF1F10AFA06F000F020F90E
:10278000083001D16FF004080BFA06F0FFF7D2FE13
:1027900009480C30016821F070010160001F0168D8
:1027A000154A154BD2431140009A1A40114301605B
:1027B0004046BDE8F88F0000000401402E2E2F2E69
:1027C0002E2F647269766572732F686333325F6C83
:1027D0006C5F6472697665722F7372632F686333FE
:1027E000325F6C6C5F65666D2E6300000080204276
:1027F00000F4FFFC2000E8FC00000101004005405F
:102800001080FF1F2DE9F04700270446B0F5002F88
:1028100004D340F247312EA0FFF794FAA00704D06A
:102820004FF452712AA0FFF78DFA3548006801284D
:1028300004D040F24A3126A0FFF784FA3148D0F89C
:102840008001012804D040F24B3121A0FFF77AFA31
:1028500040F23F10FFF76EFE294D08352E68DFF875
:10286000A8A0286806EA0A066FEA0A0900EA090031
:10287000286005F10408D8F8001021F0700141F03B
:102880004001C8F80010002020602048006AC0F312
:1028900002611F480068C8403221B0FBF1F1A81561
:1028A00000F08EF8083000D1471F1020FFF742FEDD
:1028B000D8F8001021F07001C8F80010286806EA66
:1028C0000A0600EA0900304328603846BDE8F08770
:1028D0002E2E2F2E2E2F647269766572732F6863E9
:1028E00033325F6C6C5F6472697665722F737263EA
:1028F0002F686333325F6C6C5F65666D2E6300001A
:102900000004014000802042000001010040054019
:102910001080FF1F2DE9F04105461A480024006889
:10292000012804D04FF4897117A0FFF70BFAF02D9E
:1029300004D940F2131114A0FFF704FA114B083325
:10294000186805F0F00120F0F000084318601B48FB
:10295000194E44F6206102680DE0306AC0F3026748
:1029600022FA07F0B0FBF1F0641CA04203D26FF032
:102970000700BDE8F081186800F0F000A842ECD133
:102980000020F6E7000401402E2E2F2E2E2F647219
:1029900069766572732F686333325F6C6C5F647243
:1029A000697665722F7372632F686333325F6C6C64
:1029B0005F65666D2E630000004005401080FF1FBC
:1029C000F8B5064600200D460446009007E0009A40
:1029D000521C0092AA4202D96FF0070404E030466C
:1029E000FFF706FE0128F2D12046F8BD70B50D466E
:1029F000040002D00E48044203D071210DA0FFF75D
:102A0000A1F92DB1012D03D072210AA0FFF79AF987
:102A1000144E3069C00703D1732106A0FFF792F965
:102A20003068012D02D02043306070BDA043FBE729
:102A3000EE3A0C702E2E5C2E2E5C647269766572F6
:102A4000735C686333325F6C6C5F64726976657265
:102A50005C7372635C686333325F6C6C5F66636780
:102A60002E6300000080044070B50D46040002D0C3
:102A70000A48044203D0842109A0FFF763F9144EE9
:102A80002DB1012D07D0852105A0FFF75BF97068F6
:102A90002043706070BD7068A043FAE78602F0F0D2
:102AA0002E2E5C2E2E5C647269766572735C686390
:102AB00033325F6C6C5F6472697665725C737263EB
:102AC0005C686333325F6C6C5F6663672E63000023
:102AD0000080044070B50D46040002D00A4804424C
:102AE00003D0962109A0FFF72DF9144E2DB1012D29
:102AF00007D0972105A0FFF725F9B0682043B06003
:102B000070BDB068A043FAE70078F8FF2E2E5C2E67
:102B10002E5C647269766572735C686333325F6CD5
:102B20006C5F6472697665725C7372635C68633350
:102B3000325F6C6C5F6663672E6300000080044048
:102B400070B50646B0F5002F02D36FF0020070BDDD
:102B500029B14D0BC80400D06D1C00240CE0BDE869
:102B60007040FFF74FBE06EB4430FFF74BFE10B14D
:102B70004FF0FF3070BD641CAC42F4D3002070BD38
:102B800030B521B11AB18318B3F5002F02D96FF017
:102B9000020030BD830702D06FF0060030BD9408FC
:102BA00002F00303002202E020C8521C20C1A2420E
:102BB000FAD343B1002204E010F8014B01F8014BB5
:102BC000521C9A42F8D3002030BD21B11AB18318AB
:102BD000B3F5002F02D96FF002007047830702D0CF
:102BE0006FF006007047FFF731BD000070B5154665
:102BF0000C4606000ED0012E0CD0022E0AD0032E59
:102C000008D0042E06D0052E04D04FF41E7110A05B
:102C1000FFF798F824B940F279210DA0FFF792F858
:102C20000021174BB201E00708D002EB81001844E5
:102C3000012D068809D0C6F30E060680640803D06D
:102C4000491CC9B21029EED370BD46F40046F4E722
:102C50002E2E2F2E2E2F647269766572732F686365
:102C600033325F6C6C5F6472697665722F73726366
:102C70002F686333325F6C6C5F6770696F2E63001F
:102C8000003C05402DE9F04114000E4605464FF08A
:102C9000000704D053480088C00707D102E06FF056
:102CA00002079BE0FF2150A0FFF74CF875B1012D02
:102CB0000CD0022D0AD0032D08D0042D06D0052DEE
:102CC00004D04FF4807148A0FFF73CF826B940F2D9
:102CD000011145A0FFF736F8208830B1012804D053
:102CE0004FF4817140A0FFF72DF8608830B10228C1
:102CF00004D040F203113CA0FFF724F8A08830B1C3
:102D0000042804D04FF4827137A0FFF71BF8E08845
:102D100040B1102806D0202804D040F2051132A07E
:102D2000FFF710F8208938B1B0F5804F04D04FF488
:102D300083712DA0FFF706F8608930B1402804D0D8
:102D400040F2071128A0FEF7FDFFA08938B1B0F5C9
:102D5000007F04D04FF4847123A0FEF7F3FFE089D5
:102D600038B1B0F5805F04D040F209111EA0FEF723
:102D7000E9FF208A38B1B0F5004F04D04FF48571D7
:102D800019A0FEF7DFFF00204FF0010E0EFA00F150
:102D900031421FD021886288E3881143A2884DF216
:102DA000772C1A43114362890E4B1143A2891143B8
:102DB000E289114322891143228A0A43A90101EBC6
:102DC00080011B1D19440B8802EA0C0223EA0C0344
:102DD00013430B80401CC0B21028D7D33846BDE83F
:102DE000F0810000FC3B05402E2E2F2E2E2F64720A
:102DF00069766572732F686333325F6C6C5F6472DF
:102E0000697665722F7372632F686333325F6C6CFF
:102E10005F6770696F2E630070B50D4604000ED0B9
:102E2000012C0CD0022C0AD0032C08D0042C06D084
:102E3000052C04D040F2F11108A0FEF783FF25B95C
:102E40004FF4F97105A0FEF77DFF104901EB041066
:102E5000B0F80008284000D0012070BD2E2E2F2E83
:102E60002E2F647269766572732F686333325F6CDC
:102E70006C5F6472697665722F7372632F68633357
:102E8000325F6C6C5F6770696F2E630000300540C5
:102E900070B50D4604000ED0012C0CD0022C0AD0C7
:102EA000032C08D0042C06D0052C04D040F23D2180
:102EB00007A0FEF747FF25B940F23E2104A0FEF728
:102EC00041FF0F4800EB041001882943018070BDC9
:102ED0002E2E2F2E2E2F647269766572732F6863E3
:102EE00033325F6C6C5F6472697665722F737263E4
:102EF0002F686333325F6C6C5F6770696F2E63009D
:102F00000A3805402DE9F04115460E4604000ED062
:102F1000012C0CD0022C0AD0032C08D0042C06D093
:102F2000052C04D040F2771117A0FEF70BFF26B94D
:102F30004FF4BC7114A0FEF705FF0F2D08D9A5F1C1
:102F400020001B2804D940F279110FA0FEF7FAFEE9
:102F500019480088C00704D14FF4BD710AA0FEF7DC
:102F6000F1FEA201144C00230127A41D07FA03F16E
:102F7000314202D002EB830005535B1CDBB2102B05
:102F8000F4D3BDE8F08100002E2E2F2E2E2F647278
:102F900069766572732F686333325F6C6C5F64723D
:102FA000697665722F7372632F686333325F6C6C5E
:102FB0005F6770696F2E6300FC3B054070B50D467E
:102FC00004000ED0012C0CD0022C0AD0032C08D007
:102FD000042C06D0052C04D040F22B2107A0FEF7CC
:102FE000B1FE25B94FF40B7104A0FEF7ABFE0F48FC
:102FF00000EB041001882943018070BD2E2E2F2E76
:103000002E2F647269766572732F686333325F6C3A
:103010006C5F6472697665722F7372632F686333B5
:10302000325F6C6C5F6770696F2E63000838054013
:1030300010B504000DD0B4F5804F0AD0B4F5004FA0
:1030400007D0B4F5404F04D040F2CD110AA0FEF7EE
:1030500079FE15480088C00704D14FF4E77106A037
:10306000FEF770FE1048001F018804F44042C1F3CF
:103070000D011143018010BD2E2E2F2E2E2F6472B4
:1030800069766572732F686333325F6C6C5F64724C
:10309000697665722F7372632F686333325F6C6C6D
:1030A0005F6770696F2E6300FC3B0540002258B1DA
:1030B000002101804180C1800182018141818181A3
:1030C000C1818180104670476FF00202FAE700006C
:1030D00070B50D4604000ED0012C0CD0022C0AD085
:1030E000032C08D0042C06D0052C04D04FF4187102
:1030F00007A0FEF727FE25B940F2612104A0FEF7E4
:1031000021FE0F4800EB041001882943018070BDA7
:103110002E2E2F2E2E2F647269766572732F6863A0
:1031200033325F6C6C5F6472697665722F737263A1
:103130002F686333325F6C6C5F6770696F2E63005A
:103140000C38054070B504460F480D4684420AD03D
:103150000E48844207D00E48844204D04FF43C719C
:103160000CA0FEF7EFFD3DB1B5F5806F04D040F245
:10317000F12108A0FEF7E6FD206805F4806120F447
:1031800080600843206070BD00E0044000E404401B
:1031900000E804402E2E5C2E2E5C64726976657207
:1031A000735C686333325F6C6C5F647269766572FE
:1031B0005C7372635C686333325F6C6C5F6932634B
:1031C0002E6300002DE9F0474FF0000491460D00FA
:1031D000064627464FF002089FED590A6FF0020A93
:1031E00039D0B9F1000F36D0564886420AD0564839
:1031F000864207D05548864204D04FF4887154A0C7
:10320000FEF7A0FD686810B15D49884204D940F21C
:1032100011114FA0FEF796FD2868072804D94FF436
:1032200089714BA0FEF78EFD5648006A5649C0F3DF
:1032300002302A680968D5ED020AC140012095EDE7
:10324000011A336B9040DB0603D5336B03F00307A1
:103250007F1C32B107E05446B9F1000F6AD0E4B3E5
:1032600068E04FF00308C8B300EE101AB8EE412A28
:10327000F8EE600AB8EE400AC0EE021A00EE100A3C
:10328000B8EE402A81EE820A01EE908AB0EE002A62
:10329000F8EE611A61EE822A01EE907AF8EE611A78
:1032A00041EE822A32EEA02AFCEEC00A70EE421AEB
:1032B000F8EE602A30EE620A10EE103AB8EE600ABC
:1032C000B3F17C5F03DBF7EE000A30EE200AB4EEC8
:1032D000C20AF1EE10FA30D901E029E02DE011EE3A
:1032E000903A2A4DAB4228DCBCEEC00AF8EE410A07
:1032F00010EE103AB1FBF3F1B1FBF0F000EE100A62
:103300001104B8EE400A70EEC00A00EE100AB8EEE2
:10331000401A80EE810AFCEEE10A10EE900A41EAC2
:10332000500110EE900AA0EB500041EA0020F0623C
:1033300089ED000A2046BDE8F0875446FAE7000010
:103340000000000000E0044000E4044000E8044005
:103350002E2E5C2E2E5C647269766572735C6863D7
:1033600033325F6C6C5F6472697665725C73726332
:103370005C686333325F6C6C5F6932632E6300009C
:10338000801A0600004005401080FF1F00007842B0
:1033900070B504460F480D4684420AD00E48844258
:1033A00007D00E48844204D040F2FB110CA0FEF777
:1033B000C9FC35B1012D09D04FF4FE7108A0FEF70C
:1033C000C1FCE06820F48060E06070BDE06840F41B
:1033D0008060F9E700E0044000E4044000E80440B5
:1033E0002E2E5C2E2E5C647269766572735C686347
:1033F00033325F6C6C5F6472697665725C737263A2
:103400005C686333325F6C6C5F6932632E6300000B
:1034100070B504460C480D4684420AD00B488442DD
:1034200007D00B48844204D040F29A2109A0FEF74D
:1034300089FC15B11348054204D040F29B2105A038
:10344000FEF780FC256270BD00E0044000E404400B
:1034500000E804402E2E5C2E2E5C64726976657244
:10346000735C686333325F6C6C5F6472697665723B
:103470005C7372635C686333325F6C6C5F69326388
:103480002E63000020AD0FFF70B504460D480D46B9
:1034900084420AD00C48844207D00C48844204D0AD
:1034A00040F2D5110AA0FEF74DFC35B1012D04D034
:1034B0004FF4EB7106A0FEF745FC206865F30000B1
:1034C000206070BD00E0044000E4044000E80440D7
:1034D0002E2E5C2E2E5C647269766572735C686356
:1034E00033325F6C6C5F6472697665725C737263B1
:1034F0005C686333325F6C6C5F6932632E6300001B
:1035000010B504460B4884420AD00B48844207D0C9
:103510000A48844204D040F2651109A0FEF712FC6B
:10352000206820F001002060206840F40040206006
:1035300010BD000000E0044000E4044000E8044046
:103540002E2E5C2E2E5C647269766572735C6863E5
:1035500033325F6C6C5F6472697665725C73726340
:103560005C686333325F6C6C5F6932632E630000AA
:1035700010B504460848844209D00848844206D061
:103580000748844203D0C42106A0FEF7DBFB206875
:1035900040F48070206010BD00E0044000E404406E
:1035A00000E804402E2E5C2E2E5C647269766572F3
:1035B000735C686333325F6C6C5F647269766572EA
:1035C0005C7372635C686333325F6C6C5F69326337
:1035D0002E63000010B504460848844209D008480C
:1035E000844206D00748844203D0DE2106A0FEF7BD
:1035F000A9FB206840F40070206010BD00E004408A
:1036000000E4044000E804402E2E5C2E2E5C647220
:1036100069766572735C686333325F6C6C5F647289
:10362000697665725C7372635C686333325F6C6C7D
:103630005F6932632E63000070B504460E480D4684
:1036400084420AD00D48844207D00D48844204D0F9
:103650004FF41F710BA0FEF775FB15B1154805421D
:1036600004D040F27D2107A0FEF76CFBE069284002
:1036700000D0012070BD000000E0044000E40440E0
:1036800000E804402E2E5C2E2E5C64726976657212
:10369000735C686333325F6C6C5F64726976657209
:1036A0005C7372635C686333325F6C6C5F69326356
:1036B0002E63000020A908FF70B516460D000446D1
:1036C0003DD0204884420AD01F48844207D01F487A
:1036D000844204D04FF4C8711DA0FEF733FB686824
:1036E00010B12749884204D940F2911118A0FEF781
:1036F00029FB2868072804D94FF4C97114A0FEF7E4
:1037000021FB206820F001002060206840F4004088
:103710002060206840F001002060324629462046A3
:10372000FFF750FD216821F040012160216821F45C
:1037300000412160216821F00101216070BD6FF01E
:10374000020070BD00E0044000E4044000E80440D2
:103750002E2E5C2E2E5C647269766572735C6863D3
:1037600033325F6C6C5F6472697665725C7372632E
:103770005C686333325F6C6C5F6932632E63000098
:10378000801A06002DE9FF5F89462D49002715465E
:10379000804688420AD02B49884507D02A49884567
:1037A00004D040F29B4129A0FEF7CCFAB9F1000FFA
:1037B00040D0D8F80800002400F0800A4FF4806B55
:1037C0006E1E30E0012240214046039B00F0A6FA25
:1037D0000746BAF1000F02D0B44207D104E0022D2F
:1037E00008D3A81E844205D1594600E00021404676
:1037F000FFF7A8FCCFB9B44206D110214046FFF72D
:1038000007FE4046FFF7E6FE404600F0B7F809F82D
:103810000400B44206D1012210214046039B00F06F
:103820007DFA0746641CAC42CCD300214046FFF72A
:1038300089FC01E06FF0020704B03846BDE8F09F54
:1038400000E0044000E4044000E804402E2E5C2E1A
:103850002E5C647269766572735C686333325F6C88
:103860006C5F6472697665725C7372635C68633303
:10387000325F6C6C5F6932632E6300002DE9F047A4
:103880001F4D894607469846164601212846FFF7F0
:10389000FBFD0121284600F0A3F80021284600F096
:1038A0009FF84146284600F0D7F804001CD1012EAD
:1038B00003D129152846FFF745FC79084346012224
:1038C000284600F065F904460A20FEF795FA34B957
:1038D0004346324649462846FFF754FF0446002136
:1038E0002846FFF72FFC1CB14146284600F0FAF8A5
:1038F00000212846FFF7C8FD2046BDE8F0870000FC
:1039000000E004402DE9F0471B4D894607461E465E
:10391000904601212846FFF7B7FD0121284600F017
:103920005FF80021284600F05BF83146284600F099
:1039300093F8040011D1790833460022284600F09C
:1039400027F904460A20FEF757FA34B933464246AF
:103950004946284600F084F904463146284600F0DE
:10396000C1F800212846FFF78FFD0A20FEF744FA30
:103970002046BDE8F087000000E0044010B5044692
:10398000084884420AD00848844207D00748844245
:1039900004D040F2E12106A0FEF7D4F994F8280003
:1039A00010BD000000E0044000E4044000E80440D2
:1039B0002E2E5C2E2E5C647269766572735C686371
:1039C00033325F6C6C5F6472697665725C737263CC
:1039D0005C686333325F6C6C5F6932632E63000036
:1039E00070B504460D480D4684420AD00C48844206
:1039F00007D00C48844204D040F2AA210AA0FEF766
:103A0000A1F935B1012D04D040F2AB2106A0FEF79B
:103A100099F9206865F3CF30206070BD00E0044064
:103A200000E4044000E804402E2E5C2E2E5C6472FC
:103A300069766572735C686333325F6C6C5F647265
:103A4000697665725C7372635C686333325F6C6C59
:103A50005F6932632E63000070B5044611480D465D
:103A600084420AD01048844207D01048844204D0CF
:103A700040F266310EA0FEF765F92B4600224FF4A6
:103A80000031204600F04AF900280AD12046FFF70D
:103A90006FFD2B462046BDE870400122104900F022
:103AA0003DB970BD00E0044000E4044000E804407B
:103AB0002E2E5C2E2E5C647269766572735C686370
:103AC00033325F6C6C5F6472697665725C737263CB
:103AD0005C686333325F6C6C5F6932632E63000035
:103AE0000100020070B5054613480C46854210D00F
:103AF000124885420DD0124885420AD040F2E64174
:103B000010A0FEF71FF904E010212846FFF780FC03
:103B1000641E10212846FFF78FFD012801D1002CDB
:103B2000F2D12846FFF756FD23462846BDE87040EF
:103B30000122102100F0F2B800E0044000E404404B
:103B400000E804402E2E5C2E2E5C6472697665724D
:103B5000735C686333325F6C6C5F64726976657244
:103B60005C7372635C686333325F6C6C5F69326391
:103B70002E630000002138B14CF250324260002226
:103B800082600260084670476FF00201FAE70000A9
:103B90002DE9F04106462348984615460F468642D1
:103BA0000AD02148864207D02048864204D04FF4EC
:103BB00068711FA0FEF7C6F835B1012D04D040F2A0
:103BC000A1311BA0FEF7BEF87F2F04D940F2A2312D
:103BD00017A0FEF7B7F8434601228021304600F0D7
:103BE0009DF804001BD1780645EA1061304600F0CC
:103BF000EBF8434645B100224FF48021304600F0F7
:103C00008DF8040003D00AE001220821F6E74FF402
:103C100080513046FFF710FD012800D1841E204658
:103C2000BDE8F08100E0044000E4044000E8044006
:103C30002E2E5C2E2E5C647269766572735C6863EE
:103C400033325F6C6C5F6472697665725C73726349
:103C50005C686333325F6C6C5F6932632E630000B3
:103C60002DE9F843054600241D48994617460E469F
:103C7000009485420AD01B48854207D01A488542E5
:103C800004D040F2254119A0FEF75CF81EB34FF4B2
:103C900080580098B84220D0FCB94B4601228021C0
:103CA000284600F03BF80400F3D10098315C284628
:103CB00000F08AF84B4601220821284600F02EF831
:103CC000044641462846FFF7B7FC012805D0009876
:103CD000401C0090DDE76FF002042046BDE8F88349
:103CE00000E0044000E4044000E804402E2E5C2E76
:103CF0002E5C647269766572735C686333325F6CE4
:103D00006C5F6472697665725C7372635C6863335E
:103D1000325F6C6C5F6932632E6300002DE9F04105
:103D2000074619481E4614460D466FF0070887429D
:103D300009D01648874206D01548874203D0A321F0
:103D400014A0FDF7FFFF15B11E48054203D0A421C2
:103D500010A0FDF7F7FF2CB1012C03D0A5210DA079
:103D6000FDF7F0FFF8692840012C01D1854208D009
:103D7000204306D0B8F1000004D0002E02D0761EF9
:103D8000F0E70020BDE8F08100E0044000E40440DA
:103D900000E804402E2E5C2E2E5C647269766572FB
:103DA000735C686333325F6C6C5F647269766572F2
:103DB0005C7372635C686333325F6C6C5F6932633F
:103DC0002E63000020A908FF70B5044608480D4680
:103DD00084420AD00748844207D00748844204D06E
:103DE00040F2D32105A0FDF7ADFF84F8245070BD4B
:103DF00000E0044000E4044000E804402E2E5C2E65
:103E00002E5C647269766572735C686333325F6CD2
:103E10006C5F6472697665725C7372635C6863334D
:103E2000325F6C6C5F6932632E6300002DE9F041F4
:103E300004004FF000056FF0020619D02088B0F59D
:103E4000007F03D3C3211AA0FDF77CFF228850090D
:103E500000EB4001202000EB4103B4F90200834253
:103E600004D8252303EB4101814203D2202801D34A
:103E700035461AE01C4901EB80010E681B4F1C4BB4
:103E8000B7EBC65F06D10A60B4F90210606843F868
:103E900021000AE00968C1F308018A4203D1616880
:103EA00043F8201001E06FF001052846BDE8F081DD
:103EB0002E2E2F2E2E2F647269766572732F6863F3
:103EC00033325F6C6C5F6472697665722F737263F4
:103ED0002F686333325F6C6C5F696E7465727275E4
:103EE0007074732E630000005C100540000080FFBA
:103EF000C480FF1F0148006800470000C480FF1F06
:103F00000148406800470000C480FF1F01488068E6
:103F100000470000C480FF1F0148C0680047000040
:103F2000C480FF1F0148006900470000C480FF1FD4
:103F30000148406900470000C480FF1F01488069B4
:103F400000470000C480FF1F0148C069004700000F
:103F5000C480FF1F0148006A00470000C480FF1FA3
:103F60000148406A00470000C480FF1F0148806A82
:103F700000470000C480FF1F0148C06A00470000DE
:103F8000C480FF1F0148006B00470000C480FF1F72
:103F90000148406B00470000C480FF1F0148806B50
:103FA00000470000C480FF1F0148C06B00470000AD
:103FB000C480FF1F0148006C00470000C480FF1F41
:103FC0000148406C00470000C480FF1F0148806C1E
:103FD00000470000C480FF1F0148C06C004700007C
:103FE000C480FF1F0148006D00470000C480FF1F10
:103FF0000148406D00470000C480FF1F0148806DEC
:1040000000470000C480FF1F0148C06D004700004A
:10401000C480FF1F0148006E00470000C480FF1FDE
:104020000148406E00470000C480FF1F0148806EB9
:1040300000470000C480FF1F0148C06E0047000019
:10404000C480FF1F0148006F00470000C480FF1FAD
:104050000148406F00470000C480FF1F0148806F87
:1040600000470000C480FF1F0148C06F00470000E8
:10407000C480FF1F0148D0F880000047C480FF1FA4
:104080000148D0F884000047C480FF1F0148D0F8E1
:1040900088000047C480FF1F0148D0F88C0000470B
:1040A000C480FF1F0148D0F890000047C480FF1F64
:1040B0000148D0F894000047C480FF1F0148D0F8A1
:1040C00098000047C480FF1F0148D0F89C000047BB
:1040D000C480FF1F0148D0F8A0000047C480FF1F24
:1040E0000148D0F8A4000047C480FF1F0148D0F861
:1040F000A8000047C480FF1F0148D0F8AC0000476B
:10410000C480FF1F0148D0F8B0000047C480FF1FE3
:104110000148D0F8B4000047C480FF1F0148D0F820
:10412000B8000047C480FF1F0148D0F8BC0000471A
:10413000C480FF1F0148D0F8C0000047C480FF1FA3
:104140000148D0F8C4000047C480FF1F0148D0F8E0
:10415000C8000047C480FF1F0148D0F8CC000047CA
:10416000C480FF1F0148D0F8D0000047C480FF1F63
:104170000148D0F8D4000047C480FF1F0148D0F8A0
:10418000D8000047C480FF1F0148D0F8DC0000477A
:10419000C480FF1F0148D0F8E0000047C480FF1F23
:1041A0000148D0F8E4000047C480FF1F0148D0F860
:1041B000E8000047C480FF1F0148D0F8EC0000472A
:1041C000C480FF1F0148D0F8F0000047C480FF1FE3
:1041D0000148D0F8F4000047C480FF1F0148D0F820
:1041E000F8000047C480FF1F0148D0F8FC000047DA
:1041F000C480FF1F0148D0F800010047C480FF1FA2
:104200000148D0F804010047C480FF1F0148D0F8DE
:1042100008010047C480FF1F0148D0F80C01004787
:10422000C480FF1F0148D0F810010047C480FF1F61
:104230000148D0F814010047C480FF1F0148D0F89E
:1042400018010047C480FF1F0148D0F81C01004737
:10425000C480FF1F0148D0F820010047C480FF1F21
:104260000148D0F824010047C480FF1F0148D0F85E
:1042700028010047C480FF1F0148D0F82C010047E7
:10428000C480FF1F0148D0F830010047C480FF1FE1
:104290000148D0F834010047C480FF1F0148D0F81E
:1042A00038010047C480FF1F0148D0F83C01004797
:1042B000C480FF1F0148D0F840010047C480FF1FA1
:1042C0000148D0F844010047C480FF1F0148D0F8DE
:1042D00048010047C480FF1F0148D0F84C01004747
:1042E000C480FF1F0148D0F850010047C480FF1F61
:1042F0000148D0F854010047C480FF1F0148D0F89E
:1043000058010047C480FF1F0148D0F85C010047F6
:10431000C480FF1F0148D0F860010047C480FF1F20
:104320000148D0F864010047C480FF1F0148D0F85D
:1043300068010047C480FF1F0148D0F86C010047A6
:10434000C480FF1F0148D0F870010047C480FF1FE0
:104350000148D0F874010047C480FF1F0148D0F81D
:1043600078010047C480FF1F0148D0F87C01004756
:10437000C480FF1F0148D0F880010047C480FF1FA0
:104380000148D0F884010047C480FF1F0148D0F8DD
:1043900088010047C480FF1F0148D0F88C01004706
:1043A000C480FF1F0148D0F890010047C480FF1F60
:1043B0000148D0F894010047C480FF1F0148D0F89D
:1043C00098010047C480FF1F0148D0F89C010047B6
:1043D000C480FF1F0148D0F8A0010047C480FF1F20
:1043E0000148D0F8A4010047C480FF1F0148D0F85D
:1043F000A8010047C480FF1F0148D0F8AC01004766
:10440000C480FF1F0148D0F8B0010047C480FF1FDF
:104410000148D0F8B4010047C480FF1F0148D0F81C
:10442000B8010047C480FF1F0148D0F8BC01004715
:10443000C480FF1F0148D0F8C0010047C480FF1F9F
:104440000148D0F8C4010047C480FF1F0148D0F8DC
:10445000C8010047C480FF1F0148D0F8CC010047C5
:10446000C480FF1F0148D0F8D0010047C480FF1F5F
:104470000148D0F8D4010047C480FF1F0148D0F89C
:10448000D8010047C480FF1F0148D0F8DC01004775
:10449000C480FF1F0148D0F8E0010047C480FF1F1F
:1044A0000148D0F8E4010047C480FF1F0148D0F85C
:1044B000E8010047C480FF1F0148D0F8EC01004725
:1044C000C480FF1F0148D0F8F0010047C480FF1FDF
:1044D0000148D0F8F4010047C480FF1F0148D0F81C
:1044E000F8010047C480FF1F0148D0F8FC010047D5
:1044F000C480FF1F70B50125104C01280DD0A07895
:1045000020B120210120FEF787FC40B120210120AD
:10451000FEF782FC01280ED00EE0A570F1E70A201C
:10452000FDF74EFC0020A07020210120FEF774FC56
:1045300010B9012070BDA570002070BD1880FF1F4C
:10454000C10706D0164940F223120A6043F2102236
:104550000A60810702D51449124A0A61410703D54E
:10456000124A4AF2015111801149C20606D5B1F82A
:10457000FE234AF208531A43A1F8FE23420606D549
:10458000B1F8FE234AF203531A43A1F8FE230006B2
:1045900005D508497720086006490831086070474A
:1045A000000401400100A5A500800440FC3B05403B
:1045B000004005400408054010B50446C00702D07D
:1045C000114900200860A00702D511490F48086171
:1045D000600703D50F494FF425400880E00603D556
:1045E0004AF2085000F0FCF9600603D54AF2035085
:1045F00000F0F6F9200605D507497620086006493F
:104600000831086010BD0000000401400000A5A5AD
:1046100000800440FC3B05400408054070B504469A
:104620000D466FF00200002A14D02046904720B1BA
:104630004FF4B57109A0FDF785FB154A946055B19B
:104640001449096AC1F3026313490968D940B1FBEF
:10465000F5F1D16070BD0021FBE700002E2E2F2E5A
:104660002E2F647269766572732F686333325F6CC4
:104670006C5F6472697665722F7372632F6863333F
:10468000325F6C6C5F7574696C6974792E630000BD
:104690000080FF1F004005401080FF1F7FB50F4CBA
:1046A0002046FEF72DFF6846FFF764FA01200090D0
:1046B0000B4801900320029003AA69462046FEF7AA
:1046C000FBFF054601212046FEF762FE294605A0B4
:1046D00002F076F904B0284670BD000000E0044006
:1046E000801A0600565F496E69745F436F64653ACD
:1046F00025640A0010B50446FDF7DAFB044920469C
:10470000FCF798FFBDE810400020FDF70FBC00004B
:104710005C85FF1F70B50446FCF7C0FA054694F8A7
:10472000200088B985B1022084F82000226832B1C7
:1047300020461169BDE870401346FDF7C5BCBDE8D1
:1047400070400DA002F03CB9062813D2DFE800F05B
:10475000120C0C03030C2A462046216800F0EAF9EB
:1047600094F82000042805D029462046BDE8704072
:1047700000F04BBA70BD00004D656E752D3E6E6F3A
:10478000775F6974656D206973204E554C4C0A0043
:104790002DE9F04385B0044690F820000C9D984622
:1047A00017460E46042818D104F13C02B4F8CC1088
:1047B0009146184600F0B2F824F8CC0F4A466188BA
:1047C000284600F0ABF880B26080009034F8CC3915
:1047D000BAB2B1B22046FDF771FBB4F8CC10A8F123
:1047E000020081421FDBB4F8CE10A81E81421ADB02
:1047F00014216846FBF7FBFD20680DA1026868469E
:1048000002F0EEF805EBD57007EB600081B2761D83
:10481000B0B26A4600F048F8032084F82000012076
:1048200005B0BDE8F08300F067F80020F8E700006D
:104830002573204F4B210000014804F0D3BE000037
:10484000FC8DFF1F08B5009313460A460146024837
:1048500004F0D2FE08BD0000FC8DFF1F08B50093D8
:1048600013460A460146024804F008FF08BD00004E
:10487000FC8DFF1F08B5009313460A460146024807
:1048800005F015F808BD0000FC8DFF1F1CB50C4697
:104890000499CDE90031134601462246014805F04E
:1048A00072F81CBDFC8DFF1F13460A4601460148E5
:1048B00005F0DCB8FC8DFF1F1CB50C460499CDE952
:1048C0000031134601462246014805F0DDF81CBDC3
:1048D000FC8DFF1F0148406B70470000FC8DFF1FDF
:1048E000014890F838007047FC8DFF1F01480068B0
:1048F000007C7047FC8DFF1F014805F004B90000E3
:10490000FC8DFF1F0178014805F006B9FC8DFF1FE3
:104910000146014805F008B9FC8DFF1F401A00EE62
:10492000100AB8EEC00A82ED030AD2ED040A70EE56
:10493000800AC2ED040A92ED051A92ED012A70EE8A
:10494000411A92ED001A21EE001A02EE201AD2ED61
:10495000020A82ED050A00EEA11A00EE901AF8EEA6
:10496000E00A70EE810AFDEEE00A10EE900A704750
:104970000D4810B5B0F8FE03800704D440F23F4163
:104980000AA0FDF7DFF91548017801F0C00141F0F8
:104990000F010170114910200D3108701E20FDF724
:1049A0002BFA002010BD0000004005402E2E2F2EB7
:1049B0002E2F647269766572732F686333325F6C71
:1049C0006C5F6472697665722F7372632F686333EC
:1049D000325F6C6C5F7077632E63000002440540A9
:1049E0000449B1F8FE23824342F42540A1F8FE03B6
:1049F000704700000040054030B52DED028B0446A5
:104A0000006887B080680068417B02292DD014219E
:104A100002A8FBF7ECFC206878230C2280680421B4
:104A2000006890ED068A202000902046FDF700FAED
:104A3000002868D094F8210003235A221E2108255B
:104A400001281CD0022823D020689FED310A8068FD
:104A50000068CDE9003028460623FDF703FC2068F6
:104A600080680068016851B32BE0816800294AD052
:104A7000406807B0BDEC028BBDE8304008472068B5
:104A8000B0EE480A80680068CDE90030284607E0AB
:104A90002068B1EE480A80680068CDE900302846F9
:104AA0000623FDF7DFFB2068806800688168002925
:104AB000D5D0027B012AD2D140688847CFE715A123
:104AC0000160206880680468607B10B1012813D100
:104AD00007E0606812A12268036802A801F080FF65
:104AE0000AE060680068FBF71CFDCDE900010EA13B
:104AF00002A8226801F074FF1921284602AAFFF7D4
:104B0000D3FEFFF7F9FE07B0BDEC028B30BD00000D
:104B1000000000004E756C6C206E616D6500000039
:104B200025733A256420000025733A252E3266202D
:104B30000000000038B50D00044624D084F8212080
:104B4000287906281FD2DFE800F01E2D43033A34EF
:104B5000A8680068807B98B1296A2046A1B188477F
:104B6000A8680068417B022911D094F8210003282D
:104B700009D1206880680068816809B1027B72B140
:104B8000052084F8200038BDFFF736FFE8E74068CD
:104B9000017811B100210170F2E70121FBE74068C3
:104BA0008847EDE7296A61B994F821000328E7D026
:104BB00038BD296A29B9204601F07AFEF4E7296A4E
:104BC00011B120468847EFE7204601F018FAEBE7DD
:104BD000296A39B195F82C0020B920468847012070
:104BE00085F82C002020009078230C2204212046F8
:104BF000FFF7CEFD08B1FFF77FFE94F821000028F3
:104C0000D6D0002085F82C00BAE770B50D460446D2
:104C1000002194F82000012870D002281BD005281C
:104C20004AD10020A4F8CE00A4F8CC00022084F8D9
:104C300020000025204605F04BFE6D1C0146082D86
:104C4000F8D32268002A37D020461169BDE87040A9
:104C50001346FDF739BA012D05D0022D11D0032DD1
:104C60001DD02268F0E72268002A25D09369002B26
:104C700022D020461169FDF727FA2068606080691C
:104C800059E02268002A17D0D369002B14D020469F
:104C90001169FDF719FA20686060C0694BE020686F
:104CA00018B1007948B1062829D00121204605F025
:104CB0000FFE042084F8200070BD94F82100032822
:104CC00002D0022084F820000025204605F000FED6
:104CD0006D1C0146082DF8D3226851690029EBD0DC
:104CE000CB68002BE8D02046FDF7EEF9206801697B
:104CF0004861206860604069C0681CE01DE094F86D
:104D00002100032802D0022084F82000002520463C
:104D100005F0DEFD6D1C0146082DF8D322685069B0
:104D20000028C9D0436920461969FDF7CDF92068EC
:104D3000606040694069206070BD2368002BFBD033
:104D40006268002AF8D020461969FDF7BDF9002DE8
:104D5000F2D0022084F820005AE700002DE9F0414B
:104D600017460E4604004FF0000501D0200903D07D
:104D7000AA211DA0FCF7E6FF072E03D9AB211AA03C
:104D8000FCF7E0FF072F03D9AC2117A0FCF7DAFFEF
:104D900021480068772803D0AD2113A0FCF7D2FF8B
:104DA000DFF874E04FF0070CAEF1040E002C18D0C1
:104DB000E00712D0E800011D06FA00F307FA01F23D
:104DC00013430CFA00F20CFA01F00243DEF8000083
:104DD000134090430343CEF8003064086D1CEDB2DD
:104DE000E4E7BDE8F08100002E2E2F2E2E2F6472F6
:104DF00069766572732F686333325F6C6C5F6472BF
:104E0000697665722F7372632F686333325F6C6CDF
:104E10005F7372616D2E6300040805402DE9FF4742
:104E2000844F05460C46386800260090786801904B
:104E3000B8680290F86811F0E06F039012D0C4F3E4
:104E4000026001280ED002280CD003280AD00428C2
:104E500008D0052806D0062804D040F2C62176A046
:104E6000FCF770FF14F0700F12D0C4F30210012889
:104E70000ED002280CD003280AD0042808D0052818
:104E800006D0062804D040F2C7216BA0FCF75AFFD9
:104E900014F4E02F12D0C4F3024001280ED00228EF
:104EA0000CD003280AD0042808D0052806D00628EC
:104EB00004D04FF4327160A0FCF744FF14F4E00F0B
:104EC00012D0C4F3025001280ED002280CD00328BF
:104ED0000AD0042808D0052806D0062804D040F2BD
:104EE000CA2155A0FCF72EFF600712D004F007007E
:104EF00001280ED002280CD003280AD0042808D09C
:104F0000052806D0062804D040F2CB214AA0FCF7A1
:104F100019FF14F4E06F12D0C4F3022001280ED060
:104F200002280CD003280AD0042808D0052806D06F
:104F3000062804D04FF433713FA0FCF703FF14F4AC
:104F4000E04F12D0C4F3023001280ED002280CD05A
:104F500003280AD0042808D0052806D0062804D043
:104F600040F2CD2134A0FCF7EDFE3F48054204D1CC
:104F700040F2CF2130A0FCF7E5FEDFF8F080B8F872
:104F8000FE03C00704D14FF434712BA0FCF7DAFE06
:104F900098F82600DFF8D89000F007004CF2503A5D
:104FA000052819D138690126C00704D140F2D7215C
:104FB00021A0FCF7C7FE2F483860C0127860B860A7
:104FC000F860D8F82000C0F30261D9F80000C840AA
:104FD000B0FBFAF0FBF7A0FED8F820102C40A94354
:104FE0002143C8F82010D8F820005546C0F30261CC
:104FF000D9F800004C46C840B0FBF5F0FBF78CFE3A
:10500000002E14D000983860019878600298B8603B
:105010000398F860D8F82000C0F30261206804B05B
:10502000C840B0FBF5F0BDE8F047FBF775BEBDE842
:10503000FF870000008004402E2E2F2E2E2F64723A
:1050400069766572732F686333325F6C6C5F64726C
:10505000697665722F7372632F686333325F6C6C8D
:105060005F636C6B2E630000777777070040054025
:105070001080FF1F0EFAFFFF2DE9FF47384E040096
:105080004FF000053068009070680190B0680290A1
:10509000F06803900ED0012C0CD0022C0AD0032C07
:1050A00008D0042C06D0052C04D040F257212DA0A6
:1050B000FCF748FE374FB7F8FE03C00704D14FF4A2
:1050C000167128A0FCF73EFE97F82600DFF8C8808E
:1050D00000F007004CF25039052801D0052C18D1FA
:1050E00030690125C00704D14FF418711DA0FCF7E9
:1050F00029FE2A483060C0127060B060F060386AE3
:10510000C0F30261D8F80000C840B0FBF9F0FBF72B
:1051100003FE87F82640386A4C46C0F30261D8F88F
:105120000000C840B0FBF4F0FBF7F6FD002D14D0F2
:1051300000983060019870600298B0600398F06049
:10514000386AC0F30261D8F8000004B0C840B0FB70
:10515000F4F0BDE8F047FBF7DFBDBDE8FF870000D6
:10516000008004402E2E2F2E2E2F647269766572D9
:10517000732F686333325F6C6C5F6472697665723B
:105180002F7372632F686333325F6C6C5F636C6B79
:105190002E630000004005401080FF1F0EFAFFFF45
:1051A00008B5FFF749FB0648402300901A46002146
:1051B0002020FFF781FBBDE80840FFF79DBB000002
:1051C0007CB701002DE9F04F04462DED028B9A4685
:1051D0004C4816460D460FC885B06FF00209DDF841
:1051E00044B08DE80F00484884420DD047488442BF
:1051F0000AD04748844207D04648844204D040F24F
:105200009F2145A0FCF79EFDBAF1000F73D01098C6
:10521000002870D0002D6ED0002E6CD0606910F484
:10522000600410D0B4F5001F0DD0B4F5800F0AD083
:10523000B4F5C00F07D0B4F5400F04D040F2A6215A
:1052400035A0FCF77FFD600D3DF8100006FB00F176
:105250004900B5FBF1F4641EFF2C4CD80021031863
:1052600041EB0107601CA3FB002807FB008041F114
:10527000000C03FB0C03A2FB060703FB067302FBF7
:1052800001310E0246EA106607022A46002338461C
:105290003146FBF731F880387F282CD8CAF8004017
:1052A0001099BBF1000F086023D080214118A1FBA9
:1052B0000504002242F1000303FB054301FB023514
:1052C000044638463146FBF720F941EC180B2046DE
:1052D0002946FBF71AF953EC182BFBF79AF8FBF762
:1052E00033F900EE100AF7EE000A30EE600A8BED9B
:1052F000000A4FF0000905B04846BDEC028BBDE83E
:10530000F08F000054A9010000D0014000D40140FA
:1053100000100240001402402E2E2F2E2E2F6472F9
:1053200069766572732F686333325F6C6C5F647289
:10533000697665722F7372632F686333325F6C6CAA
:105340005F75736172742E63000000002DE9F043F5
:1053500004462DED028B98463E4815460E460FC872
:1053600085B06FF00207DDF838908DE80F003A48FD
:1053700084420DD0394884420AD03948844207D04B
:105380003848844204D04FF4E77137A0FCF7DAFCC8
:10539000B8F1000F58D0002E56D0002D54D06069BF
:1053A00010F4600410D0B4F5001F0DD0B4F5800FD8
:1053B0000AD0B4F5C00F07D0B4F5400F04D040F2C6
:1053C000D91129A0FCF7BEFC600D3DF8101006EBCA
:1053D0008600420005FB01F04000B2FBF0F00A221B
:1053E000401DB0FBF2F0401EFF282DD8C8F8000089
:1053F000B9F1000F27D00022491842EB0204401CEB
:10540000A1FB003C04FB00C042F1000701FB0701C7
:10541000A3FB050401FB054103FB0211FBF775F833
:1054200041EC180B3046FBF763F853EC182BFAF7F6
:10543000F0FFFBF789F800EE100AF7EE000A30EEF5
:10544000600A89ED000A002705B03846BDEC028BE2
:10545000BDE8F08344A9010000D0014000D4014020
:1054600000100240001402402E2E2F2E2E2F6472A8
:1054700069766572732F686333325F6C6C5F647238
:10548000697665722F7372632F686333325F6C6C59
:105490005F75736172742E630000000070B504467E
:1054A00000F018F805460A48016800290FD04FF0AF
:1054B000FF30B0FBF1F04843844202D2021B8A4223
:1054C00000D2044600F006F8401BA042FAD370BD9B
:1054D0000080FF1F01484068704700000080FF1FE8
:1054E00030B51B480068C1071A4801D01A4900E0CE
:1054F0001A491B4A416092F826104FF4004401F00B
:1055000007031849062B06D2DFE803F0030406045C
:1055100006084168016030BD046030BDD2F800313A
:10552000C3F30825D2F800311C0FD2F80031D2F8AD
:10553000002103F01F03120600D541685B1CB1FB7C
:10554000F3F16D1C6943641CB1FBF4F1E2E7000068
:10555000840601401080FF1F0024F400002D31015B
:105560000040054000127A00064800B5016841F489
:1055700070010160FFF7B4FF02494FF480308039B9
:10558000086000BD88ED00E010B586B00121022062
:10559000FDF7A0FA01214804FDF728FA684600F05B
:1055A00041FA002000900190029040F2E7302A4C2E
:1055B000ADF80C006A460121204600F033F90120C5
:1055C000FCF7FEFB01221146204600F0E5F8012021
:1055D000FCF7F6FB01229104204600F0A7F9012018
:1055E000FCF7EEFB4320ADF810000720ADF81200E9
:1055F0001A48059004A8FEF719FCBDF91200012114
:10560000002809DB00F01F0201FA02F240098000C5
:1056100000F1E020C0F88022BDF91200F02200283D
:1056200004DB00F1E02080F8002405E000F00F002A
:1056300000F1E02080F8142DBDF91200002808DBED
:1056400000F01F0291404009800000F1E020C0F806
:10565000001106B010BD0000004402406156010078
:1056600070B52E4D642100242869B0FBF1F201FBD6
:10567000120141B96969491C69610A2903D3284AA1
:10568000012111706C614FF47A71B0FBF1F201FBF2
:10569000120058BBA888401CA880E888401CE880FD
:1056A0002889401C28816889401C68816978C8075E
:1056B00026D01A480A06808900F1010080B202D57E
:1056C000A88101200DE04A0602D5A881022008E049
:1056D0008A0602D5A881042003E0C906A88106D560
:1056E0000720FBF755FAA889232806D20BE00020F3
:1056F000FBF74EFAA889322805D3AC816C7002E022
:105700002878FBF745FA28694FF48031401C28615E
:10571000BDE87040034800F007B800001880FF1F84
:105720003080FF1F0044024070B504460C480D460F
:10573000844207D00B48844204D04FF417710AA06A
:10574000FCF700FB15B135F0011004D040F25D21EB
:1057500005A0FCF7F7FA6069A843606170BD00001E
:1057600000400240004402402E2E5C2E2E5C6472EB
:1057700069766572735C686333325F6C6C5F647208
:10578000697665725C7372635C686333325F6C6CFC
:105790005F746D72302E630070B504461348164670
:1057A0000D46844207D01248844204D040F2F711DB
:1057B00010A0FCF7C7FA35B1012D04D04FF4FC71ED
:1057C0000CA0FCF7BFFA28014FF40055854036B114
:1057D000012E08D040F2F91106A0FCF7B3FA2069B7
:1057E000A843206170BD20692843FAE700400240C9
:1057F000004402402E2E5C2E2E5C64726976657227
:10580000735C686333325F6C6C5F64726976657277
:105810005C7372635C686333325F6C6C5F746D726F
:10582000302E63002DE9F04114000E4605464FF07E
:1058300000075CD02F48854206D02F48854203D010
:10584000BD212EA0FCF77EFA2EB1012E03D0BE2181
:105850002AA0FCF777FA206860B1B0F5007F09D084
:10586000B0F5807F06D0B0F5A06F03D0BF2123A094
:10587000FCF768FA6068B8B1102815D0202813D05A
:10588000302811D040280FD050280DD060280BD0E0
:10589000702809D0802807D0902805D0A02803D0F0
:1058A000C02116A0FCF74EFAA06838B1A0F500415F
:1058B000023903D0C12111A0FCF744FA05EB8600A0
:1058C00000210160A18981602B69300148F2F271E9
:1058D00001FA00F29343D4E90026A468324322433C
:1058E0000A40824013432B613846BDE8F0816FF0D7
:1058F0000207F9E700400240004402402E2E5C2ED1
:105900002E5C647269766572735C686333325F6CB7
:105910006C5F6472697665725C7372635C68633332
:10592000325F6C6C5F746D72302E630070B504462C
:10593000124816460D46844207D01148844204D0CE
:1059400040F22B210FA0FCF7FDF915B135F0041042
:1059500004D04FF40B710BA0FCF7F4F94EB1012EFB
:1059600004D040F22D2107A0FCF7ECF92069284370
:1059700001E02069A843206170BD000000400240A2
:10598000004402402E2E5C2E2E5C64726976657295
:10599000735C686333325F6C6C5F647269766572E6
:1059A0005C7372635C686333325F6C6C5F746D72DE
:1059B000302E630070B504460C480D46844206D074
:1059C0000B48844203D0F2210AA0FCF7BBF92DB1A9
:1059D000012D03D0F32107A0FCF7B4F920692A01B7
:1059E000012191400843206170BD00000040024049
:1059F000004402402E2E5C2E2E5C64726976657225
:105A0000735C686333325F6C6C5F64726976657275
:105A10005C7372635C686333325F6C6C5F746D726D
:105A2000302E6300002140B100220260426082609B
:105A30004FF6FF728281084670476FF00201FAE765
:105A4000F8B504461CA01646006800901B480D4699
:105A500084420ED01A4884420BD01A48844208D09F
:105A60001948844205D01948844202D0184884421B
:105A700001D10A2D04D940F2E92116A0FCF762F900
:105A800036B1012E04D040F2EA2112A0FCF75AF9F7
:105A9000032D03D21DF80500983405E0ED1E04EB3C
:105AA00085040C2004F58074610101EB800000F195
:105AB00084400660F8BD000000080C000050014062
:105AC0000054014000580140005C0140006001406A
:105AD000006401402E2E5C2E2E5C64726976657225
